:020000040000FA
:06000000020BC0020261C8
:0300130002028363
:03002B0002098A3D
:03003B000202D8E6
:0300530002019611
:100083000201F50100F0FF0700080000FFFF000078
:10009300070400000F010147726F757000FF040031
:1000A300100502640A2FAC092FAC09C0C1C2C3C436
:1000B300C5C6C7C8C9CACBCCCDCECF5A69674265BE
:1000C30065416C6C69616E636530390100FFFFF255
:1000D300E0A1610000000000012E8BDC0CE20CEEBD
:1000E3000CE80C0020FD000206FFFF6F8AB3894A6B
:1000F3008A19361E080401500000012C8B065C8906
:100103000B0401500000012C8B065C89780401501C
:10011300000003758A03758A780000000F1B000135
:1001230004020000A815000000E8030000FFFF2000
:10013300160103E803000064006400B801A0BB0DCE
:1001430000A0BB0D000202020704010101051E020B
:10015300051E020A0A0101010809080103B80B027E
:10016300803E0102FEFFE8030A050001FFFF0A01CA
:100173001401E0020000000105030101FF0F10FE5E
:10018300FFDD2B00000000B12A00000000FF00008B
:1001930000FF00C0E074F1120512A2AFE433F509C9
:1001A300D2AF85A708AFA1EF5508FE74105E6006B5
:1001B300120ED475A1EF74085E6008120EDA75A1F1
:1001C300F78024EFA2E092F0E508A2E082F0501756
:1001D300906198E0F8900591E0C398A2D265D0337E
:1001E3005002E8F075A1FEE509A2E092AF7F02029A
:1001F3000571C0E074F2120512A2AFE433FED2AF70
:100203009061A4E0F8759B00E59158540860087567
:1002130091F7120F288023E59158541060087591C7
:10022300EF120F2E8014E591A2E092F0E8A2E08293
:10023300F05007E0C2E0F01210789061A3E0F8E517
:10024300E9585404600E12104E75E9FB906193E077
:10025300A2E640F2EEA2E092AF7F01020571C0E098
:1002630074F2120512A2AFE433FED2AF9061A5E09F
:10027300F8E5BF585404600675BFFB12109080D494
:10028300C0E0C0D0E8C0E0E9C0E0C082C083A8C13C
:10029300E8C0E09004FEE0F8747D28F582E43404BD
:1002A300F583D0E0F09004FDE0F8A3E0687006E584
:1002B30095900500F09004FEE004F0C394804002A2
:1002C300E4F0A374C6F0D083D082D0E0F9D0E0F894
:1002D300D0D0D0E032C0E0C0D0E8C0E0E9C0E0C098
:1002E30082C083900581E0F8A3E0687008539AFB0D
:1002F300A374018022C2E9900581E0F8740128F01B
:10030300740128F582E43405F583E0F5C190058195
:10031300E0C394804002E4F080ACC3E498F8E4992D
:10032300F912035E8026C3E49AFAE49BFBE920E713
:10033300E912035EE498F8E499F922C3E498F8E437
:1003430099F912035EE498F8E499F9C3E49AFAE49C
:100353009BFB22EB20E7CFE920E7E0B90010BB00CD
:1003630008E88AF084F8AAF022E4FBC8FA22EB70CA
:10037300227B10C833C8C933C9335007C39AC3DBC0
:10038300F280069A50012ADBEAC833F4C8C933F471
:10039300C9FA2275F008E4C833C8C933C933C99A06
:1003A300C99B5004C92AC93BD5F0ECFBC833F4C838
:1003B300E4C9FA22080808EAC0E0EBC0E086F0E7E7
:1003C300A4FA180986F0E7A42AFA180986F0E7A424
:1003D3002AFA180986F0E7A42AFA1986F0E7A4FB9B
:1003E300E5F02AFA190886F0E7A42BFBE5F03AFAC0
:1003F300190886F0E7A42BFBE5F03AFA18180986EA
:10040300F0E7A4C5F02BFBE43AFA1908E7C5F0C6F8
:10041300A426F6E5F03BFBE43AFA1886F0E7A4F6E7
:10042300E5F00826F6E43B08F6E43A08F6D0E0FBEC
:10043300D0E0FA22E4CFC0E0E4CEC0E0E4CDC0E0F7
:10044300E4CCC0E075F020E626F608E633F608E6CD
:1004530033F608E633F6181818EC33FCED33FDEEEB
:1004630033FEEF33FFC3EC9709ED9709EE9709EFDE
:1004730097191919400FFFEC97FC09ED97FD09EE49
:1004830097FE191906D5F0BFECF709EDF709EEF75A
:1004930009EFF7191919D0E0FCD0E0FDD0E0FED048
:1004A300E0FF222518C582C0E0E51934FFC583C0EB
:1004B300E0E518C3958224F810AF08858319858277
:1004C300188008858319858218D2AFCEF0A3E52062
:1004D300F0A37808E608F0A3DEFAEFF0A3E58124A1
:1004E300FAF8E608F0A3E608F0A3E608F0A3080884
:1004F300E608F0A3E608F0A315811581D0E0FED04D
:10050300E0F8158115811581E8C0E0EEC0E022C056
:10051300D02518C582C0E0E51934FFC583C0E0E5E6
:1005230018C3958224F310AF088583198582188038
:1005330008858319858218D2AFC8F0A3E9F0A3EA2E
:10054300F0A3EBF0A37908E709F0A3D8FAECF0A342
:10055300EDF0A3EEF0A3EFF0A3D0E0F0A3D0E0F032
:10056300A3D0E0F0A3E520F0A3E5F0F0A3228519E2
:1005730083851882E0C0E0A3E0F9A3E0FAA3E0FBDF
:10058300A37808E0F608A3DFFAE0FCA3E0FDA3E00C
:10059300FEA3E0FFA3E0C0E0A3E0C0E0A3E0F5D04A
:1005A300A3E0F520A3E0A3F5F010AF088583198538
:1005B30082188008858319858218D2AFD082D083B0
:1005C300D0E0F8D0E032120C3AB90003020608E496
:1005D300900401788679178002F0A3D8FCD9FA7ABF
:1005E300867B1A900086781179028015E493A3AD77
:1005F30082AE838A828B83F0A3AA82AB838D828EA1
:1006030083D8E9D9E77582A97583C8740612091BD3
:100613007582AE758328740012091BE47375F0109C
:100623008E1A8F1B85821F85831E851882851983E9
:10063300E0CEA3E0CF851F82851E83EBC9EAC8ED18
:10064300CBECCAC3E833C8E933C9EA33CAEB33CBCB
:10065300C3EA9EF51DEB9FF51CB35004AB1CAA1D0A
:10066300EC33CCED33CDD5F0DAAE1AAF1B22D08309
:10067300D082ECC0E0EDC0E0E493A3FCE493A3FDDF
:10068300ED4C600D120749EC24FFFCED34FFFD80B7
:10069300EFE493A3FCE493A3FDED4C600D1207E696
:1006A300EC24FFFCED34FFFD80EFD0E0FDD0E0FC57
:1006B300E493A3C0E0E493C0E02285198385188204
:1006C300E0A3FEE0A3F5207808E0A3F608DFFAE054
:1006D300A3FFE0A3C0E0E0A3C0E0E0A3C0E0E0A389
:1006E300C0E0E0A3C0E010AF0885821885831980BD
:1006F30008858218858319D2AFD083D0820209215D
:10070300D083D082E9C0E0E493A3C386F0C5F0951B
:10071300F0F908E493A386F0C5F095F0700BE49329
:10072300A3C3994005E9048002A3E475F002A4255C
:1007330082F582E5F03583F583D0E0F9E493A3C035
:10074300E0E493C0E022C0E0C3E49396087401930D
:100753009618400FE4936670080874019366187046
:10076300007019A3A3C3E49396087401939618A386
:10077300A3400DD0E0D0E0D0E00206ADA3A3A3A335
:10078300A3A3D0E0227404800474028000CCC0E0F0
:10079300EDC0E0E518C39CCCAD1950011D10AF06A8
:1007A3008C188D1980068C188D19D2AF12087FD042
:1007B300E0FDD0E0FC2274028000CCC0E0EDC0E09C
:1007C300E518C39CCCAD1950011D10AF068C188DD4
:1007D3001980068C188D19D2AF12085DD0E0FDD0B8
:1007E300E0FC22C0E0C0F088F0E49366700808746F
:1007F300019366187000A8F0A3A3700BD0F0D0E0AB
:10080300D0E0D0E00206ADA3A3D0F0D0E022D083A5
:10081300D082CCC0E0E493A360061208A01470FA5F
:10082300E493A36006120A1D1470FAD0E0FCE4936B
:10083300A3C0E0E493C0E022A2E792D65002F404FE
:1008430030F70663F0FF05F0B3400384800384F4BC
:100853000430D60563F0FF05F022CAC0E0E493A399
:10086300C582CCC582C583CDC583F0A3C582CCC563
:1008730082C583CDC583DAE5D0E0CA22CAC0E0E0F1
:10088300A3C582CCC582C583CDC583F0A3C582CC65
:10089300C582C583CDC583DAE6D0E0CA22C0E0E4D1
:1008A30093A3D39C5010E493A3C39C400AD0E0D0FD
:1008B300E0D0E002082EA3A3A3D0E0227009080829
:1008C30008226016181818C6C333C608C633C608EC
:1008D300C633C608C633C6D5E0EA22C008C3E096CD
:1008E300F50808A3E096420808A3E096420808A387
:1008F300E09645087001D3D00822C5822518C58229
:10090300C583351910AF07F5198582188007F519C6
:10091300858218D2AFC58322C09FF59FE473D09F11
:1009230022D083D082C09FE493C0E0740193C0E0DF
:10093300740293F59F222518F58210AF08F518402D
:100943000C15198008F51840021519D2AF851983C3
:10095300227404800A74038006740280027401C046
:10096300E0F404120939D0E0120BFD2200C0D025B7
:100973001810AF08F518500C05198008F518500227
:100983000519D2AFD0D022C0E0C0D0E8C0E0A8A8FB
:10099300D2AFC2C7E8A2E792AFD0E0F8D0D0D0E0A0
:1009A30032BB0102E722C082C08389828A83BB00F3
:1009B30003E08002E493D083D08222601608080803
:1009C300C6C313C618C613C618C613C618C613C69D
:1009D300D5E0EA222518F8E43519F9222518FAE4B6
:1009E3003519FB222518FCE43519FD22C3E0C69610
:1009F300F608A3E0C696F608A3E0C696F608A3E0B9
:100A0300C696F622251810AF08F518400C15198064
:100A130008F51840021519D2AF22C0E0E493A36C85
:100A23007009D0E0D0E0D0E002082EA3A3D0E022EA
:100A3300E76670100809E766700A0809E76670043C
:100A43000809E76622E066701008A3E066700A08EA
:100A5300A3E066700408A3E06622C3E09608A3E05F
:100A63009608A3E09608A3E096A2D265D03322C3EA
:100A7300E49396087401939608740293960874039A
:100A8300939622C3E096F008A3E096F008A3E096BD
:100A9300F008A3E096F022C3E697F60809E697F676
:100AA3000809E697F60809E697F622E046F608A352
:100AB300E046F608A3E046F608A3E046F622E6275A
:100AC300F60809E637F60809E637F60809E637F6C1
:100AD30022E026F608A3E036F608A3E036F608A3DC
:100AE300E036F622E056F608A3E056F608A3E056F1
:100AF300F608A3E056F622E493F608740193F60889
:100B0300740293F608740393F622E026F008A3E038
:100B130036F008A3E036F008A3E036F02270042292
:100B2300600D18C6C333C608C633C6D5E0F4182211
:100B3300E647F60809E647F60809E647F60809E630
:100B430047F622E056F008A3E056F008A3E056F07B
:100B530008A3E056F022E657F60809E657F6080917
:100B6300E657F60809E657F622E046F008A3E04602
:100B7300F008A3E046F008A3E046F022E4C396F6AB
:100B830008E496F608E496F608E496F622C6F4C658
:100B930008C6F4C608C6F4C608C6F4C622C3E0965F
:100BA30008A3E09608A3E09608A3E09622C3E7967D
:100BB3000809E7960809E7960809E7962275D00021
:100BC30075813F751801751904000205C9E6F0081F
:100BD300A3E6F008A3E6F008A3E6F022600C08C63B
:100BE300C313C618C613C6D5E0F422E0F608A3E083
:100BF300F608A3E0F608A3E0F622CAC0E0E6F0A3F5
:100C030008DAFAD0E0FA22E8F0A3E9F0A3EAF0A3C5
:100C1300EBF022E0F8A3E0F9A3E0FAA3E0FB22EA79
:100C2300F0A3EBF0A3ECF0A3EDF022E0FAA3E0FBDA
:100C3300A3E0FCA3E0FD22E5C754F84401F5C7791E
:100C430001222518F582E43519F58322C2AF75D642
:100C53009F02000022120924EADE0512092436DF6E
:100C630005120924C6DF051209249FE00512092491
:100C7300F0E00512092455E105120924C8E1051223
:100C830009240CE20512092464E20512092486E210
:100C93000512092416E305120924A7E30512092402
:100CA300F3E3051209241FE40512092460E4051285
:100CB300092401E605120924E3E605120924BFE726
:100CC30005120924EDB30412092420B404120924E3
:100CD30068B40412092474B604120924DDB804129A
:100CE300092410B904120924ECBB04120924A2BE7E
:100CF3000412092438BF04120924B6C204120924B9
:100D030087C304120924EBC4041209246DC5041219
:100D1300092465C604120924A6C8041209242DC98E
:100D2300041209242ECB0412092454CE04120924DC
:100D330057CE041209246ACE04120924B7CE041232
:100D43000924849605120924589B05120924BC9B87
:100D530005120924E19C05120924CBA005120924DC
:100D6300AAA405120924CAA60512092410A705126C
:100D73000924DFA80512092426E30612092440E307
:100D830006120924FC7F0012092481E206120924B9
:100D93004FE3061209242BE0061209243BE0061256
:100DA30009244DE00612092491E006120924DBFE12
:100DB300031209245FFF03120924C7FF0312092446
:100DC300F97F00120924F3D60612092401D706126B
:100DD300092461D70612092499D706120924B5D725
:100DE300061209242AD80612092416D90612092440
:100DF3009AE006120924BFE006120924D2E0061283
:100E03000924DDE00612092433C3061209244EC364
:100E1300061209247BC3061209248FC4061209246F
:100E23002FC50612092453C506120924C2E206126D
:100E33000924C1CD061209240BCE06120924A1CE22
:100E43000612092427CF0612092459CF06120924B2
:100E530071CF06120924E5CF06120924FBCF06122F
:100E630009240ED00612092418D00612092410FAF8
:100E7300011209243CFA01120924D3FC01120924AA
:100E830013FD011209244FFD0112092463FD011210
:100E930009247CFD011209246DFE011209241FFFA0
:100EA3000112092433FF01120924B3DA06120924BB
:100EB300D7DA06120924F0DA061209242EDB061209
:100EC30009245EDB061209248BDB06120924F1DBFD
:100ED30006120924F4DB06120924FEDB0612092498
:100EE3000BDC0612092402C60612092422C60612C6
:100EF300092461C6061209247FC6061209249AC66C
:100F03000612092400C7061209240CC70612092475
:100F130069C70612092478C7061209249CC706125A
:100F230009245DC8061209246AC8061209247BC86D
:100F330006120924F4E1061209240CE2061209241C
:100F430038E20612092494A506120924F0A6061213
:100F53000924FEA60612092411A70612092426A7AE
:100F6300061209243BA7061209244EA706120924D8
:100F7300CAA7061209242FA806120924C5A8061217
:100F830009249EA906120924AEA906120924BDA9A3
:100F930006120924577F001209247B7F00120924BB
:100FA300A37F00120924CB7F001209242BD0061241
:100FB300092452D00612092470D006120924DFD066
:100FC300061209246AC00612092483C006120924E2
:100FD3008FC006120924A3C006120924C1C0061239
:100FE3000924CBC006120924D5C006120924E8C07F
:100FF300061209246EC106120924E3C1061209244C
:1010030012C20612092460C206120924AFC20612D4
:101013000924CAC206120924D4C206120924E5C24D
:101023000612092428C3061209245AE106120924C8
:101033007B9406120924A79406120924C494061269
:101043000924D79406120924F294061209244C9514
:10105300061209247A95061209248A99061209248C
:10106300E89A061209241A9B061209247D9B06128C
:101073000924E99C06120924119D06120924269DC0
:1010830006120924369D06120924769D06120924A8
:10109300B89D06120924C89D06120924C2FE051232
:1010A3000924DCFE0512092404FF051209241DFF8F
:1010B3000512092441FF051209245FFF05120924C3
:1010C30076FF05120924A4FF05120924BFFF0512A8
:1010D30009243BE2061209248DB9061209249DB99D
:1010E30006120924A2BA06120924D4BA0612092444
:1010F30004BB0612092427BB061209243EBB0612B1
:10110300092478BB06120924DDBB061209241FBC7F
:101113000612092466BC0612092493BC061209248C
:10112300BEBC06120924F07F00120924F37F0012CB
:101133000924F67F001209243DCB061209245DCB56
:101143000612092471CC0612092493CD0612092430
:1011530028D9061209245ED90612092476D9061263
:101163000924B8D906120924C8D9061209240CDAAD
:1011730006120924A6DA06120924B0DA0612092493
:10118300918A061209249B8A06120924C68A06122A
:1011930009240F8B06120924788B06120924978BD6
:1011A30006120924B08B06120924528C0612092454
:1011B300DA8E06120924E38E06120924348F0612EE
:1011C30009245D8F061209246A8F06120924DB8F16
:1011D30006120924699006120924B79006120924FD
:1011E300ED90061209244E910612092477910612F6
:1011F3000924EE91061209244A92061209248792C1
:1012030006120924BE9206120924D092061209245A
:10121300E292061209240193061209240A93061284
:101223000924C593061209241194061209244F9424
:1012330006120924F8E00612092467DD06120924C0
:1012430080D206120924B6D206120924FED206124F
:10125300092457D406120924A4E904120924D5EA5F
:101263000412092411EB04120924CBEC04120924FF
:10127300F5EC041209246EEF04120924AEEF0412F4
:10128300092442F104120924E1F10412092439F278
:1012930004120924CCF20412092406F304120924CB
:1012A30048F304120924BBF4041209243BF6041284
:1012B300092478F804120924A6F804120924D2F8A0
:1012C30004120924DBF80412092438F9041209244E
:1012D300C8F90412092404FD0412092486FD04122A
:1012E3000924DDFF01120924F3FF0112092426AEAC
:1012F300061209243CAE06120924E0AE06120924A4
:101303001FAF061209243CAF061209246DAF061263
:101313000924BAAF06120924EEAF0612092429B034
:10132300061209241EB206120924A7DE0612092496
:1013330006DF0612092444DF0612092485DF06129C
:10134300092462E306120924A7DF06120924D0DF69
:1013530006120924E7DF06120924F5DF0612092421
:10136300BED406120924F5D4061209243CD506126C
:101373000924D9D50612092499D60612092415DCA5
:101383000612092432DC0612092464DC061209243D
:1013930067DC0612092464DD0612092400800412A6
:1013A30009240C80041209246D8204120924758215
:1013B3000412092407830412092443830412092411
:1013C300028404120924668404120924EF8404129B
:1013D3000924558504120924A285041209241D86B3
:1013E30004120924DC8704120924E3890412092462
:1013F300EE8A04120924818B04120924DA8C041264
:101403000924DB8D04120924208F04120924B693C6
:10141300041209249F940412092422950412092416
:101423004795041209246C950412092407960412A3
:101433000924259604120924439604120924B49618
:1014430004120924D39604120924009704120924D0
:10145300019804120924F89804120924899A0412A1
:1014630009242F9B04120924769B04120924E89B68
:1014730004120924779C04120924DC9C0412092415
:10148300399D04120924D89D04120924459E04128F
:101493000924809E04120924E99E0412092453A0FE
:1014A30004120924C8A1041209247AA204120924EB
:1014B3008FA204120924E0A2041209244DA30412EA
:1014C30009247DA304120924F0A304120924A9A466
:1014D30004120924ABA60412092419A9041209242D
:1014E30045AA041209244BAE0412092418AF0412AE
:1014F300092435B004120924DEB104120924E3FDE2
:101503000412092495FE04120924A4FF04120924D9
:10151300E3BC051209246DBD05120924E0BD0512C3
:101523000924DCBE05120924E6BF0512092467C09D
:101533000512092493C1051209241DC205120924A9
:101543003EC20512092426C30512092449C4051203
:101553000924F7C40512092473C8051209249DCA76
:101563000512092446CC05120924D8CC05120924F6
:101573004FCD051209246FD00512092421D205127B
:1015830009246CD405120924B9D5051209245ED89F
:101593000512092488D805120924B8D8051209248C
:1015A30052D905120924E9D905120924FAD90512D9
:1015B300092401DA0512092485DA05120924CEDA91
:1015C3000512092432CF0412092461CF041209241D
:1015D300DECF0412092441D10412092434D20412A7
:1015E3000924AED304120924D3D30412092425D425
:1015F30004120924B7D40412092403D504120924BC
:1016030016D50412092478D504120924B5D5041279
:1016130009249FD604120924FAD60412092465D892
:101623000412092444D90412092492DA0412092465
:1016330075DB0412092401DC041209243ADC0412C8
:10164300092459DC04120924A4DC04120924C4DC8F
:101653000412092481DD04120924A4DE04120924DE
:10166300FFDE041209243FDF0412092441E00412BF
:101673000924EEE20412092414E30412092484E386
:1016830004120924A9E30412092430E404120924EE
:101693000CE5041209244AE504120924CEE50412D8
:1016A3000924B9E604120924BCE604120924C6E697
:1016B30004120924D0E604120924ECE604120924D6
:1016C30055E7041209248EE704120924AAE7041239
:1016D3000924D1E704120924F5E70412092430E8A8
:1016E30004120924A3E804120924D7E804120924E4
:1016F300E1E8041209241DE90412092452E9041241
:10170300092471E904120924A5E106120924BDE1A3
:1017130006120924FDFF01120924F89D061209246B
:10172300479E0612092405A006120924BFA106122A
:101733000924FDA1061209242AA30612092435A4AB
:101743000612092457A406120924A1A40612092487
:1017530022A506120924DED403120924FDD40312A0
:101763000924A0D503120924E9D50312092459D663
:1017730003120924D1D60312092438D703120924EA
:101783003BD70312092483D70312092407D8031272
:1017930009248FD80312092492D8031209241DD9CE
:1017A3000312092460D903120924ECDD031209246E
:1017B3008BDF03120924CADF031209244EE3031249
:1017C300092487E4031209244CE503120924F0E5F4
:1017D300031209243EE603120924C7E8031209246D
:1017E30094EA0312092411EB0312092420EE0312D5
:1017F30009248CEE0312092498EF03120924CEF274
:1018030003120924DEF20312092459F403120924F2
:10181300DDF4031209241BF60312092424F703122F
:10182300092490F803120924D5F80312092480F936
:1018330003120924246A00120924BF6A001209242E
:10184300326B00120924D36B001209242C6C001292
:101853000924776C00120924D66C00120924E36D65
:10186300001209240071001209243672001209249F
:10187300BF7200120924C374001209246775001291
:101883000924F87500120924E276001209249377DB
:1018930000120924017800120924E37900120924B3
:1018A300587B00120924677C00120924F47C00127F
:1018B3000924007E0012092426E0021209248FE085
:1018C30002120924D7E0021209241BE1021209249F
:1018D30074E102120924D1E10212092432E2021254
:1018E30009248CE20212092400E40212092427E4E9
:1018F300021209243BE50212092442E602120924DA
:101903009DE602120924B1E702120924D9E7021263
:10191300092426E90212092437E9021209244FE9AE
:101923000212092466EA0212092472EB0212092444
:101933007BEB0212092492EB02120924CCEB021274
:101943000924EBEB0212092402EC02120924FBEC3A
:10195300021209240FEE0212092437EE021209249F
:1019630041EE02120924B0EE0212092499EF021289
:101973000924E6EF0212092465F0021209249CF0FF
:10198300021209241CF102120924F5F2021209249D
:10199300F5F30212092443F402120924AFF50212EB
:1019A300092449F702120924B9F90212092493FB05
:1019B300021209243DFC02120924B48706120924E9
:1019C300D1FC02120924CBFD02120924C3FE021228
:1019D300092432FF0212092416BD06120924C6BEC9
:1019E300061209248EBF06120924F6BF0612092423
:1019F300E4B50612092402B60612092446B60612F5
:101A030009246CB60612092493B606120924ABB650
:101A1300061209244DB7061209248FB706120924AA
:101A2300B1B806120924BAB80612092465DE0512F4
:101A33000924CCB806120924D6B8061209242DFAB3
:101A43000312092461FE031209246FFE0312092401
:101A530074FE03120924CAC906120924FAE2061203
:101A63000924EEA90612092447FF0112092471FF74
:101A730001120924C9FF04120924D5FF0212092403
:101A8300E0FF0312092400800312092432800312A9
:101A930009249E8003120924398103120924D88161
:101AA300031209241D82031209243F82031209240D
:101AB3005882031209247E8203120924BC82031272
:101AC3000924008303120924228303120924848333
:101AD300031209244B8403120924028503120924E7
:101AE300748503120924468603120924908603127F
:101AF3000924E386031209244987031209248387EF
:101B030003120924D58703120924F1870312092438
:101B13001C8803120924238A03120924778B0312D6
:101B23000924998B03120924CD8B03120924EE8B0C
:101B330003120924FD8B03120924088C03120924C0
:101B4300B88C03120924218D03120924CE8D0312AC
:101B53000924068E03120924CC8E03120924D98F7B
:101B630003120924239003120924B29003120924B7
:101B7300169103120924519103120924BD930312F0
:101B830009241195031209244A9803120924179969
:101B930003120924A59903120924CE9903120924D7
:101BA300409A03120924D49A03120924C69B0312F0
:101BB3000924E89B03120924449D031209245D9D13
:101BC30003120924709D03120924259E031209247C
:101BD300359E03120924379F03120924AE9F031273
:101BE3000924DD9F03120924E3A00312092429A178
:101BF30003120924F5A203120924CDA60312092412
:101C0300D7A603120924EBA603120924F5A603128F
:101C13000924FFA60312092409A70312092422A7F2
:101C2300031209242CA703120924A0A703120924D1
:101C3300ABA703120924D0A703120924DBA70312BD
:101C4300092429A80312092433A8031209243EA84E
:101C53000312092462A80312092486A80312092483
:101C6300E2A80312092428A90312092445A903128F
:101C73000924C2A903120924F9A90312092438AAC1
:101C83000312092485AA0312092407AB03120924AA
:101C9300A0AB0312092470AD03120924CEAD0312C5
:101CA3000924EAAE0312092410AF031209244FB02A
:101CB3000312092475B303120924B6B503120924C8
:101CC30092B70312092428B8031209244FBA031246
:101CD3000924FBBA0312092430BB0312092495BB60
:101CE300031209249FBB03120924C9BD031209244B
:101CF300F0BE0312092430BF03120924D6BF031216
:101D0300092467C103120924F0C20312092410C372
:101D13000312092469C3031209246BC4031209249F
:101D2300B5C40312092405C503120924EFC5031220
:101D3300092464C6031209247EC703120924F9C7C0
:101D430003120924FEC803120924A9CB0312092490
:101D5300C8CB0312092429CD03120924EBCE0312A5
:101D630009243FCF03120924F7CF03120924A3D078
:101D730003120924F9D003120924AFD10312092451
:101D830044D203120924B0D203120924EAD2031263
:101D930009241BD30312092477D4031209240080D6
:101DA30002120924328002120924698002120924D2
:101DB30045820212092485820212092468830212D1
:101DC3000924C08302120924FB84021209244785D3
:101DD300021209246F8802120924D18B02120924EA
:101DE3001E8D02120924B48D02120924C08D021221
:101DF3000924F28D02120924748F0212092482909D
:101E030002120924AC90021209240391021209243C
:101E13005C9102120924C89102120924DF93021271
:101E230009246E9502120924389602120924769722
:101E330002120924A69902120924769C021209248B
:101E4300839C021209240A9D02120924B29D0212E4
:101E53000924F59D021209243E9E02120924929E32
:101E630002120924F79E021209245F9F0212092419
:101E73007C9F02120924AC9F02120924E19F0212E3
:101E83000924B1A0021209245AA102120924DEA3D3
:101E930002120924FEA402120924E7A5021209244E
:101EA30069A6021209248BAA02120924C8AA0212E3
:101EB300092420AB0212092453AB02120924D4AB28
:101EC3000212092421AC02120924ACAC0212092427
:101ED300FEAC02120924D5AD021209248EAE021201
:101EE300092429AF0212092442B20212092462B35F
:101EF3000212092413B7021209242AB80212092470
:101F03002DB8021209245CB80212092462BA021223
:101F130009243BBB0212092470BB02120924E6BC4C
:101F23000212092458BD0212092439BE02120924DF
:101F330006BF021209243CC102120924ADC10212D8
:101F43000924EDC1021209244EC20212092411C64A
:101F53000212092400C702120924E7C70212092446
:101F6300B3C802120924CFC902120924E0C902121C
:101F73000924F4C9021209242CCA021209245ACAD8
:101F83000212092434CC02120924CBCC02120924F4
:101F930036CD0212092415CF0212092445CF0212AD
:101FA300092429D002120924DAD0021209248FD27B
:101FB3000212092433D30212092468D3021209241A
:101FC300D0D302120924FFD402120924B1D502127C
:101FD3000924E2D502120924FAD50212092489D66A
:101FE300021209243DD90212092415DB0212092425
:101FF30031DB021209244DDB021209241BDC02121D
:10200300092404E0021209242BB2061209246BB23C
:10201300061209241EB4061209242DB4061209243B
:10202300008005120924178505120924628505120B
:102033000924B28705120924468905120924D48983
:1020430005120924358C051209243A8E0512092438
:102053008E8E051209249D9005120924CE90051237
:1020630009240E910512092429910512092484914A
:1020730005120924A69105120924AD91051209241C
:10208300C59105120924A59205120924849305120A
:102093000924358B011209246D8B011209244B90FD
:1020A30001120924919001120924DE9101120924DD
:1020B300499201120924D29301120924E2960112D2
:1020C3000924FD97011209240FA201120924A2A2D7
:1020D30001120924F4A501120924F0A6011209240E
:1020E3004BA70112092495A80112092483A90112FF
:1020F30009241FAC0112092493AD0112092416AE61
:102103000112092419AE0112092444AE0112092453
:10211300F4AE01120924EDAF0112092498B00112A3
:102123000924B6B001120924CFB001120924F8B072
:10213300011209241AB1011209246FB301120924EF
:1021430034B40112092479B401120924F8B4011238
:102153000924A4B501120924D6B5011209242AB60B
:102163000112092465B601120924ACB6011209242F
:10217300FCB60112092401B70112092455B7011253
:10218300092481B7011209246AB801120924BBB8D2
:10219300011209241BB90112092475B9011209247A
:1021A30010BA011209244FBD0112092461BE0112A4
:1021B3000924DBBF01120924EBC20112092489C3DC
:1021C300011209247FC6011209243EC70112092402
:1021D30082C7011209242DC90112092441C9011220
:1021E30009244BC90112092455C90112092461C9E3
:1021F3000112092486C9011209245FCB01120924A3
:10220300B4CB01120924BECB01120924C8CB01129D
:1022130009243DCC011209248CCC011209249DCD43
:1022230001120924EACD01120924F7CE011209246F
:102233003BCF01120924E1CF01120924D4D00112AA
:1022430009249AD101120924BDD201120924DBD336
:1022530001120924C3D401120924DBD40112092475
:1022630032D5011209243CD50112092447D50112A4
:10227300092465D501120924ADD5011209240FD60D
:102283000112092436D60112092448D60112092461
:10229300E3D60112092418D701120924FFD701122A
:1022A300092444D8011209242AD90112092451D935
:1022B30001120924D4D90112092445DA011209248F
:1022C300CEDB01120924FADC01120924BDDD01125F
:1022D300092485DE011209240FDF0112092437E0E6
:1022E30001120924D9E00112092454E1011209243D
:1022F30010E2011209245AE201120924B4E2011284
:1023030009248CE301120924AFE30112092462E4D6
:102313000112092484E401120924EDE401120924C1
:1023230003E701120924FBE701120924BFE80112A4
:102333000924F1EA011209243BEB011209248BEB76
:1023430001120924EFEB0112092451EC01120924B3
:102353007FEC01120924A3EC01120924D8EC011229
:10236300092409ED011209243CED011209248CED25
:1023730001120924DFED0112092404EF01120924DB
:10238300A4F001120924FFF00112092428F101121B
:102393000924B5F10112092423F20112092431F2AF
:1023A3000112092455F201120924AAF20112092487
:1023B300C5F20112092477F301120924AFF30112C4
:1023C3000924F2F30112092455F40112092457F6E2
:1023D3000112092481F60112092478F70112092454
:1023E30082F80112092432F90112092499E805122D
:1023F3000924D1E805120924F2E80512092434E975
:102403000512092496E905120924A0E905120924F5
:10241300B0E905120924EBE905120924CBED0512F5
:102423000924B8EF051209249EF10512092435F297
:1024330005120924D7F2051209241F3000120924BA
:10244300CA30001209247831001209247E320012A6
:1024530009249E3200120924C7330012092482354D
:1024630000120924F53500120924993600120924B3
:10247300A537001209241038001209244C38001221
:1024830009248F3800120924CA38001209240C3990
:1024930000120924A139001209241D3A001209244B
:1024A300E73A00120924C43B001209245C3C0012E1
:1024B3000924763C00120924A63C00120924D73CC7
:1024C300001209249D3D00120924AD3D0012092488
:1024D300FC3D00120924093E00120924123E001299
:1024E3000924903E00120924EC3E00120924373FD0
:1024F30000120924523F001209247D3F00120924CF
:102503009A3F00120924A63F001209243D410012FC
:102513000924564100120924DB4100120924EE412B
:10252300001209240D4200120924B14200120924A9
:10253300324400120924E545001209247B460012A7
:1025430009247E4600120924EE46001209240C4792
:1025530000120924A34700120924EB47001209249F
:10256300EE4700120924B44800120924214900123D
:102573000924474900120924D24900120924F049C9
:1025830000120924364A00120924EA4A00120924D7
:10259300344B00120924634B00120924C04B001270
:1025A3000924F54B00120924214C001209242F4C55
:1025B300001209247C4C00120924EC4C001209245B
:1025C300354D00120924814D00120924AD4D00122E
:1025D3000924B84D00120924D64D00120924C14E16
:1025E30000120924CB4E001209240C4F00120924B7
:1025F300604F00120924744F00120924A3500012E3
:102603000924B850001209244651001209248B51A1
:10261300001209241752001209242252001209241D
:102623006453001209247F5300120924CB53001270
:1026330009243A54001209247354001209248D54B6
:1026430000120924ED54001209248C5500120924A8
:10265300D75500120924A75800120924595900120A
:102663000924C65900120924065C001209241E5CC1
:1026730000120924215C001209242D5C0012092494
:10268300415C00120924495C001209247C5C00129D
:1026930009247F5D001209240C5E001209247C5E6C
:1026A30000120924FE5E00120924BF5F00120924F0
:1026B300DE5F001209247F6000120924DC6000122F
:1026C3000924DF6000120924536100120924A26265
:1026D30000120924A8630012092433640012092498
:1026E3004E6500120924166600120924476600127B
:1026F30009246A6600120924736600120924A2667B
:1027030000120924326700120924E8670012092421
:102713005D68001209240469001209247969001212
:102723000924B06900120924EE69001209241787ED
:1027330006120924AC86061209249186061209247E
:10274300E18506120924E784061209240D84061282
:1027530009246381061209247580061209240A805C
:1027630006120924D2BC05120924C5BC051209248A
:10277300BBBC0512092446BC0512092404BC05127E
:1027830009242FBB0512092400BB05120924B7BA7B
:10279300051209241FB805120924DDB50512092401
:1027A300AAB5051209243CB505120924FCB4051287
:1027B3000924E9B405120924DDB405120924AAB4D5
:1027C300051209243AB20512092437B20512092465
:1027D30020DE0512092419B20512092404DE0512AC
:1027E3000924E0DB05120924B2DB051209247FDB8F
:1027F3000512092403DB051209244B8A0612092456
:10280300EAB10512092414B00512092462AF0512B6
:102813000924178A061209248BAE05120924D0ACA9
:102823000512092434AB05120924A7AA05120924A9
:1028330063AA05120924C08906120924CAA905122C
:102843000924C3B80612092477FE0512092422FEBF
:1028530005120924F5FD05120924C2FD05120924F8
:102863009AFD051209243BFD051209241BFD0512DF
:102873000924E6FC05120924AAF9051209247FF7A5
:10288300051209246FF505120924ECF40512092435
:10289300A0F40512092454F40512092462880612CF
:1028A3000924AEF305120924B5FC0200000080FBE5
:1028B3008F000100721B87000100221835000400FD
:1028C300361B250002003A1B260002003C1B270092
:1028D30002003E1B28000100481B29000100491B80
:1028E30084000400FA1786000100941A2A000100EC
:1028F3004A1B2B0001004B1B2C000100511B2D0018
:10290300080008182E000100521B2F000100531B62
:1029130030000100541B31000100551B320001003F
:10292300101833000100111834000100561B360043
:102933000100121838000100571B39000100501B19
:10294300830002006F1B630001001D186400010077
:102953004C1B650001004D1B6D0001001E1871002A
:1029630008000018660001006E1B430001005F1B96
:1029730044000200601B45000100621B4600020088
:10298300631B47000800151848000100651B4B0036
:102993000100661B04000100711BA1000100751BEF
:1029A30037000100741B88000100731B3C00010009
:1029B30013183D000100581B49000200671B670004
:1029C30001001F184D000200691B4E0001006B1B24
:1029D3004F0002006C1B3E0001005E1B5100010012
:1029E3005A1B520001005B1B530001005D1B540086
:1029F3000100141800000000000000013636010138
:102A030000010201000103010001040106060502A1
:102A13000000070100340801000F090401010D0142
:102A230000FF0E08000017020000190100FF1A0141
:102A330000011B0100FE1C0100081D0200001F0114
:102A4300000120010001210200002301000F2402E4
:102A530000002601000127010008280200FF2A01C7
:102A630000072B0102402C0100002D0100012E0163
:102A730000012F0100FF30010B1D310800003A0156
:102A830000083B01000F3C0100013D0100FF3E0433
:102A9300000042040000460400004A0400004E0403
:102AA300000052040000560400005A040000010311
:102AB3007103010301030103010301032203020361
:102AC30001031003000300030003000300030003DA
:102AD300000342030003240306030003000304036B
:102AE3001203250323032503230304030403000321
:102AF30000030003440300030003230300036503EF
:102B030021003503810300030503000300030003D1
:102B13000003250323030302710230016002110243
:102B230070020102020202028002100261023A00F4
:102B33004100630273027202620243020002130243
:102B43003800000200020402120200020002000226
:102B5300000204020402370037003C024402000270
:102B63003900000200026502000235028102000200
:102B7300050282028302000203047104020460045A
:102B83001104700402040204010402041004610429
:102B93000004140463047304720462044304000411
:102BA30013040604000400040404120400040004D3
:102BB30000040004510464000004000400044404FD
:102BC30000040004000400046504000435048104C7
:102BD3006400050400048304000403007100300151
:102BE30060001100700031022003500480001000C7
:102BF3006100000014006300730072006200430070
:102C03000000130006000000000004001200000092
:102C130000000000000004000400370037003C02FD
:102C230044000000000000000000650000003500C3
:102C33008100000005000000830000000101710114
:102C430001010101110101013101010101018001B2
:102C5300100161013B001400630173017201620101
:102C630043010001130106013D0135000401120176
:102C730000010001000100010401040133013301DB
:102C83003C014401320136000001000165010001ED
:102C9300350081010001050182018301000121004A
:102CA30010002081A41A210011004381000021009B
:102CB30012002083A51A210013002083A61A2100E5
:102CC30014002083A71A2100150043813B0421002F
:102CD30016001A81A81A210017001A81AB1A2100C5
:102CE300200018833D0421002100F183AE1A210046
:102CF3002200F183BE1A2100FDFF2181CE1A360086
:102D03000100060000000F000000000000000000AA
:102D13000000000003FFFF00000403FFFF0000FFAB
:102D2300FF0FF4010005C4040320000100000B00A1
:102D33000000000000000003010F0000000000007D
:102D43000000000000000000000000000000000080
:102D53000000000000000000000000009214CE14E8
:102D63009814BA139E14D4149E14E014A414BA1322
:102D73009E14D414000000000000000000000000B6
:102D83000000000000000000AA14BA13B014E614F7
:102D9300B614BA1300000000000000000000000099
:102DA300BC14F814C214BA13BC14F814C214BA1322
:102DB300B014E614C814BA131300D4171F00DA179B
:102DC3001F80E01700005E1801005E1802008017E4
:102DD30002807A170300861704008C170480921769
:102DE300050098170600A4173100B6173300BC1767
:102DF3003400C2173600C817FFFF00000A000000A6
:102E030002000000040000000800000010000000A1
:102E130020000000400000008000000000010000CE
:102E23000002000000040000000800000010000081
:102E33000020000000400000000000002001308B53
:102E4300000003002001338B000004004201A98924
:102E5300000005004201A188000007003001318B0A
:102E63000000FDFF2101248B01CE2006FE2008F87F
:102E7300200B0A2110501D02D42005EC2007DA2074
:102E83000CB6200DC22064641BFF000007ECFDFD9F
:102E9300FDECDCDCCCBCACAC9C9C8C7C7C6C6C5CBE
:102EA3005C5C4C4C3C3C2C2C1C1C03EAF5E5D5D556
:102EB300C5B5A5959585857575656555554545359F
:102EC30035252515150500160F00000B150B0200FF
:102ED30002220F3300000E0F00000000000000006C
:102EE30000000000000000005A6967426565416CFC
:102EF3006C69616E63653039C0C1C2C3C4C5C6C7DE
:102F0300C8C9CACBCCCDCECF303016181920231A5E
:102F13001C1E30303017181921301B1D1F300001C3
:102F2300191618161618230300003C40423A3F3F77
:102F3300392F473000034D4C4651181A2505020C12
:102F43000E020B040B0A0708000F02040201010121
:102F530001090200BE040AE80300000E00E80300B2
:102F6300000C0028007F0000000304040400050394
:102F73000A0C1006081E080C28FF10000209033C67
:102F83000C050815091EE4F0A3F0A3F0A322122FE9
:102F930089F0229019861245951224A622122FA495
:102FA30022E0F508E4F509F50AF50B22E824FBF520
:102FB30082E934FFF58322E82411F582E439F583AD
:102FC300E022F583122FCB22E0F508A3E0F50922D6
:102FD30012271C740412096F7F080206BD7401F0E6
:102FE3009005A9E0640F22740912096F7F04020699
:102FF300BDEA2413FAE43FFB12264AE922790512BB
:103003002656740622A3A3E024F5C39413221227A1
:10301300289005C91265497A147B0022C082C083B7
:10302300901965749AF0A37424F0A374ACF0A3749C
:1030330024F09019697482F0A37424F0A3747CF0D3
:10304300A37424F0A374B8F0A37424F0A374BEF0A3
:10305300A37424F0A374B2F0A37424F0A3746AF0ED
:10306300A37424F0901975748EF0A37424F0A374E0
:1030730094F0A37424F0A37488F0A37424F0A374CD
:10308300C4F0A37424F0901986124F5A6009901962
:10309300861245911212529019831248AB7408128A
:1030A3005BF6A3F0901A2FF0901988F07C0BFDF9D2
:1030B3007A897B191211987C0B7D0079007A947BB5
:1030C3001912119802470574F71204A674F7120A2D
:1030D30007EAFEEBFF12315D74051249C97403F070
:1030E3001232741249AB2430FCE43FFD8C8212315E
:1030F30055123169600812398274FFF0A3F0EE248F
:103103002EE43F1C1CFD8C82F583A3E0C0E08A8281
:103113008B8312465DD0E012316988828983124E17
:10312300982403F0EE12398C120C457403F09005C9
:10313300BE12078C74021209E712355612096FE9A1
:10314300F5087007EEFAEFFB122536A90874090299
:10315300399BF583E08882898322EA123162221245
:10316300509D3FF58322125E761249B7E8F0A3E93A
:1031730012614DE02274F01204A6EAFEEBFF8C0C00
:103183008D0D890B123274F5831249BF7410120C22
:1031930045E0F508A3123157F0E824FFF582E91260
:1031A3003568E508F0E824FEF582E9123568E50B99
:1031B300F09005C3E0C0E0E824FDF582E91235682C
:1031C300D0E0F09005C2E0C0E0E824FCF582E9120B
:1031D3003568D0E0F07412120C45122FC7122FAFCE
:1031E300E509F0E824FAF8E934FFF98882F583E584
:1031F30008F0EE2404FCE43FFD88088A828B83E018
:10320300F50E8C828D83E0250EC39508125E76122F
:1032130047E5850C82850D83A3A3A3A3A3A3A3A33F
:10322300E064037009EE124999F0A3E480031235B8
:103233006D1235757409F0750889750919750A00D9
:10324300780812095812594012096F7508FF750959
:10325300FF780812095CAC0CAD0D12355612096FDC
:10326300E9F5087007EEFAEFFB122536A908022FDD
:10327300DBEA2402FAE43FFB8A8222C082C0839005
:1032830019A5E0C39408400474078001E08A828B87
:1032930083F033333354F8F902470574F01204A66C
:1032A3008A088B09890A8C0E8D0F750C00A2AFE476
:1032B30033F50BC2AF90199F80451233A0503D12D6
:1032C30033BA64037036E50824F9F508E50934FFD9
:1032D300F5098E828F83A3A3E02405FCA3E03400C9
:1032E300FDAA08AB0912133CE50824FFF508E5091C
:1032F30034FFF5097410250CF50C150A12378F12DB
:1033030068FEE50A6004EE4F70B0E50BA2E092AFF1
:10331300A2AFE433F50BC2AF90199F803E124E71FA
:103323008882F5831240E5850882850983F08A82C5
:1033330089831233B1A3A3E0C0E0E50824FFF5823B
:10334300E509123568D0E0F0E50824FEF508E50943
:1033530034FFF509050C150A12378F1235E3602186
:103363001233BA640270F11233A0EE40B0124AE095
:10337300A2E550E4850E82850F837401F0E50A709F
:10338300D7E50BA2E092AF850882850983E50CF0AF
:10339300E50824FFFAE50934FFFB022FDB1233A60D
:1033A300A2E622EE2411F582E43FF583E0221233F4
:1033B300B522124EB6A3228E828F83A3A312466137
:1033C3001255832274F01204A674F3120A077403CD
:1033D300120C45E9F07402120C45EAF08B0B8518C8
:1033E30082851983E4F0041209DF12244CE9F89072
:1033F30005A8E0292437F508FA7B001211B68A0CD8
:103403008B0DAE0CAF0DEA4F700302354DEA24026B
:10341300F50EE43FF50FA808EA28F8E43BF9850E1A
:1034230082850F83123EE19005A8E0F9FAC3E49A7E
:10343300FA95E0FB850E82850F83E02AF50CA3E065
:103443003BF50D9005A6122FC7750A0078081209DF
:1034530058E9FC7D00AA0CAB0D12491B12096FAC95
:1034630018AD197401120C45E0F9E50C24FFFAE5D7
:103473000D34FFFB1224528A828B83E4F0E50BC4E4
:1034830054F0F9901A30E0C4333354C0F89005A2D5
:10349300E0A2E0E43313134849440FC0E0EA24FFF9
:1034A300F582EB123568D0E0F0EA24FEF50CEB343C
:1034B300FFF50D7403120C45E0F87402120C45E09D
:1034C300C454F048850C82850D83F0A80C850E82C8
:1034D300850F83125BC32AC3988E828F83A3A3A312
:1034E300A3F0850E82850F83E8F0A3E50DF0123576
:1034F3006D123575E4F0740C120C45E4F075089404
:10350300750919780812095812594012096F85185C
:1035130082851983E06009EE240E124AE24408F022
:10352300122638E9F9E4F508F509780812095C74FC
:10353300061209E712355812096FE97006EEFAEF21
:10354300FB800BEEFAEFFB1211BC7A007B00740DCB
:10355300022FD87903EEFAEFFB122650740222EE03
:1035630024FFF582EF34FFF58322EE123162E4F09B
:10357300A322F012357A22EE1258633FF5832274A8
:10358300F21204A68A0C8B0DA2AFE433F50AC2AF84
:1035930075080075090090199F802C12379F5024DD
:1035A300850C82850D83A3A31259538E828F83A327
:1035B300A312459112263EE9600A12379AC2E6F039
:1035C3008E088F0912378F1235E370CFE50845094E
:1035D300600612367CD2E6F0E50AA2E092AF800DD7
:1035E300E0FEA3E0FFEE4F22740212096F7F060292
:1035F30006BD74F01204A68A0E8B0F8C0C8D0D750C
:103603000A00A2AFE433F50BC2AF7E007F0090192E
:103613009F8010AE08AF09123674124AE0D2E7F069
:1036230012456F124583603412367CA2E750F18550
:103633000882850983A3A312078CAC0CAD0DAA0ED7
:10364300AB0F122644740212096FE960D3EE4F6088
:10365300C2123A16700612368ED2E4F0E50BA2E0DF
:1036630092AFEE4F6006122530750A01A90A022FA8
:10367300DB1233A6D2E4F0EE22E50812587D3509B9
:10368300F583E022AA82AB8312133C8E828F83A33D
:10369300A3124661E02274F21204A674FE120A0712
:1036A300750C00750D00851882851983E4F0A3F06D
:1036B300A2AF33F50AC2AF90199F1268FE802BEEBA
:1036C30024FBF582EF34FF122FC5780C12095C122C
:1036D300377D12096FEEFCEFFDAA18AB191211DA50
:1036E300AE08AF099019A5E014F0EE4F602B123726
:1036F3009F501DEE240BF8E43FF98882F583E02404
:10370300FFF0A3E034FFF088828983124F5A60AF41
:103713008E0C8F0D12378F80A1E50AA2E092AF9035
:1037230019A5E0602C9005A9E0640F6006901A2F9C
:10373300E0701E7A7D7B19122728908B1D12078853
:103743007A7D7B1912478D12096F800574F012463A
:103753006EAA18AB191211E08A088B09AE08AF09DB
:10376300EA4F601312245E12379AA2E28E828F838D
:10377300A350D974E980D70235EBEEFCEFFD7A9FB5
:103783007B191211EC7402228E0A8F0BEE24FBF5C7
:1037930082EF34FFF58322EE1233A7221233A6A25F
:1037A300E72274F71204A6EAFEEBFF12245E124628
:1037B3005A12061EE964019005C5700AE02401F857
:1037C300A3E0340080031245E0F9124CE21247E50E
:1037D3009019A5E0701F9005A9E0640F70177A7D1A
:1037E3007B19122728908B1D1207887A7D7B19126B
:1037F300478D12096FA8A8C2AF9019A5E004F0E89D
:10380300A2E78004E508A2E092AF024BF074F7123E
:1038130004A6EAFEEBFFEA123846F012245EEEFC41
:10382300EFFD7A9F7B191211E6A8A8C2AF9019A5E4
:103833001241349005A9E0640F700579081225F050
:10384300024BF01233A7C2E42274F71204A674EAFF
:10385300120A07EAFEEBFF9005A2E0602A851882B0
:103863008519837401F0120C45E4123901120C45D9
:10387300123687C0E0740A120C45D0E0125BE37481
:103883000B120C45124E4D741602399B74F7120439
:10389300A6EAFEEBFF122440E9F974DC69601E74AA
:1038A300DD69601974E469601474F369600F74DE90
:1038B30069600A74DF69600574DB697007EEFAEF0B
:1038C300FB1225F6024BF074F71204A674EB120AEE
:1038D30007EAFEEBFF851882851983740612390106
:1038E300120C45AA82AB8312133CEE2408FCE43F7E
:1038F300FD740A120C45124E4D741502399BF0EA01
:103903002413FCE43FFD74022274F71204A674F737
:10391300120A07EAFEEBFFEA2430124AE2605DEA8C
:1039230012398C120C457403F09005BE12078C12E9
:10393300398212078C9005D1E0F974041209E7EE7D
:10394300FAEFFB122446740412096FE9F974DC6977
:10395300602374DD69601E74E469601974F369603F
:103963001474DE69600F74DF69600A74E8696005C6
:1039730074DB697007EEFAEFFB1225F6023150EEA5
:10398300242EF582E43FF58322125D54AA18AB1965
:1039930012133C740822740312096F024BF074F281
:1039A3001204A68A0C8B0D750A00750B007508E7C7
:1039B300A2AFE433F509C2AF90199F800312378B8E
:1039C3001235E3602512379F50F3123A1670EEEE6C
:1039D3002432123BADE06870E4780A12095C1237B6
:1039E3007D12096F9019A5E014F0E509A2E092AFEA
:1039F300EE4F6013EEFAEFFB12245E79F0EEFAEF6E
:103A0300FB1225F6750800A908AA0CAB0D1225F6C2
:103A13000235F012357AE064012274F41204A674BC
:103A2300F7120A07EAFEEBFF8A82F583A3E064F349
:103A33007003023ABB8A828B83A3E064DF60798AD6
:103A4300828B83A3E064E8606F8A828B83A3E06444
:103A5300DB60651224A0E9F5087055EE240E124AC6
:103A6300E2604D123AC560487408120C45123AD40C
:103A730012078C7508FF7509FF780812095C8E829E
:103A83008F83A3A3A3A3A3A3A3A3E0F9740412099D
:103A9300E7122446740412096FE9F50874F36960A8
:103AA3000F74DF69600A74E869600574DB69700F7D
:103AB3008E828F83A3E508F0EEFAEFFB1224AC02AB
:103AC3002FEAEE240FFAE43FFB79091224E2EA4BD2
:103AD30022740212534974FFF0A3123AE122124EE8
:103AE300A1A3A32274F11204A6EAFEEBFF7508005A
:103AF3008A82F583A3A3A3A3A3A31230084003756B
:103B030008E88A828B83A3A3A3A3A3A3A3A3A3A34A
:103B1300E0C3941040057508E880138A828B83A361
:103B2300A3A3A3A3A3A3A3A3A3E0640F600B901A6F
:103B33000CE0540870037508E8EA240B123BADA3AC
:103B4300A3A3A3A3A3A3A3E0C398500DEA240B123A
:103B53004AE2640F60037508E89005C2E0F470035D
:103B6300A3E0F470037508EC7A237B0012124C8BEC
:103B73000BA90B901986123BBC60278E828F83A3FF
:103B8300A3A982AA83890C8A0D750E00780C1209E9
:103B9300587C237D00901986E0FA12491B12096FA5
:103BA300800375081AA90802593BF582E43FF5839F
:103BB300E0F88A828B83A3A322EAF0A3EBF0EA491D
:103BC3002274F51204A6EAFEEBFF8A82F583A3A30F
:103BD300A3A3A3A3A3A3E09005A9123C54E09005DB
:103BE300C4F0EA240B124AE29005A4123C54A3E069
:103BF300901A30F0F9120FD6901A30E0600BEE24D1
:103C030004124AD42406123C4A901A2F122FE06061
:103C13000474018002740090198812628E1209588C
:103C23007C0B7D007A897B1912491B12096FEE24E4
:103C330018F508E43FF50978081209587C0B7D0054
:103C43007A947B19024908FAE43FFB79E1120FBE2B
:103C530022126278A3A3A3A32274F71204A6EAFE96
:103C6300EBFF8A82F583A3E07003122F96125DFFA8
:103C7300024BF074F71204A6EAFEEBFF90198612CA
:103C83004F5A6010901986124591901986E4F0A35B
:103C9300F01212528E828F837408124675121A3EE6
:103CA300024BF074F61204A6901A2FE060109019DC
:103CB30088E0700A123CC4EA4B6003122536025EA8
:103CC300F99005A4E0FB9005C4E0FA9005A9E0F99A
:103CD3001224582274F41204A674E7120A07EAFEA7
:103CE300EBFF750B018A82F583A3A3A3A3A3A3A36D
:103CF300E0A2E25069EA242BF582E43F125951EA2B
:103D03002413FAE43FFB122464E97052908A5FE0C3
:103D130064017005750B008045123D961209587CAD
:103D23000B7D0074111209DF12491B12096F122651
:103D330038E9FA740E1209D7880889097808120934
:103D43005C750830750900780812095CEE125BACEB
:103D530012078C125D46790112300212096F851821
:103D6300828519837410F0125D467402120C45AA01
:103D730082AB83121330EE242B12653F740B120CAB
:103D8300451247E5740D120C45E50B125FB8741923
:103D9300022FECEE240812629622C082C083901A8E
:103DA30030E060031226AA024705C082C083901A3E
:103DB300277465F0A37419F0A37469F0A37419F060
:103DC300A37475F0A37419F0901B8C747BF0A37427
:103DD3002BF0901A11743AF0A37424F09019AA747A
:103DE30070F0A37424F09019AC7476F0A37424F0EB
:103DF300901A0CE04402024209C082C083EAFCEB41
:103E0300FD7903024F06C082C0837908026079C03E
:103E130082C08374FE120A079019B2741EF0A37451
:103E230025F09019B47418F0A37425F080077A9FD5
:103E33007B19123E6E90199F124F5A70F19019A17F
:103E4300124F5A60097AA17B19123E6E80EF9019C6
:103E53009FE4F0A3F09019A5F0A3F0A3F09019C08C
:103E6300745AF0A37425F07402801C1211E08518B3
:103E730082851983EAF0A3EB123E8212262622F0F2
:103E8300AA18AB1922741112096F02470574F612AE
:103E930004A6E9FF742C29F582E4342FF583E49317
:103EA300FEFA7B001211B6EA4B6007EA2E123EDEE1
:103EB30080267A027B001211B6EA4B601774162F24
:103EC300F582E4342FF583E4938A828B83F0A37421
:103ED3001A1242A77A007B00025EF91247D4E81255
:103EE3005E73A3A3A3A3E4F022E9FC740629F8EA12
:103EF300A2E0501EE875F00A84E5F0F96014740A34
:103F030028C399F8E9C394054004740A28F8740B8C
:103F130028F8ECC394134004791480027906E82945
:103F230079002409F85001097A0A7B00120356E844
:103F3300F9020921C082C083901A0CE05402600A7E
:103F4300121A44E96004790180027900024705C02E
:103F530082C083901A0CE0540260149019A5E0709B
:103F63000A124F576009123F775004790180027992
:103F730000024705122FBAA2E722C082C083908AAB
:103F83005CE0F89019A7E0C39850051211B68004BD
:103F93007A007B00024705C082C08312262679007F
:103FA300024705C082C08374FE120A078518828502
:103FB3001983EAF0A3EB124110A3A3A3A3A3E06028
:103FC3000A14605724FE605A0240809005A9E064F9
:103FD3000F60121225FCE9700C12458B9019AE127A
:103FE300465D12061E9005D1E0C0E0851882851952
:103FF30083124E84D0E01241107414125897FCA31C
:10400300E0FD7AA17B191211DAA8A8C2AF9019A713
:1040130012413479201225F0023E6A1243DE7415F0
:1040230080D91243DEA3A3A3A3E060511243DE129F
:104033003692C0E0851882851983E02406F582E470
:104043003BF583D0E01258972402F8A3E03400F93B
:104053008882F583E02401FAA3E03400FB88828997
:1040630083EAF0A3EB12589712441E851882851930
:104073008360131240E560051240F74048AA18AB6D
:104083001912262680921240E560F21240F7502161
:10409300124104FA851882851983A3E0C824061205
:1040A30043DAF8744C12508F342FF583E4936A602B
:1040B300148518828519831240E5640870BF124184
:1040C30004640870B812410414124118240AC0E0B1
:1040D30085188285198312465DD0E01241180402C7
:1040E3003FFE1240E9221245E0C82406F582E43877
:1040F300F583E0228518828519831240E9C3940A67
:10410300228518828519831233B5A3E02212412236
:10411300F583888222124122C8240612440822F021
:104123008518828519831245E022A8A8C2AF901989
:10413300A6E004F0E8A2E792AF22C082C083901900
:10414300B6124F5A60081243E512061E8002790028
:1041530002470574F71204A6EAFEEBFFEA12357B69
:104163007401124793F8A3E0F912315D1247E5EAAF
:104173002435124AE2C0E0EA2413F582E43FF583D2
:10418300D0E0F0EA2436124AE2C0E0EA2414F582D1
:10419300E43FF583D0E0F0EA2438124AE2C0E0EAD3
:1041A3002418F582E43FF583D0E0F0EA242FF5826A
:1041B300E43FF58312078C125D53EA2431124AE27D
:1041C300F912355C12096FE9F5087007EEFAEFFB97
:1041D300122536A908024BF0C082C0831225FCE9E0
:1041E3006004792080027901024705C082C083EA16
:1041F30024111241FFD2E0800DEA240DF582E43B45
:10420300F583E022F0A3F0024705C082C083124188
:10421300FC640170111242A1400C8A828B83A3E0DB
:10422300F91225F68066124292A2E650128A828B18
:1042330083A3E0F99019B012465D12061E804D1259
:1042430041FC6401700D1242A150088A828B837471
:104253003080368A828B83A3E0641B8A828B8370CF
:104263000474228024A3E0700D1241FCF8740B1235
:10427300508F342F800B1241FCF8741612508F3478
:104283002FF583E4938A828B831242A70247051298
:10429300429622EA2410F582E43BF583E02212429F
:1042A30096A2E322F0901A07E0F91211C22274F7E2
:1042B3001204A6E9FE124F5770030243D7EE6014AF
:1042C300741B6E701AE812586339F583E064057045
:1042D300030243AF9019A91243E5A3E40243B67462
:1042E300E96E7068E82412F582E439F583E0700B17
:1042F300121A4AE96005124428606179EE120F40F0
:104303009019A81243FF9019A8603A12442B9019F0
:10431300A8700B1243FF14F01210F60243D7124495
:104323001DC2E71245C6240D1243DA640370091255
:1043330043F812457CD2E2F079ED120F401244109B
:1043430012061E80781243EB74E9806774E16E7085
:104353003E121A4AE9605512442870509005CBE08A
:10436300C0E01243F82412F582E438F583D0E0F07C
:104373009005BAE0C0E09019A81243F41243F4D0B8
:10438300E0F09005BAE004F079011210DE80457484
:104393001C6E70189019A81245919019B812465DB9
:1043A30012061E9019A8E4F0A3F080289019A81211
:1043B30043EBEEF09019A81245911225241245A75C
:1043C300E0548060031260689019A8E4F0A3F079C8
:1043D300101225F0024BF012440822851882851929
:1043E30083A3E0F5838882221243EF22124665A35A
:1043F30022124EB2229019A8124E9322124E9324E7
:104403001212440822F582E438F583E0229019A8B9
:104413001245959019AC12466122E0F8A3E0C82436
:1044230010124408229019A81245AEE054042274D5
:10443300F41204A6750A00750B00A2AFE433FEC2A2
:10444300AF124F57600302452512465A12061EE962
:104453004410F890199F800985080A85090B1245B5
:104463006F124583700302452512367C586870E845
:10447300780A12095CAC08AD0912378112096F90F2
:1044830019A8E508F0A3E5091245C612457CA2E781
:10449300500302452C9019A6E014F0EEA2E092AF6F
:1044A3009019A8E0240EF8A3E03400F9E8FEE9FF30
:1044B3008882F5831245919019A812410AF91224B2
:1044C300E8E99019A3125BF68E828F83E054806033
:1044D300181243F824131243DAF9120FFA1243F8AD
:1044E30024141243DAF9120FEE1245A7A3E0540184
:1044F300605F9019A3124F5A60451245BD60401288
:1045030045BDF879009019A312459112035EE8C0E6
:10451300E012459BD0E01245CBC3941340117402C3
:10452300800FEEA2E092AF80379019A502449B74EE
:1045330000C0E09019A9E0C8124566D0E0800D12D2
:10454300459B74011245C61245667401F0790380D8
:104553000C9019A812441DA2E1B3E433F91210DE42
:10456300022FEF241AF582E438F58322E50824FBB1
:10457300F582E50934FFF5832212587D12440B229C
:10458300122FCBE508450922851882851983124528
:104593009522E0FAA3E0FB22124E902419F582E45F
:1045A30038F583229019A81245AE221245E0C812AD
:1045B30045B62212509D38F58322124E90241812CC
:1045C3004408221245D8C8221245D8F5838882A30D
:1045D300A3A3A3E022F09019A81245E022E0F8A3D8
:1045E300E02274F71204A6EAFEEBFF122620124A19
:1045F300DFA2E3400A123A167005908A5A800390AC
:104603008A5BE0F9EEFCEFFD7A9F7B191211F2E968
:104613006038EEFAEFFB9019B212465D12061EEEF9
:10462300240E124AE25404701212412DEE12315E2E
:10463300A3E05401701E1225308019EEFAEFFB90AF
:1046430019AA12465D12061E800A8E828F83A374F6
:10465300F112466E024BF09019B4124661221246D3
:104663006522E0F8A3E0F5838882221246751225BD
:104673002422F0EEFAEFFB220246FE74F71204A6A0
:10468300EAFEEBFF7900901A0CE05402700CEA2466
:1046930033124AE25404600279E8901A0CE0546041
:1046A300700CEA2433124AE25402600279E88A82E7
:1046B3008B83A3A3A3A3E0F8908A60E0C39850027E
:1046C30079E8EA2431124AE2700CEA242E124AE213
:1046D300700479F5800BE97005122512E9F9E96098
:1046E30007EEFAEFFB1225F6024BF0C082C0838A75
:1046F300828B83740DF0121A3E8007C082C083122E
:104703002530D083D08202092174F41204A6EAFE74
:10471300EBFF8A82F583E4F0A31247935404908A53
:104723005A7012E0F89019A6E0C398401279F1127A
:1047330025F6022FEFE0F89019A5E0C39850EE128A
:104743004799A3E054016037EA2437124AE2C3943D
:10475300054033EA2433124AE2540570297ABA7BBE
:1047630019122728EE2437F582E43FF583122FA090
:1047730078081209547ABA7B1912478D12096FEE21
:10478300FA12518080AC79E880A512271C740422A8
:10479300F0124799E022EA2433F582E43FF58322BD
:1047A30074F61204A6E9FE2451FAE43400FB121154
:1047B300B6EA4B6015EE8A828B83A3A3A3A3F0EA28
:1047C30024511247D41247E580047A007B00025E2D
:1047D300F9F8E43BF98A828B83A3A32212654990FB
:1047E3001A84E8F0A3E9F0220246FEC082C0839057
:1047F30019C37484F0A37425F0A374B4F0A37425CF
:10480300F0A3748AF0A37425F0A37490F0A3742525
:10481300F0A374AEF0A37425F0A374A2F0A37425DF
:10482300F0A3749CF0A37425F0A374BAF0A37425C9
:10483300F0A374C0F0A37425F0A374C6F0A3742589
:10484300F0A374D2F0A37425F0A37496F0A3742597
:10485300F0A3747EF0A37425F0A37478F0A37425F9
:10486300F09019DF74A8F0A37425F0A374CCF0A31F
:104873007425F0A374E0F0A37426F0A374D8F0A316
:104883007425F0A374DEF0A37425F0901A03E4F00A
:10489300901A06F09019EF1248AB7402F09019F8D1
:1048A3001248AB740102420974F0F0A37425F0A31B
:1048B3002274F51204A674F1120A07851882851969
:1048C300837402F07401120C45E9F060047AFF7BF3
:1048D300FF7402120C4512533E7508FB75091975D6
:1048E3000A0078081209587C0B7D007407120C45E6
:1048F300AA82AB8312491B12096FAA18AB19121AA9
:104903003E740F800312491B12096F7F030206BD19
:104913007C0B7D007AFB7B1912118674032274F7DA
:104923001204A674FD120A07851882851983740A76
:10493300F07401120C45E9F07402120C45EA125F9F
:10494300B802399974F61204A674F7120A07EAFE3C
:10495300EBFFEA1249991249C97402F0EA2428FCD0
:10496300E43FFDAA18AB19121330EE243112499F0C
:1049730024331259B712095C74021209E779831AB6
:104983001A12355A12096FE9F5087007EEFAEFFBB0
:10499300122536025EF2123162740122F582E43F7F
:1049A300F583122FCB124E69F5831249B7E8F0A3B2
:1049B300E9F0EE221249BF8A828B8322E024FFF8BA
:1049C300A3E034FFF922F0A3E4F0EA12357B22746A
:1049D300F01204A6126427120BEE7808790C120366
:1049E300B778081209547AF27B19022FD374F412A0
:1049F30004A674C6120A079005A9E0640F600D852A
:104A03001882851983742E12535D80227AE97B19EB
:104A130012301112035E88088909E4F50AF50B7850
:104A2300081209547AE97B1912478D12096F743AF7
:104A3300022FEC74F51204A6EAFEEBFF8A82F583DB
:104A4300A3E0F87078EA2430124AE264026007E0D7
:104A53006403600278E8EA2426F582E43FF58312D2
:104A6300300A400478E88058E87052EA2426123C61
:104A73004AEE2431124AD42430124AE26402700E00
:104A8300EE242812653F9005B81247E5801790057C
:104A9300B874FEF0A304F0EE2428FCE43FFD7AAFE3
:104AA3007B0512133CEE241B123D9912095812493F
:104AB3001312096FEEFAEFFB122572E9F8E8600EA4
:104AC300E88E828F83A3125D5B7417125E05024921
:104AD3000EFAE43FFB7950120FBEEE22EE2410F5DE
:104AE30082E43FF583E02274F61204A674F7120AF7
:104AF30007901A06E070377401F0F91210A8AA188B
:104B0300AB191226327508FB750919780812095C6E
:104B1300750801750900780812095C9005BE120733
:104B23008C74061209E77A0312300012096F025ED1
:104B3300F474F71204A6124D107004A374EBF090F2
:104B43001A06E0A2E25003C2E2F0E0A2E15005122D
:104B53004D2180098E828F83742A125E05024BF0E9
:104B630074F41204A674FE120A07124C16124E5C59
:104B7300EC851882851983124EABE0F50B7015AAEC
:104B830018AB197953120FBEEE2413FAE43FFB79E5
:104B93004A120FBE123D9612095812491312096F99
:104BA30012458BA90B122566901A06E0A2E1500369
:104BB300124D28901A06E4F07402022FEC74F712D7
:104BC30004A6EAFEEBFF8A82F583A374EBF0901A46
:104BD30006E0A2E150077A0079EB12256CEEFAEFBA
:104BE300FB1225A28007EEFAEFFB12269E7F01023D
:104BF30006BD74F71204A6124C16901A03E4F09043
:104C03001A06F07AFF7BFF8E828F83A3E0F91225C9
:104C13006680DA124D617AF27B191227282274F723
:104C23001204A6EAFEEBFF12259C80BA74F7120465
:104C3300A6124D9EA3A3A3E060047400800274EB4C
:104C4300124C6F5003C2E2F0E0A2E15005124D7224
:104C53008011A2E0500D8E828F83742AF0A374EB2F
:104C6300125E05EEFAEFFB12254880818E828F8358
:104C7300A3F0901A06E0A2E22274F61204A6EAFE5A
:104C8300EBFF901A06E0D2E1F079011210A88E82B0
:104C93008F83A3E07038122638E9FAEE240DF50865
:104CA300E43FF509780812095C7508017509007875
:104CB3000812095C124CE212078CEE2402FCE43F5A
:104CC300FD12300012096FE98E828F83A3F08E826A
:104CD3008F83A3E060067A00F912256C025EF9EE79
:104CE300240BF582E43FF5832274F71204A6124DD8
:104CF300107004A374EBF0901A06E0A2E25003C212
:104D0300E2F0E0A2E15003124D21024BF0EAFEEB88
:104D1300FF79011210AE8E828F83E0642022C2E1FC
:104D2300F0124D28227A008E828F83A3E0F9122598
:104D33006C2274F71204A6124D618E828F83A3A393
:104D4300A3A3E060047400800274EB124C6F500361
:104D5300C2E2F0E0A2E15003124D72024C66EAFE99
:104D6300EBFF79011210AE7AE97B1912272822C2D0
:104D7300E1126289E0A2E4E433FA124D2A2274F7C5
:104D83001204A6124D9E74EB124C745003C2E2F04F
:104D9300E0A2E15003124D21024BF0EAFEEBFF7952
:104DA300011210AE8E828F83A32274F71204A6120F
:104DB3004DC3024BE974F71204A6124DC3024BF024
:104DC300EAFEEBFF7AE97B19122728EEFAEFFB12D2
:104DD30025C62274F71204A674EF120A07EAFEEB43
:104DE300FFEA125D477AAF7B0512132AE960568505
:104DF30018828519837409F07401120C4574EFF05D
:104E0300124E5C7402120C45EC124EABA3A3E0C02D
:104E1300E07404120C45D0E0124E98640870158EAD
:104E2300828F83A3A3124E84E0C0E07405120C4565
:104E3300D0E080067405120C45E4125BE37406129D
:104E43000C45124E4D741102399BAA82AB83122674
:104E530068AA18AB19121A3E22124E69F583124E34
:104E63007BFCA3E0F922EE124E71FB88822224021E
:104E7300F8E43FF9E8FAE9221245E08882F583E095
:104E830022124E932407F582E438F583229019A861
:104E93001245E0C822124E9C22124EA1E022F08E4F
:104EA300828F83A3A3A3A322125E73124EB2221294
:104EB3004EB622E0F8A3E0F5838882A3A322C08242
:104EC300C0831226AA024705C082C083901A2374A6
:104ED300C3F0A37419F0A374DFF0A37419F0901B4B
:104EE30086743FF0A3742CF0A37419F0A3742BF011
:104EF300901A0F7460F0A37425F0901A0CE044012B
:104F030002420912260E02470574F61204A674FE25
:104F1300120A07901A08124F5A60077A087B1A126E
:104F23002626901A0EE4F0900C62124F5A602080ED
:104F330007AA18AB19122626901A07E0F91211CE08
:104F43008B09A909851882851983123BBC70E27409
:104F530002025EF69019A8126549E8492274F71215
:104F630004A6E9FA7B00901A07E0F91211F8024B44
:104F7300F074F71204A674F0120A07EAFCEBFDE9D9
:104F8300FE8A828B83E0F8744212508F342FF583AC
:104F9300E493C0E07401120C45D0E0F0640B700D93
:104FA300E98A828B83A3F012268C02508AE0700375
:104FB30002508A640C600302507B741A6E700B7487
:104FC30004120C45E4F0A302507A7404120C451247
:104FD300533EEA2432125847C0E07403120C45D002
:104FE300E0126274120C167406120C45120C0A8C31
:104FF300828D83A3A3A3A3A3A3A3A3A31265457431
:105003000A120C45E8F0A3E9125094E05410600929
:10501300851882851983E48013EC2412125847F80B
:105023009005CBE0C398851882851983F0E0C0E032
:10503300740C120C45D0E0F0EC2415125847C0E074
:10504300740D120C45D0E0F0EC2416125847C0E062
:10505300740E120C45D0E0F0EC2417125847C0E050
:10506300740F120C45D0E0125094A3E05401600871
:105073007401120C457411F07402120C45EEF074B5
:10508300011209DF121A3E741002399B28F582E4DB
:1050930022F0EC12509D3DF58322240EF582E4228A
:1050A300C082C083901A0EE0640370047901800209
:1050B300790002470574F71204A6901A0EE0125104
:1050C30033748428F582741B39F5831255C5C2E7FE
:1050D300F012513AA3E493FE25E0FCE433FD74841B
:1050E3002CF582741B3D125951EC4D6005EE901A5C
:1050F3000EF08A828B83E025E0FCE433FDE82CF597
:1051030082E93DF583E493FCC4540F25E0F8741D54
:1051130012508F341AF583124F5A700512267A8073
:105123000CEC540F12513A12465D12061E024BF05C
:1051330025E0F8E433F92225E0FCE82CF582E43994
:10514300F5832274F21204A674FE120A07890B8AED
:10515300088B091251E51251D6601A125BF0F50A59
:1051630078081209581251F2240212594712096F92
:1051730012517E80031252040235EBAA0CEFFB900E
:105183001A07E0F91211C22274F01204A674FE1277
:105193000A07890B8A0E8B0F1251E5F5081251D6B7
:1051A3006027125BF0A808EA28123EDE850E088508
:1051B3000F09F50A78081209581251F212594512CB
:1051C300096F12517E79008005125204791A740214
:1051D300022FD8FA7B001211B68A0C8B0DAF0DEAA1
:1051E3004F22743729F582E4342FF583E49322A800
:1051F3000B742112508F342FF583E493FC7D00EA66
:1052030022851882851983E50BF0791AAA18AB1940
:105213001225F622C082C083E9901A07024209745C
:10522300F61204A674FE120A07EAFEEBFFEA542004
:1052330070308039A8A8C2AF9019A7E01412413684
:105243008A828B8312532B901A0A12533E12260220
:10525300851882851983E0641560077A0A7B1A1220
:1052630026267AA17B191211E0EA4B70C7EF54800E
:10527300700C8016901A0AEAF0A3EB125351901A9D
:1052830007E0F91211CEEA4B70EAEE5410600B8579
:105293001882851983742D12535DEEA2E0500B859D
:1052A3001882851983742412535DEE5402600B85B2
:1052B3001882851983742512535DEE5404600B859F
:1052C3001882851983742612535DEE5408600B858A
:1052D3001882851983742812535DEE5440600D744F
:1052E30001120C45125344742C12535DEE5480602A
:1052F3000D7401120C45125344742F12535D901A0E
:1053030008124F5A601BA8A8C2AF901A0812459101
:10531300901A08E4F0A3124136A3EAF0A3E912536A
:10532300517A007B00024F5212532F22E0851882DC
:10533300851983F022A3A3A3A3A3A3EAF0A3EBF00D
:1053430022E412534922F085188285198322F01230
:1053530026027A0A7B1A12262622123E821226027D
:1053630022C082C083901A0A125FB3687002EB698D
:105373007007901A0AE4F0A3F002470574F71204C9
:10538300A6EAFEEBFFEA4F7003120D84A2AFE433EB
:10539300F508C2AF8E828F83124F5A6028E824FB30
:1053A300FAE934FFFB901A0A125953E86C7002E9C8
:1053B3006D7007901A0AE4F0A3F08E828F83E4F0F5
:1053C300A3F0121252023807C082C083901A3174BC
:1053D3006EF0A37426F0A37480F0A37426F0A37474
:1053E30086F0A37426F0A37442F0A37425F0A3748B
:1053F3008CF0A37426F0A3743CF0A37425F0A3747B
:1054030048F0A37425F0901A3F74BCF0A37426F0FF
:10541300A37492F0A37426F0A37498F0A37426F0F7
:10542300A374A4F0A37426F0A3749EF0A37426F0CF
:10543300901A30E4024209C082C0839005B8E06448
:10544300FE7003A3E0F470097CAF7D051213308076
:105453001C8A828B83A3A3A3A3A3A3A3A37402F095
:105463009005B81265458A828B831247E50247058A
:10547300C082C0839005C2C3E094FEA3E094FF40C2
:1054830004790380027902024705C082C083125562
:10549300CE8C828D83125583687039740268701CB8
:1054A3008A828B831254DCE06870298A828B83A3FF
:1054B3001254DCA3E068701C7901801A74036870CD
:1054C30013EC2405FC50010DEA2405FA50010B12DC
:1054D300133680027900024705A3A3A3A3A3E0F830
:1054E3008C828D83A3A3A3A3A32274F61204A67EA6
:1054F30000740A120C45E0125577FF8A828B83A34E
:10550300A3A3A3A3A3A3A3E06F706474026F704E5D
:105513008A828B83C082C08388828983A3A3A3A347
:10552300A3E0F50888828983A3A3A3A3A3A3E0FB35
:10553300AA08D083D082E06A7003A3E06B7030883E
:10554300828983A3A3A3E0FA88828983A3A3A3A365
:10555300E0F9EA6C7002E96D70157E018011740345
:105563006F700CE82405FCE439FD121336E9FEEEF6
:10557300F9025EF9F8A3E0F98882F58312558322D4
:10558300A3E01313543F540322C082C0838A828B47
:1055930083A3A3A3A3A3A3A3A3E06402701690050C
:1055A300B81255C5687003A3E06970047901800FD0
:1055B3007900800BEAFCEBFD7AAF7B0512132A021C
:1055C30047051265498A828B83E0228A828B831284
:1055D3005583F82274F01204A674FC120A07E985B5
:1055E3001882851983F07402120C45ECF0A3EDF0D8
:1055F3008A0A8B0B7508007402120C45E02408120A
:105603005847C0E07401120C45D0E0125897A2E746
:105613005008750EFF750FFF800A9005BEE0F50E6A
:10562300A3E0F50F851882851983E0C2E712589C21
:105633005420600712586974088004125869E412F0
:10564300589C54046007125874748080051258746F
:10565300741012589C5410600612584FE4800B903B
:1056630005CBE0C0E012584FD0E012589CA2E050A6
:10567300037508205408600674104508F5088A82EB
:105683008B83A3A3E024FFFEA3E034FFFFEA1258B9
:105693005AC39402E0400F640B6009E0148E828FBA
:1056A3008312588D74034508F5087509009005DECB
:1056B300E0640170118A828B83A3A3A3A3E0C39444
:1056C300674003750910851882851983E0F50C7509
:1056D3000D00740E780C120B20E50D4509F509E059
:1056E3006402701B9005C3E08E828F83F09005C225
:1056F300E0C0E0123562D0E0F0EE24FEFE801CE054
:105703006403701DEE24F9FEEF34FFFF7CD27D05A8
:10571300EEFAEFFB12133CEE24FF1EEF34FFFF8083
:1057230003E0602F7401120C45E060187414120C2E
:1057330045E0650E7004A3E0650F700874404508EA
:10574300F508800F8E828F83E50FF0123562E50E28
:105753001258837401120C45E0F50C750D00740AA0
:10576300780C120B20E50D4509F509E0640270235E
:105773007402120C45125FAE8E828F83F074021294
:105783000C45123694C0E0123562D0E0F0EE24FEF0
:10579300FE8020E064037021EE24F9FEEF34FFFF66
:1057A3007402120C45125953EEFAEFFB12133CEE3E
:1057B30024FF1EEF34FFFF8003E0601C7414120CFF
:1057C30045A3E08E828F83F07414120C45E0C0E091
:1057D300123562D0E0125883EEF8EFF9E824FF1E89
:1057E300E934FFFFE50A12585A70059005AE8003AD
:1057F3009005BAE0FA04F0EA88828983125D5BE5DA
:105803000912588D8E82F583E508F0E50A2404F821
:10581300E4350BF9E50A2402FAE4350BFBEEFC8AC6
:10582300828B83E0F50888828983E02508C39C1274
:105833005E76EEF0A3EFF0850A82850B83A3E4F096
:10584300F9022FD6F582E43DF583E022EA2412F52E
:1058530082E4350BF58322125863350BF583E0227E
:10586300240DF582E422EA2410F582E4350BF58356
:1058730022EA12587D350BF583222411F582E422A6
:10588300F0EE24FEFEEF34FFFF22F0EE24FF1EEFC6
:1058930034FFFF22125349E022F0EA12509D350BE8
:1058A300F583E02274F11204A674FE120A07851828
:1058B30082851983ECF0A3EDF0890B8A0E750A1A21
:1058C3007415120C451267D81224E28A0C8B0DAEA4
:1058D3000CAF0DEA4F605A7413120C45125FB312EA
:1058E30059B2F0A3E91249CCE50BF0750A00780828
:1058F3001209587C0B7D00EA12594512096F741185
:10590300120C4512078C7402120C45125953A90E3E
:1059130012355812096FE9F50A7016E50B24F96080
:105923000314700612379AD2E5F0EEFAEFFB122554
:1059330036A90A740212096F7F070206BD7C0B7D2C
:1059430000EE241BFAE43FFB121186740322F58355
:10595300E0FCA3E0FD2274F61204A674F7120A0712
:10596300EAFEEBFF7801EA2432124AE2600278058C
:10597300EA1259B21249C97404125D4EAA18AB193E
:10598300121330EE242F12499F24311259B71209F2
:105993005C74021209E779031A1A12355A12096F55
:1059A300E9F5087007EEFAEFFB122536025EF212F4
:1059B3003162E822F582E43F123155124E9C04F025
:1059C30078082274F21204A68A088B09ECFEEDFF14
:1059D3008A828B837405F0EC125DE712613BF0EA77
:1059E3002403F50AE43509F50B850A82F583E0F50E
:1059F3000CA3E0F50DEC2425F582E43FF583120CAE
:105A030016E50C12587D350DF583120C0AEC125D68
:105A130047AA0CAB0D121330850A82850B831268DB
:105A230058125BAC125BCF125338EE242F124AE2AA
:105A3300C0E0125BB5D0E0125BFB2415F582E438BD
:105A4300F583E4125BFB1245B6E4125BE3850A823D
:105A5300850B83E02416FAA3E03400FB1226688E3C
:105A6300828F83A3A3A3A3A3A3A3E0C0E0850A8299
:105A7300850B831243FB12586338F583D0E0125B26
:105A8300DAFAA3E0FB850A82850B83126545E824D5
:105A93000BFCE439FD8A828B83E08C828D83125B5D
:105AA300F68A828B83A3E0F50B8C828D83A3E0457A
:105AB3000B125E6EA3E0FCEA2403FA50010BECA286
:105AC300E7E433C0E0E8240FF582E439F583D0E05E
:105AD300F074075C600478018002780075F0037449
:105AE300075CA428F8EA28FAE43BFBE5082405F858
:105AF300E43509F98A828B83123157125E6EAA82CA
:105B0300AB8385088285098312533888828983E0B1
:105B1300F50A25E0540EFCE50AC4540FF50A750B8B
:105B2300007403780A120B20E50A5438F8EC28F8BD
:105B3300EA28F8E43BF9850882850983A3A3A3A394
