:020000040000FA
:06000000020BB4020247EE
:030013000202697D
:03002B0002096E59
:03003B000202BE00
:0300530002017C2B
:100083000201DB0100F0FF0700080000FFFF000092
:10009300070400000003000147726F757000FF043E
:1000A30000100502640A2FAC092FAC09C0C1C2C3FA
:1000B300C4C5C6C7C8C9CACBCCCDCECF5A6967425F
:1000C3006565416C6C69616E636530390100FFFFE2
:1000D300F2E0A161000000000001C38AE20CE80C19
:1000E300F40CEE0C0020FD000206FFFF5789CD89BA
:1000F300FFFFFF1E780401FF000003168A03168A20
:1001030078000000F2180001040000F01400000061
:10011300E8030000FFFF6A150188130000E80300ED
:100123000064006400B801A0BB0D00A0BB0D000279
:10013300020207040101051E02051E020A0A01014B
:10014300010809080103B80B02803E0102FEFFE823
:10015300030A0500010204010A011401E001050379
:100163000101FF0F10FEFFA92B000000007D2A00F4
:10017300000000FF000000FF00C0E074F11204F86B
:10018300A2AFE433F509D2AF85A708AFA1EF5508B5
:10019300FE74105E6006120EE075A1EF74085E60D7
:1001A30008120EE675A1F78024EFA2E092F0E508AD
:1001B300A2E082F05017906198E0F8900595E0C3B3
:1001C30098A2D265D0335002E8F075A1FEE509A2EA
:1001D300E092AF7F02020557C0E074F21204F8A266
:1001E300AFE433FED2AF9061A4E0F8759B00E591D4
:1001F30058540860087591F7120F348023E591581D
:10020300541060087591EF120F3A8014E591A2E043
:1002130092F0E8A2E082F05007E0C2E0F01210840E
:100223009061A3E0F8E5E9585404600E12105A7582
:10023300E9FB906193E0A2E640F2EEA2E092AF7F89
:1002430001020557C0E074F21204F8A2AFE433FED2
:10025300D2AF9061A5E0F8E5BF585404600675BFBE
:10026300FB12109C80D4C0E0C0D0E8C0E0E9C0E03D
:10027300C082C083A8C1E8C0E0900502E0F87481A1
:1002830028F582E43404F583D0E0F0900501E0F82A
:10029300A3E0687006E595900504F0900502E0047C
:1002A300F0C394804002E4F0A374C6F0D083D082FC
:1002B300D0E0F9D0E0F8D0D0D0E032C0E0C0D0E850
:1002C300C0E0E9C0E0C082C083900585E0F8A3E008
:1002D300687008539AFBA374018022C2E9900585D4
:1002E300E0F8740128F0740528F582E43405F583F9
:1002F300E0F5C1900585E0C394804002E4F080AC52
:10030300C3E498F8E499F91203448026C3E49AFA03
:10031300E49BFBE920E7E9120344E498F8E499F944
:1003230022C3E498F8E499F9120344E498F8E499B1
:10033300F9C3E49AFAE49BFB22EB20E7CFE920E739
:10034300E0B90010BB0008E88AF084F8AAF022E4C0
:10035300FBC8FA22EB70227B10C833C8C933C933F8
:100363005007C39AC3DBF280069A50012ADBEAC81E
:1003730033F4C8C933F4C9FA2275F008E4C833C8A2
:10038300C933C933C99AC99B5004C92AC93BD5F09B
:10039300ECFBC833F4C8E4C9FA22080808EAC0E051
:1003A300EBC0E086F0E7A4FA180986F0E7A42AFA7E
:1003B300180986F0E7A42AFA180986F0E7A42AFAAE
:1003C3001986F0E7A4FBE5F02AFA190886F0E7A4FA
:1003D3002BFBE5F03AFA190886F0E7A42BFBE5F0CE
:1003E3003AFA18180986F0E7A4C5F02BFBE43AFAA9
:1003F3001908E7C5F0C6A426F6E5F03BFBE43AFA94
:100403001886F0E7A4F6E5F00826F6E43B08F6E4E0
:100413003A08F6D0E0FBD0E0FA22E4CFC0E0E4CE25
:10042300C0E0E4CDC0E0E4CCC0E075F020E626F601
:1004330008E633F608E633F608E633F6181818EC40
:1004430033FCED33FDEE33FEEF33FFC3EC9709EDE1
:100453009709EE9709EF97191919400FFFEC97FCCD
:1004630009ED97FD09EE97FE191906D5F0BFECF7D4
:1004730009EDF709EEF709EFF7191919D0E0FCD0E8
:10048300E0FDD0E0FED0E0FF222518C582C0E0E504
:100493001934FFC583C0E0E518C3958224F810AF73
:1004A300088583198582188008858319858218D267
:1004B300AFCEF0A3E520F0A37808E608F0A3DEFAB8
:1004C300EFF0A3E58124FAF8E608F0A3E608F0A329
:1004D300E608F0A30808E608F0A3E608F0A31581F0
:1004E3001581D0E0FED0E0F8158115811581E8C0B3
:1004F300E0EEC0E022C0D02518C582C0E0E5193483
:10050300FFC583C0E0E518C3958224F310AF0885C7
:1005130083198582188008858319858218D2AFC80C
:10052300F0A3E9F0A3EAF0A3EBF0A37908E709F05D
:10053300A3D8FAECF0A3EDF0A3EEF0A3EFF0A3D071
:10054300E0F0A3D0E0F0A3D0E0F0A3E520F0A3E532
:10055300F0F0A322851983851882E0C0E0A3E0F9B7
:10056300A3E0FAA3E0FBA37808E0F608A3DFFAE030
:10057300FCA3E0FDA3E0FEA3E0FFA3E0C0E0A3E053
:10058300C0E0A3E0F5D0A3E0F520A3E0A3F5F010CD
:10059300AF08858319858218800885831985821899
:1005A300D2AFD082D083D0E0F8D0E032120C2EB993
:1005B30000030205EEE4900401788179158002F0CE
:1005C300A3D8FCD9FA7A817B1890008678F7790151
:1005D3008015E493A3AD82AE838A828B83F0A3AAB2
:1005E30082AB838D828E83D8E9D9E77582EA7583DE
:1005F300B574061208E175827875832874001208B1
:10060300E175F0108E1A8F1B85821F85831E851856
:1006130082851983E0CEA3E0CF851F82851E83EBFD
:10062300C9EAC8EDCBECCAC3E833C8E933C9EA3336
:10063300CAEB33CBC3EA9EF51DEB9FF51CB3500405
:10064300AB1CAA1DEC33CCED33CDD5F0DAAE1AAF2B
:100653001B22D083D082ECC0E0EDC0E0E493A3FC86
:10066300E493A3FDED4C600D12072DEC24FFFCED8C
:1006730034FFFD80EFE493A3FCE493A3FDED4C6012
:100683000D1207CAEC24FFFCED34FFFD80EFD0E030
:10069300FDD0E0FCE493A3C0E0E493C0E02285191D
:1006A30083851882E0A3FEE0A3F5207808E0A3F693
:1006B30008DFFAE0A3FFE0A3C0E0E0A3C0E0E0A30B
:1006C300C0E0E0A3C0E0E0A3C0E010AF088582185B
:1006D3008583198008858218858319D2AFD083D08A
:1006E300820208E7D083D082E9C0E0E493A3C38603
:1006F300F0C5F095F0F908E493A386F0C5F095F002
:10070300700BE493A3C3994005E9048002A3E47545
:10071300F002A42582F582E5F03583F583D0E0F974
:10072300E493A3C0E0E493C0E022C0E0C3E4939663
:10073300087401939618400FE493667008087401D7
:1007430093661870007019A3A3C3E4939608740109
:10075300939618A3A3400DD0E0D0E0D0E002069119
:10076300A3A3A3A3A3A3D0E02274048004740280F0
:1007730000CCC0E0EDC0E0E518C39CCCAD1950013E
:100783001D10AF068C188D1980068C188D19D2AFE9
:10079300120863D0E0FDD0E0FC2274028000CCC0DC
:1007A300E0EDC0E0E518C39CCCAD1950011D10AFBE
:1007B300068C188D1980068C188D19D2AF1208413A
:1007C300D0E0FDD0E0FC22C0E0C0F088F0E4936606
:1007D30070080874019366187000A8F0A3A3700B47
:1007E300D0F0D0E0D0E0D0E0020691A3A3D0F0D0C7
:1007F300E022D083D082CCC0E0E493A36006120849
:10080300841470FAE493A36006120A011470FAD0F8
:10081300E0FCE493A3C0E0E493C0E022A2E792D615
:100823005002F40430F70663F0FF05F0B34003848D
:10083300800384F40430D60563F0FF05F022CAC0B8
:10084300E0E493A3C582CCC582C583CDC583F0A361
:10085300C582CCC582C583CDC583DAE5D0E0CA2283
:10086300CAC0E0E0A3C582CCC582C583CDC583F0F1
:10087300A3C582CCC582C583CDC583DAE6D0E0CAE1
:1008830022C0E0E493A3D39C5010E493A3C39C4001
:100893000AD0E0D0E0D0E0020812A3A3A3D0E02264
:1008A3007009080808226016181818C6C333C6084A
:1008B300C633C608C633C608C633C6D5E0EA22C067
:1008C30008C3E096F50808A3E096420808A3E0965B
:1008D300420808A3E09645087001D3D00822C09FC0
:1008E300F59FE473D09F22D083D082C09FE493C04E
:1008F300E0740193C0E0740293F59F22C58225182A
:10090300C582C583351910AF07F51985821880078D
:10091300F519858218D2AFC583227404800A740343
:100923008006740280027401C0E0F404120938D016
:10093300E0120BF1222518F58210AF08F518400CD0
:1009430015198008F51840021519D2AF85198322AD
:1009530000C0D0251810AF08F518500C05198008F1
:10096300F51850020519D2AFD0D022C0E0C0D0E8AC
:10097300C0E0A8A8D2AFC2C7E8A2E792AFD0E0F820
:10098300D0D0D0E032BB0102E722C082C08389828B
:100993008A83BB0003E08002E493D083D082226089
:1009A30016080808C6C313C618C613C618C613C646
:1009B30018C613C6D5E0EA222518F8E43519F9223A
:1009C3002518FAE43519FB222518FCE43519FD2214
:1009D300C3E0C696F608A3E0C696F608A3E0C6965B
:1009E300F608A3E0C696F622251810AF08F51840BE
:1009F3000C15198008F51840021519D2AF22C0E072
:100A0300E493A36C7009D0E0D0E0D0E0020812A315
:100A1300A3D0E022E76670100809E766700A0809A8
:100A2300E76670040809E76622E066701008A3E031
:100A330066700A08A3E066700408A3E06622C3E0B8
:100A43009608A3E09608A3E09608A3E096A2D265D1
:100A5300D03322C3E096F008A3E096F008A3E09613
:100A6300F008A3E096F022C3E493960874019396EA
:100A73000874029396087403939622C3E697F608C4
:100A830009E697F60809E697F60809E697F622E6D7
:100A930027F60809E637F60809E637F60809E637C0
:100AA300F622E026F608A3E036F608A3E036F608B9
:100AB300A3E036F622E493F608740193F608740271
:100AC30093F608740393F622E026F008A3E036F0C9
:100AD30008A3E036F008A3E036F022E056F008A3BE
:100AE300E056F008A3E056F008A3E056F022E046F3
:100AF300F608A3E046F608A3E046F608A3E046F6A8
:100B030022E647F60809E647F60809E647F6080924
:100B1300E647F622700422600D18C6C333C608C622
:100B230033C6D5E0F41822E657F60809E657F60867
:100B330009E657F60809E657F622E056F608A3E059
:100B430056F608A3E056F608A3E056F622E046F070
:100B530008A3E046F008A3E046F008A3E046F0222D
:100B6300E4C396F608E496F608E496F608E496F6E7
:100B730022600D08C6A2E713C618C613C6D5E0F354
:100B830022C6F4C608C6F4C608C6F4C608C6F4C628
:100B930022C3E09608A3E09608A3E09608A3E09694
:100BA30022C3E7960809E7960809E7960809E79636
:100BB3002275D00075813F7518017519040002056F
:100BC300AFE6F008A3E6F008A3E6F008A3E6F022F8
:100BD300600C08C6C313C618C613C6D5E0F422E0DA
:100BE300F608A3E0F608A3E0F608A3E0F622CAC0DD
:100BF300E0E6F0A308DAFAD0E0FA22E8F0A3E9F09D
:100C0300A3EAF0A3EBF022E0F8A3E0F9A3E0FAA350
:100C1300E0FB22EAF0A3EBF0A3ECF0A3EDF022E07B
:100C2300FAA3E0FBA3E0FCA3E0FD22E5C754F844EC
:100C330001F5C77901222518F582E43519F58322D8
:100C4300C2AF75D69F020000221208EAC7CF051271
:100C530008EAE3CF051208EA28D0051208EAADD066
:100C6300051208EAF9D0051208EA89D1051208EA43
:100C730062D2051208EAB3D2051208EA18D30512A4
:100C830008EA8BD3051208EACFD3051208EA27D462
:100C9300051208EA49D4051208EAD9D4051208EA6C
:100CA3006AD5051208EAB6D5051208EAE2D5051297
:100CB30008EA23D6051208EAC4D7051208EAA6D81B
:100CC300051208EA82D9051208EA56B3041208EAA3
:100CD30089B3041208EAD1B3041208EADDB5041299
:100CE30008EA46B8041208EA79B8041208EA55BBC0
:100CF300041208EA0BBE041208EAA1BE041208EAB1
:100D03001FC2041208EAF0C2041208EA54C404120F
:100D130008EAD6C4041208EACEC5041208EA0FC8CA
:100D2300041208EA96C8041208EA97CA041208EAE9
:100D3300BDCD041208EAC0CD041208EAD3CD0412D3
:100D430008EA20CE041208EAC3AA051208EA97AFFC
:100D5300051208EAFBAF051208EA20B1051208EAFA
:100D63000AB5051208EAE9B8051208EA09BB051233
:100D730008EA4FBB051208EA1EBD051208EA5FD058
:100D8300061208EA70D0061208EA0ED1061208EA23
:100D930028D1061208EAFBFF021208EA95D10612CF
:100DA30008EAB1D1061208EA6EC7061208EA7CC740
:100DB300061208EA97C8061208EAA2C8061208EA49
:100DC300EAFF031208EA66FF011208EA76FF01123E
:100DD30008EA8EFF011208EAD2FF011208EA5ACE8E
:100DE300061208EADECE061208EA46CF061208EA21
:100DF300F8FF021208EACAC1061208EAD8C10612AD
:100E030008EA38C2061208EA70C2061208EA8CC25F
:100E1300061208EA01C3061208EAEDC3061208EA3D
:100E230037D1061208EA5CD1061208EA6FD106121E
:100E330008EA7AD1061208EA74B0061208EA8FB0FB
:100E4300061208EABCB0061208EAD0B1061208EA94
:100E530070B2061208EA94B2061208EA7CD30612AC
:100E630008EA1FFF051208EAA5FF051208EAD7FFE3
:100E7300051208EAEFFF051208EA2FFA011208EA41
:100E83005BFA011208EAF2FC011208EA32FD0112D0
:100E930008EA6EFD011208EA82FD011208EA9BFDD1
:100EA300011208EA8CFE011208EA3EFF011208EA69
:100EB30052FF011208EA88CA061208EAACCA0612EF
:100EC30008EAC5CA061208EA03CB061208EA33CBBE
:100ED300061208EA60CB061208EAC6CB061208EA35
:100EE300C9CB061208EAD3CB061208EAE0CB0612F6
:100EF30008EA43B3061208EA63B3061208EAA2B388
:100F0300061208EAC0B3061208EADBB3061208EABF
:100F130041B4061208EA4DB4061208EAAAB406124E
:100F230008EAB9B4061208EADDB4061208EA9EB567
:100F3300061208EAABB5061208EABCB5061208EABF
:100F4300EFD2061208EA07D3061208EA33D30612D1
:100F530008EA039B061208EA5F9C061208EA6D9CE6
:100F6300061208EA809C061208EA959C061208EA13
:100F7300AA9C061208EABD9C061208EA399D0612CD
:100F830008EA9E9D061208EA349E061208EA0D9F9F
:100F9300061208EA1D9F061208EA2C9F061208EAA9
:100FA30041FF021208EA65FF021208EA8DFF0212EE
:100FB30008EAB5FF021208EA02BB061208EA29BBD7
:100FC300061208EA47BB061208EAB6BB061208EA8D
:100FD300ABAD061208EAC4AD061208EAD0AD06129C
:100FE30008EAE4AD061208EA02AE061208EA0CAEFD
:100FF300061208EA16AE061208EA29AE061208EA35
:10100300AFAE061208EA24AF061208EA53AF06127F
:1010130008EAA1AF061208EAF0AF061208EA0BB01D
:10102300061208EA15B0061208EA26B0061208EA04
:1010330069B0061208EA54D2061208EAEA890612CF
:1010430008EA168A061208EA338A061208EA468A6A
:10105300061208EA618A061208EABB8A061208EA3F
:10106300E98A061208EAF98E061208EA5790061270
:1010730008EA8990061208EAEC90061208EA5892E8
:10108300061208EA8092061208EA9592061208EA06
:10109300A592061208EAE592061208EA27930612B9
:1010A30008EA3793061208EA2ACD061208EA44CD65
:1010B300061208EA6CCD061208EA85CD061208EA84
:1010C300A9CD061208EAC7CD061208EADECD06123C
:1010D30008EA0CCE061208EA27CE061208EA36D32F
:1010E300061208EAD7A6061208EAE7A6061208EAD5
:1010F300ECA7061208EA1EA8061208EA4EA8061272
:1011030008EA71A8061208EA88A8061208EAC2A823
:10111300061208EA27A9061208EA69A9061208EACC
:10112300B0A9061208EADDA9061208EA08AA0612FF
:1011330008EA14D4061208EA17D4061208EA1AD4E5
:10114300061208EA7EB8061208EA9EB8061208EAF2
:10115300B2B9061208EAD4BA061208EAFDC80612A2
:1011630008EA33C9061208EA4BC9061208EA8DC910
:10117300061208EA9DC9061208EAE1C9061208EA3E
:101183007BCA061208EA85CA061208EA008006121C
:1011930008EA0A80061208EA3580061208EA7E8009
:1011A300061208EAE780061208EA0681061208EA30
:1011B3001F81061208EAC181061208EA4984061251
:1011C30008EA5284061208EAA384061208EACC84C9
:1011D300061208EAD984061208EA4A85061208EAC2
:1011E300D885061208EA2686061208EA5C860612E5
:1011F30008EABD86061208EAE686061208EA5D8753
:10120300061208EAB987061208EAF687061208EA00
:101213002D88061208EA3F88061208EA518806124A
:1012230008EA7088061208EA7988061208EA3489FF
:10123300061208EA8089061208EABE89061208EA3D
:10124300F2D1061208EAEACB061208EA57BD0612E3
:1012530008EA8DBD061208EAD5BD061208EA2EBFBC
:10126300061208EA8496051208EAB597051208EAF9
:10127300F197051208EAAB99051208EAD599051208
:1012830008EA4E9C051208EA8E9C051208EA229E83
:10129300051208EAC19E051208EA199F051208EA19
:1012A300AC9F051208EAE69F051208EA28A005127A
:1012B30008EA9BA1051208EA1BA3051208EA58A530
:1012C300051208EA86A5051208EAB2A5051208EA7E
:1012D300BBA5051208EA18A6051208EAA8A6051276
:1012E30008EAE4A9051208EA66AA051208EADBFF80
:1012F300011208EAF1FF011208EAE5FB031208EA0A
:10130300FBFB031208EA9FFC031208EADEFC03124C
:1013130008EAFBFC031208EA2CFD031208EA79FD34
:10132300031208EAADFD031208EAE8FD031208EA16
:10133300DDFF031208EA5FCF061208EABECF0612EA
:1013430008EAFCCF061208EA3DD0061208EAEE7F4F
:10135300001208EA95BF061208EACCBF061208EA93
:1013630013C0061208EAB0C0061208EA70C10612DA
:1013730008EAC1C5061208EAC4C5061208EAC7C5C9
:10138300061208EACAC5061208EA0080041208EA2F
:101393000C80041208EA7382041208EAAF82041272
:1013A30008EA6E83041208EAD283041208EA5B8413
:1013B300041208EAC184041208EA0E85041208EA3A
:1013C3008985041208EA4887041208EA4F8904123F
:1013D30008EA5A8A041208EAED8A041208EA468CDB
:1013E300041208EA478D041208EA8C8E041208EAF4
:1013F3002293041208EA0B94041208EA8B94041251
:1014030008EAB094041208EAD594041208EA709525
:10141300041208EA8E95041208EAAC95041208EA4D
:101423001D96041208EA3C96041208EA699604120F
:1014330008EA6A97041208EA6198041208EAF29922
:10144300041208EA989A041208EADF9A041208EAD6
:10145300519B041208EAE09B041208EA459C04121B
:1014630008EAA29C041208EA419D041208EAAE9D10
:10147300041208EAE99D041208EA529E041208EADB
:10148300BC9F041208EA31A1041208EAE3A1041282
:1014930008EAF8A1041208EA49A2041208EAB6A26B
:1014A300041208EAE6A2041208EA59A3041208EA9D
:1014B30012A4041208EA14A6041208EA82A8041269
:1014C30008EAAEA9041208EAB4AD041208EA81AE30
:1014D300041208EA9EAF041208EA47B1041208EAAC
:1014E3000CC4061208EA22C5061208EA09BE051250
:1014F30008EA9BBE051208EA12BF051208EA32C2C7
:10150300051208EAE4C3051208EA2FC6051208EA21
:101513007CC7051208EA21CA051208EA4BCA05125C
:1015230008EA7BCA051208EA15CB051208EAACCB18
:10153300051208EABDCB051208EAC4CB051208EA76
:1015430048CC051208EA91CC051208EA557E001230
:1015530008EAA97E001208EAA77F001208EA9BCED8
:10156300041208EACACE041208EA4ECF041208EAAB
:10157300B1D0041208EA9FD1041208EA0ED3041270
:1015830008EA33D3041208EA85D3041208EA17D40D
:10159300041208EA63D4041208EA76D4041208EAAF
:1015A300D3D4041208EAA0D5041208EA0ED6041212
:1015B30008EA45D6041208EA8ED6041208EA36D899
:1015C300041208EA15D9041208EA63DA041208EAD5
:1015D30046DB041208EAD2DB041208EA0BDC04122D
:1015E30008EA2ADC041208EA75DC041208EA95DC2E
:1015F300041208EA52DD041208EA75DE041208EA4E
:10160300D0DE041208EA10DF041208EA18E004121C
:1016130008EA9FE2041208EAC5E2041208EA40E37A
:10162300041208EA65E3041208EAECE3041208EA88
:10163300C8E4041208EA06E5041208EA8AE504127B
:1016430008EA75E6041208EA78E6041208EA82E674
:10165300041208EA8CE6041208EAA8E6041208EA6F
:1016630024E7041208EA5DE7041208EA79E70412A2
:1016730008EAA5E7041208EACCE7041208EAF0E74F
:10168300041208EA2BE8041208EA9EE8041208EAA6
:10169300D2E8041208EADCE8041208EA18E90412A2
:1016A30008EA4DE9041208EA6CE9041208EA9FD239
:1016B300061208EAB7D2061208EAFBFF011208EA8B
:1016C3006793061208EAB693061208EA749506129F
:1016D30008EA2E97061208EA6C97061208EA999808
:1016E300061208EAA499061208EAC699061208EA3D
:1016F300109A061208EA919A061208EA75E1021294
:1017030008EA98E1021208EA03E3021208EA4CE34A
:10171300021208EAAAE3021208EA10E4021208EA33
:1017230013E4021208EA5BE4021208EADFE402129D
:1017330008EA67E5021208EA6AE5021208EAF2E536
:10174300021208EA35E6021208EAD3EA021208EAAC
:1017530073EC021208EAB9EC021208EA2FF0021243
:1017630008EA6BF1021208EA48F2021208EAD2F21E
:10177300021208EA0BF3021208EA98F5021208EAC9
:1017830061F7021208EAFCF7021208EA82F8021271
:1017930008EA74F9021208EA29FB021208EA26FC95
:1017A300021208EA9CFD021208EAE2FD021208EAAC
:1017B3008DFE021208EAD969001208EA746A00125F
:1017C30008EAE76A001208EA026B001208EAA36B50
:1017D300001208EAFC6B001208EA476C001208EAE0
:1017E300A66C001208EAB36D001208EAD07000126A
:1017F30008EA0672001208EA8F72001208EA93746C
:10180300001208EA3775001208EAE775001208EAC1
:101813009876001208EA0677001208EAE8780012C0
:1018230008EA5D7A001208EA6C7B001208EAF97B89
:10183300001208EA057D001208EA3BD9031208EA00
:101843009ED9031208EAE6D9031208EA24DA03123E
:1018530008EA7FDA031208EADCDA031208EA17DB84
:10186300031208EA99DB031208EAF3DB031208EA1E
:1018730067DD031208EAE5DD031208EAFDDE031261
:1018830008EA25DF031208EA74E0031208EA85E098
:10189300031208EA9DE0031208EAB2E1031208EA20
:1018A3008FE2031208EA8CE3031208EAB0E303129F
:1018B30008EAC7E3031208EAE8E3031208EA0AE4C2
:1018C300031208EA29E4031208EAFDE4031208EA12
:1018D30057E5031208EAF8E7031208EA51E803128E
:1018E30008EA70E8031208EA5BE9031208EA91E9DF
:1018F300031208EACBEA031208EA4AEB031208EAE6
:1019030081EB031208EABBEB031208EA2AEC031289
:1019130008EAEBEC031208EAC4EE031208EACBEF81
:10192300031208EA3CF1031208EA3CF3031208EA43
:10193300B7F5031208EA91F7031208EA52F8031203
:1019430008EACAF8031208EAE1F8031208EADBF925
:10195300031208EAD3FA031208EA42FB031208EA65
:1019630060AA061208EA10AC061208EACFAC061207
:1019730008EA37AD061208EA5D9F061208EA7B9F64
:10198300061208EABF9F061208EAE59F061208EA54
:101993000CA0061208EA66F6051208EA3CA0061235
:1019A30008EADEA0061208EA20A1061208EA42A20B
:1019B300061208EA4BA2061208EA54A2061208EA23
:1019C3005DA2061208EA67A2061208EA71FA051276
:1019D30008EAA5FE051208EAB3FE051208EAB8FEF6
:1019E300051208EA0BB7061208EAD3FF041208EA45
:1019F300B4D3061208EAEBD3061208EADAFF02129E
:101A030008EA0080031208EA3280031208EAA3CD31
:101A1300051208EA3981031208EAD881031208EA99
:101A23001D82031208EA3F82031208EA5882031256
:101A330008EA7E82031208EAA082031208EADE8221
:101A4300031208EA2283031208EA4483031208EA12
:101A5300A683031208EA6D84031208EA248503129D
:101A630008EA9685031208EA6886031208EAB28632
:101A7300031208EA0587031208EA6B87031208EAD0
:101A8300A587031208EAF787031208EA13880312EB
:101A930008EA3E88031208EA458A031208EA998B8A
:101AA300031208EABB8B031208EAEF8B031208EA5E
:101AB300108C031208EA1F8C031208EA2A8C031203
:101AC30008EADA8C031208EA438D031208EAF08D60
:101AD300031208EA288E031208EAEE8E031208EABC
:101AE300FB8F031208EA4590031208EAD49003120D
:101AF30008EA3891031208EA7391031208EADF93A4
:101B0300031208EA3395031208EA6C98031208EAF1
:101B13003999031208EAC799031208EAF0990312E4
:101B230008EA629A031208EAF69A031208EA549B37
:101B3300031208EA469C031208EA689C031208EAA7
:101B4300C49D031208EADD9D031208EAF09D031207
:101B530008EA5F9E031208EA6B9F031208EA789F64
:101B6300031208EA819F031208EA59A1031208EA43
:101B73007FA2031208EA8FA2031208EA91A30312B9
:101B830008EA08A4031208EA37A4031208EA3DA5E9
:101B9300031208EA83A5031208EA4FA7031208EA0F
:101BA30027AB031208EA31AB031208EA45AB031271
:101BB30008EA4FAB031208EA59AB031208EA63AB16
:101BC300031208EA7CAB031208EA86AB031208EAA5
:101BD300FAAB031208EA05AC031208EA2AAC0312B3
:101BE30008EA35AC031208EA83AC031208EA8DACA9
:101BF300031208EA98AC031208EABCAC031208EA21
:101C0300E0AC031208EA3CAD031208EA82AD03120A
:101C130008EA9FAD031208EA1CAE031208EA53AEAA
:101C2300031208EA92AE031208EADFAE031208EACF
:101C330061AF031208EAFAAF031208EACAB103124A
:101C430008EA28B2031208EA44B3031208EA6AB3A3
:101C5300031208EAA9B4031208EACFB7031208EA89
:101C630010BA031208EAECBB031208EA82BC03129F
:101C730008EAA9BE031208EA55BF031208EA8ABF9D
:101C8300031208EAEFBF031208EAF9BF031208EAD6
:101C930023C2031208EA4AC3031208EA8AC30312DF
:101CA30008EA30C4031208EAC1C5031208EA4AC7A6
:101CB300031208EA6AC7031208EAC3C7031208EA51
:101CC300C5C8031208EA0FC9031208EA5FC9031261
:101CD30008EA49CA031208EABECA031208EAD8CBC3
:101CE300031208EA53CC031208EA58CD031208EA98
:101CF30003D0031208EA22D0031208EA83D10312A5
:101D030008EA45D3031208EA99D3031208EA51D427
:101D1300031208EA00D5031208EA56D5031208EAAB
:101D23000CD6031208EAA1D6031208EA0DD7031250
:101D330008EA47D7031208EA78D7031208EAD4D887
:101D4300031208EA0080021208EA3280021208EA4B
:101D53006980021208EA5282021208EA35830212EB
:101D630008EA8D83021208EAC884021208EA14857D
:101D7300021208EA3C88021208EA9E8B021208EA61
:101D8300EB8C021208EA818D021208EA8D8D021291
:101D930008EABF8D021208EA418F021208EA4F9047
:101DA300021208EA7990021208EAD090021208EAB5
:101DB3002991021208EA9591021208EAAC930212E1
:101DC30008EA3B95021208EA0596021208EA4397CD
:101DD300021208EA7399021208EA439C021208EA03
:101DE300509C021208EAD79C021208EA7F9D021255
:101DF30008EAC29D021208EA2C9E021208EA499ED2
:101E0300021208EA799E021208EAAE9E021208EA5A
:101E13007E9F021208EA27A0021208EAABA202126E
:101E230008EACBA3021208EAB4A4021208EA36A510
:101E3300021208EA58A9021208EA95A9021208EA4E
:101E4300EDA9021208EA20AA021208EAA1AA0212C4
:101E530008EAEEAA021208EA79AB021208EACBAB4F
:101E6300021208EAA2AC021208EA5BAD021208EA07
:101E7300F6AD021208EA0FB1021208EA2FB20212FB
:101E830008EAE0B5021208EAFEB6021208EA01B750
:101E9300021208EA30B7021208EA36B9021208EA57
:101EA3000FBA021208EA44BA021208EA4CBB021241
:101EB30008EA02BC021208EAA3BD021208EAC8BD7E
:101EC300021208EA07BE021208EA79BE021208EA01
:101ED3005DBF021208EA2AC0021208EA60C20212B7
:101EE30008EAD1C2021208EA11C3021208EA72C355
:101EF300021208EA35C7021208EA24C8021208EAE5
:101F03000BC9021208EA83C9021208EA45CA02127F
:101F130008EA43CC021208EA5BCC021208EA6FCC4F
:101F2300021208EAA7CC021208EAD5CC021208EA88
:101F33005CCE021208EA67CF021208EAB9CF021296
:101F430008EA21D0021208EAD3D0021208EA03D128
:101F5300021208EAE7D1021208EA98D2021208EA4A
:101F630087D4021208EABCD4021208EA24D502126A
:101F730008EA53D6021208EA05D7021208EA36D74E
:101F8300021208EA4ED7021208EADDD7021208EA63
:101F930091DA021208EA69DC021208EA85DC02120D
:101FA30008EAA1DC021208EA6FDD021208EA53E133
:101FB300021208EA1EA3061208EA5EA3061208EA42
:101FC30011A5061208EA20A5061208EA00800512E8
:101FD30008EA1785051208EA6285051208EAB2873E
:101FE300051208EA4689051208EAD489051208EAA7
:101FF300358C051208EA3A8E051208EA8E8E051210
:1020030008EA9D90051208EACE90051208EA0E919F
:10201300051208EA2991051208EA8491051208EAD3
:10202300A691051208EAAD91051208EAC5910512B9
:1020330008EAA592051208EA8493051208EAC88AF9
:10204300011208EA008B011208EADE8F011208EA86
:102053002490011208EA7191011208EADC9101123D
:1020630008EA6593011208EA7596011208EA909747
:10207300011208EAA2A1011208EA35A2011208EA34
:1020830087A5011208EA83A6011208EADEA6011257
:1020930008EA28A8011208EA16A9011208EAB2AB55
:1020A300011208EA26AD011208EAA9AD011208EAF5
:1020B300ACAD011208EA21AE011208EA2BAE0112FF
:1020C30008EA38AE011208EA63AE011208EA13AF58
:1020D300011208EA0CB0011208EAB7B0011208EACB
:1020E300D5B0011208EAEEB0011208EA17B10112E5
:1020F30008EA39B1011208EA8EB3011208EA53B4AF
:10210300011208EA98B4011208EA17B5011208EAA5
:10211300C3B5011208EAF5B5011208EA49B601127E
:1021230008EA84B6011208EACBB6011208EA1BB723
:10213300011208EA20B7011208EA74B7011208EA8B
:10214300A0B7011208EA89B8011208EADAB8011245
:1021530008EA3AB9011208EA94B9011208EA2FBA57
:10216300011208EA6EBD011208EA80BE011208EAF4
:10217300FABF011208EA0AC3011208EAA8C301124E
:1021830008EA9EC6011208EA5DC7011208EAA1C760
:10219300011208EA4CC9011208EA60C9011208EAEF
:1021A3006AC9011208EA74C9011208EA80C9011256
:1021B30008EAA5C9011208EA7ECB011208EAD3CBCB
:1021C300011208EADDCB011208EAE7CB011208EAA3
:1021D3005CCC011208EAABCC011208EABCCD0112B7
:1021E30008EA09CE011208EA16CF011208EA5ACF0B
:1021F300011208EA00D0011208EAF3D0011208EA3A
:10220300B9D1011208EADCD2011208EAFAD30112A9
:1022130008EAE2D4011208EAFAD4011208EA51D515
:10222300011208EA5BD5011208EA66D5011208EA31
:1022330084D5011208EACCD5011208EA2ED6011280
:1022430008EA55D6011208EA67D6011208EA02D74E
:10225300011208EA37D7011208EA1ED8011208EA68
:1022630063D8011208EA49D9011208EA70D90112A8
:1022730008EAF3D9011208EA64DA011208EAEDDB8D
:10228300011208EA19DD011208EADCDD011208EA8D
:10229300A4DE011208EA2EDF011208EA56E0011259
:1022A30008EAF8E0011208EA73E1011208EA2FE2F2
:1022B300011208EA79E2011208EAD3E2011208EAFC
:1022C300ABE3011208EACEE3011208EA81E401124A
:1022D30008EAA3E4011208EA0CE5011208EA22E77E
:1022E300011208EA1AE8011208EADEE8011208EA14
:1022F30010EB011208EA5AEB011208EAAAEB0112E9
:1023030008EA0EEC011208EA70EC011208EA9EECEE
:10231300011208EAC2EC011208EAF7EC011208EA1A
:1023230028ED011208EA5BED011208EAABED011298
:1023330008EAFEED011208EA23EF011208EAC3F0EE
:10234300011208EA1EF1011208EA47F1011208EA34
:10235300D4F1011208EA42F2011208EA50F2011222
:1023630008EA74F2011208EAC9F2011208EAE4F277
:10237300011208EA96F3011208EACEF3011208EA01
:1023830011F4011208EA74F4011208EA76F6011254
:1023930008EAA0F6011208EA97F7011208EAA1F881
:1023A300011208EA51F9011208EA5CDA051208EA97
:1023B30094DA051208EAB5DA051208EAF7DA051223
:1023C30008EA59DB051208EA63DB051208EA73DB46
:1023D300051208EAAEDB051208EA8EDF051208EAE9
:1023E3007BE1051208EA61E3051208EAF8E3051246
:1023F30008EA9AE4051208EACA2F001208EA7530BF
:10240300001208EA2331001208EA2932001208EA0E
:102413004932001208EA7233001208EA2D3500121D
:1024230008EAA035001208EA4436001208EA5037D9
:10243300001208EABB37001208EAF737001208EA6D
:102443003A38001208EA7538001208EAB738001261
:1024530008EA4C39001208EAC839001208EA923A2D
:10246300001208EA6F3B001208EA073C001208EA70
:10247300213C001208EA513C001208EA823C001297
:1024830008EA483D001208EA583D001208EAA73D51
:10249300001208EAB43D001208EABD3D001208EA42
:1024A3003B3E001208EA973E001208EAE23E0012A1
:1024B30008EAFD3E001208EA283F001208EA453FF9
:1024C300001208EA513F001208EAE840001208EA45
:1024D3000141001208EA8641001208EA99410012FC
:1024E30008EAB841001208EA5C42001208EADD4338
:1024F300001208EA9045001208EA2646001208EA8C
:102503002946001208EA9946001208EAB746001263
:1025130008EA4E47001208EA9647001208EA99476C
:10252300001208EA5F48001208EACC48001208EAE1
:10253300F248001208EA7D49001208EA9B4900129A
:1025430008EAE149001208EA954A001208EADF4A5C
:10255300001208EA0E4B001208EA6B4B001208EA5D
:10256300A04B001208EACC4B001208EADA4B001227
:1025730008EA274C001208EA974C001208EAE04CDC
:10258300001208EA2C4D001208EA584D001208EA1E
:10259300634D001208EA814D001208EA6C4E0012E6
:1025A30008EA764E001208EAB14E001208EAC14E5C
:1025B300001208EA154F001208EA294F001208EA30
:1025C3005850001208EA6D50001208EAFB5000123E
:1025D30008EA4051001208EACC51001208EAD75128
:1025E300001208EA1953001208EA3453001208EAE9
:1025F3008053001208EAEF53001208EA285400122D
:1026030008EA4254001208EAA254001208EA4155AB
:10261300001208EA8C55001208EA5C58001208EA16
:102623000E59001208EA7B59001208EABB5B00123C
:1026330008EAD35B001208EAD65B001208EAE25B01
:10264300001208EAF65B001208EAFE5B001208EAD1
:10265300315C001208EA345D001208EAC15D001221
:1026630008EA315E001208EAB35E001208EA745FFA
:10267300001208EA935F001208EA3460001208EAC5
:102683009160001208EA9460001208EA08610012DF
:1026930008EA5762001208EA5D63001208EAE86379
:1026A300001208EA0365001208EACB65001208EA83
:1026B300FC65001208EA1F66001208EA2866001289
:1026C30008EA5766001208EAE766001208EA9D67FF
:1026D300001208EA1268001208EAB968001208EA50
:1026E3002E69001208EA6569001208EAA36900125C
:1026F30008EA6CF5051208EA92F4051208EAE8F113
:10270300051208EAFAF0051208EA8FF0051208EA42
:10271300C2FF041208EAAEFF041208EAA4FF04127F
:1027230008EA37FF041208EA68FD041208EA26FDE6
:10273300041208EAC6FC041208EA03FC041208EABD
:10274300DFF8041208EA81F6041208EA51F60412CB
:1027530008EA01F6041208EA9BF5041208EA5AF59E
:10276300041208EA8CF4041208EA26F4041208EAB4
:10277300C5F3041208EA65F3041208EA03F204122B
:1027830008EA97F1041208EAEBF0041208EAE6F00B
:10279300041208EA75CD051208EACFF0041208EA1C
:1027A30042CD051208EAC6CC051208EA2BFA051237
:1027B30008EAF7F9051208EAA0F9051208EA42F84F
:1027C300051208EA9AF0041208EA2CED041208EA4A
:1027D30029ED041208EA10ED041208EA9CF7051229
:1027E30008EA05ED041208EAD4EC041208EAFBEA4D
:1027F300041208EA6EEA041208EA2AEA041208EA52
:1028030031F7051208EA9FE9041208EA9E800312D1
:1028130008EA3AF0051208EAE5EF051208EAB8EF0C
:10282300051208EA85EF051208EA5DEF051208EACA
:10283300FEEE051208EADEEE051208EAA9EE05121D
:1028430008EA6DEB051208EA42E9051208EA32E7E5
:10285300051208EAAFE6051208EA63E6051208EA7C
:1028630017E6051208EA16F7051208EA71E50512DC
:1028730008EA24A00600000080FBE4738F00010037
:102883005719870001005519350004001B1925004D
:1028930002001F1926000200211927000200231934
:1028A300280001002D19290001002E1984000400BD
:1028B300F715860001008F182A0001002F192B003D
:1028C300010030192C00010035192D0008000516F0
:1028D3002E00010036192F000100371930000100C6
:1028E3003819310001003919320001000D16330087
:1028F30001000E16340001003A19360001000F16CC
:10290300380001003B19390001003419830002002B
:102913005319630001001A166400010031196500A0
:10292300010032196D0001001B1671000800FD152E
:1029330066000100521943000100431944000200DC
:102943004419450001004619460002004719470093
:10295300080012164800010049194B0001004A19EA
:10296300040001005619A10001005A1937000100A3
:1029730059198800010058193C00010010163D0048
:1029830001003C19490002004B19670001001C16A5
:102993004D0002004D194E0001004F194F00020077
:1029A30050193E0001004219510001003E19520026
:1029B30001003F1953000100411954000100111691
:1029C3000000000000000001363601010001020191
:1029D30000010301000104010606050200000701CE
:1029E30000340801000F090401010D0100FF0E0866
:1029F300000017020000190100FF1A0100011B016A
:102A030000FE1C0100081D0200001F01000120013F
:102A13000001210200002301000F2402000026010F
:102A2300000127010008280200FF2A0100072B01EB
:102A330002402C0100002D0100012E0100012F0195
:102A430000FF30010B1D310800003A0100083B0173
:102A5300000F3C0100013D0100FF3E040000420461
:102A63000000460400004A0400004E040000520423
:102A73000000560400005A0400000103710301031F
:102A830001030103010301032203020301031003F2
:102A930000030003000300030003000300034203D9
:102AA30000032403060300030003040312032503A6
:102AB3002303250323030403040300030003000388
:102AC30044030003000323030003650321003503CC
:102AD3008103000305030003000300030003250330
:102AE300230303027102300160021102700201022A
:102AF300020202028002100261023A0041006302F4
:102B030073027202620243020002130238000002DF
:102B13000002040212020002000200020002040288
:102B23000402370037003C0244020002390000026D
:102B330000026502000235028102000205028202E0
:102B4300830200020304710402046004110470048C
:102B530002040204010402041004610400041404C6
:102B6300630473047204620443040004130406043C
:102B7300000400040404120400040004000400041C
:102B8300510464000004000400044404000400042D
:102B93000004000465040004350481046400050492
:102BA300000483040004030071003001600011007D
:102BB3007000310220035004800010006100000007
:102BC30014006300730072006200430000001300EE
:102BD30006000000000004001200000000000000D6
:102BE300000004000400370037003C0244000000EA
:102BF30000000000000065000000350081000000B7
:102C030005000000830000000101710101010101C1
:102C13001101010131010101010180011001610173
:102C23003B0014006301730172016201430100015F
:102C3300130106013D0135000401120100010001E9
:102C43000001000104010401330133013C0144018B
:102C530032013600000100016501000135008101E8
:102C63000001050182018301000121001000208180
:102C7300A0182100110043810000210012002083CD
:102C8300A118210013002083A2182100140020831F
:102C9300A3182100150043813E04210016001A8168
:102CA300A418210017001A81A718210020001883F7
:102CB300400421002100F183AA1821002200F1839E
:102CC300BA182100FDFF2181CA1836000100060051
:102CD30000000F00000000000000000000000000E2
:102CE30003FFFF00000403FFFF0000FFFF0FF401D9
:102CF3000005C4040320000100000B0000000000D5
:102D030000000003010F00000000000000000000AD
:102D130000000000000000000000000000000000B0
:102D230000000000000000007414B0147A149C1317
:102D33008014B6148014C21486149C138014B61421
:102D43000000000000000000000000000000000080
:102D5300000000008C149C139214C81498149C1344
:102D63000000000000000000000000009E14DA14C0
:102D7300A4149C139E14DA14A4149C139214C81460
:102D8300AA149C13130074171F007A171F8080174F
:102D93000000E6170100E6170200201702801A1749
:102DA3000300261704002C17048032170500381778
:102DB300060044173100561733005C1734006217BE
:102DC30036006817FFFF00000A0000000200000041
:102DD30004000000080000001000000020000000B4
:102DE300400000008000000000010000000200001D
:102DF3000004000000080000001000000020000094
:102E030000400000017A2006AA2008A4200BC82055
:102E130010F61C0280200598200786200C62200DE6
:102E23006E2064E61AFF000007ECFDFDFDECDCDC20
:102E3300CCBCACAC9C9C8C7C7C6C6C5C5C5C4C4C6F
:102E43003C3C2C2C1C1C03EAF5E5D5D5C5B5A59552
:102E5300958585757565655555454535352525151F
:102E6300150500160F00000B150B020002220F338D
:102E730000000E0F5A6967426565416C6C69616EAB
:102E830063653039D0D1D2D3D4D5D6D7D8D9DADB0C
:102E9300DCDDDEDF5A6967426565416C6C69616E32
:102EA30063653039C0C1C2C3C4C5C6C7C8C9CACBAC
:102EB300CCCDCECF303016181920231A1C1E30303B
:102EC3003017181921301B1D1F3000011916181651
:102ED3001618230300003C40423A3F3F392F473046
:102EE30000034D4C4651181A2505020C0E020B0423
:102EF3000B0A0708000F0204020101010109020085
:102F0300BE040AE80300000E00E80300000100030A
:102F1300007F000000030404040005030A0C1008EA
:102F23001E080C28FF10000209033C0C05081509B4
:102F33001EE4F0A3F0A3F0A322122F34F022901783
:102F43008112454012246422122F4F22E0F508E437
:102F5300F509F50AF50B22E824FBF582E934FFF5C0
:102F63008322E82411F582E439F583E022F5831204
:102F73002F7622E0F508A3E0F509221226E0740477
:102F83001209537F080206A17401F09005ADE064B5
:102F93000F2274091209537F040206A1EA2413FACB
:102FA300E43FFB12260EE922790512261A74062243
:102FB300A3A3E024F5C39413221226EC9005CD12AB
:102FC30064FE7A147B0022C082C083901760745819
:102FD300F0A37424F0A3746AF0A37424F09017642C
:102FE3007440F0A37424F0A3743AF0A37424F0A300
:102FF3007476F0A37424F0A3747CF0A37424F0A378
:103003007470F0A37424F0A37428F0A37424F090D4
:103013001770744CF0A37424F0A37452F0A37424B7
:10302300F0A37446F0A37424F0A37482F0A3742471
:10303300F0901781124F0F600990178112453C12CF
:10304300125E90177E1248567408125BABA3F09081
:10305300182AF0901783F07C0BFDF97A847B171202
:1030630011A47C0B7D0079007A8F7B171211A402C7
:1030730046B074F712048C74F71209EBEAFEEBFF07
:1030830012310874051249747403F012321F124985
:10309300562430FCE43FFD8C82123100123114605F
:1030A3000812392D74FFF0A3F0EE242EE43F1C1C0C
:1030B300FD8C82F583A3E0C0E08A828B83124608ED
:1030C300D0E012311488828983124E432403F0EE38
:1030D300123937120C397403F09005C21207707459
:1030E300021209CB123501120953E9F5087007EEF4
:1030F300FAEFFB1224F4A9087409023946F583E0B8
:103103008882898322EA12310D221250523FF583BD
:1031130022125E2B124962E8F0A3E9126102E02257
:1031230074F012048CEAFEEBFF8C0C8D0D890B12EC
:10313300321FF58312496A7410120C39E0F508A3A3
:10314300123102F0E824FFF582E9123513E508F0A5
:10315300E824FEF582E9123513E50BF09005C7E08C
:10316300C0E0E824FDF582E9123513D0E0F09005C4
:10317300C6E0C0E0E824FCF582E9123513D0E0F0A4
:103183007412120C39122F72122F5AE509F0E82427
:10319300FAF8E934FFF98882F583E508F0EE2404B0
:1031A300FCE43FFD88088A828B83E0F50E8C828DD8
:1031B30083E0250EC39508125E2B124790850C827F
:1031C300850D83A3A3A3A3A3A3A3A3E0640370090F
:1031D300EE124944F0A3E48003123518123520742B
:1031E30009F0750884750917750A00780812092112
:1031F3001258F51209537508FF7509FF780812096B
:1032030025AC0CAD0D123501120953E9F508700711
:10321300EEFAEFFB1224F4A908022F86EA2402FA3D
:10322300E43FFB8A8222C082C0839017A0E0C3944C
:1032330008400474078001E08A828B83F0333333C0
:1032430054F8F90246B074F012048C8A088B098989
:103253000A8C0E8D0F750C00A2AFE433F50BC2AFD1
:1032630090179A804512334B503D123365640370B7
:1032730036E50824F9F508E50934FFF5098E828F50
:1032830083A3A3E02405FCA3E03400FDAA08AB0953
:10329300121348E50824FFF508E50934FFF509741E
:1032A30010250CF50C150A12373A1268B3E50A60BB
:1032B30004EE4F70B0E50BA2E092AFA2AFE433F59A
:1032C3000BC2AF90179A803E124E1C8882F5831270
:1032D3004090850882850983F08A82898312335C52
:1032E300A3A3E0C0E0E50824FFF582E50912351346
:1032F300D0E0F0E50824FEF508E50934FFF50905FB
:103303000C150A12373A12358E60211233656402A6
:1033130070F112334BEE40B0124A8BA2E550E485B4
:103323000E82850F837401F0E50A70D7E50BA2E0E6
:1033330092AF850882850983E50CF0E50824FFFA3E
:10334300E50934FFFB022F86123351A2E622EE2455
:1033530011F582E43FF583E02212336022124E61BD
:10336300A3228E828F83A3A312460C125538227494
:10337300F012048C74F31209EB7403120C39E9F0A4
:103383007402120C39EAF08B0B851882851983E4D9
:10339300F0041209C312240AE9F89005ACE02924C9
:1033A30037F508FA7B001211C28A0C8B0DAE0CAFF5
:1033B3000DEA4F70030234F8EA2402F50EE43FF5F8
:1033C3000FA808EA28F8E43BF9850E82850F8312DB
:1033D3003E8C9005ACE0F9FAC3E49AFA95E0FB85DC
:1033E3000E82850F83E02AF50CA3E03BF50D9005D3
:1033F300AA122F72750A007808120921E9FC7D00D0
:10340300AA0CAB0D1248C6120953AC18AD197401BE
:10341300120C39E0F9E50C24FFFAE50D34FFFB1239
:1034230024108A828B83E4F0E50BC454F0F99018DE
:103433002BE0C4333354C0F89005A6E0A2E0E43394
:1034430013134849440FC0E0EA24FFF582EB123519
:1034530013D0E0F0EA24FEF50CEB34FFF50D740312
:10346300120C39E0F87402120C39E0C454F04885A8
:103473000C82850D83F0A80C850E82850F83125B69
:10348300782AC3988E828F83A3A3A3A3F0850E8289
:10349300850F83E8F0A3E50DF0123518123520E40B
:1034A300F0740C120C39E4F075088F75091778085D
:1034B3001209211258F5120953851882851983E0E0
:1034C3006009EE240E124A8D4408F01225FCE9F936
:1034D300E4F508F509780812092574061209CB12D8
:1034E3003503120953E97006EEFAEFFB800BEEFA8F
:1034F300EFFB1211C87A007B00740D022F8379034E
:10350300EEFAEFFB122614740222EE24FFF582EF8B
:1035130034FFF58322EE12310DE4F0A322F01235CD
:103523002522EE1258183FF5832274F212048C8A76
:103533000C8B0DA2AFE433F50AC2AF750800750911
:103543000090179A802C12374A5024850C82850DDF
:1035530083A3A31259088E828F83A3A312453C121F
:103563002602E9600A123745C2E6F08E088F091277
:10357300373A12358E70CFE50845096006123627B3
:10358300D2E6F0E50AA2E092AF800DE0FEA3E0FFF1
:10359300EE4F2274021209537F060206A174F01241
:1035A300048C8A0E8B0F8C0C8D0D750A00A2AFE470
:1035B30033F50BC2AF7E007F0090179A8010AE08E0
:1035C300AF0912361F124A8BD2E7F012451A124581
:1035D3002E6034123627A2E750F1850882850983CD
:1035E300A3A3120770AC0CAD0DAA0EAB0F122608E5
:1035F3007402120953E960D3EE4F60C21239C170ED
:1036030006123639D2E4F0E50BA2E092AFEE4F603A
:10361300061224EE750A01A90A022F86123351D22B
:10362300E4F0EE22E5081258323509F583E022AAC8
:1036330082AB831213488E828F83A3A312460CE0BE
:103643002274F212048C74FE1209EB750C00750DD2
:1036530000851882851983E4F0A3F0A2AF33F50A3D
:10366300C2AF90179A1268B3802BEE24FBF582EF5A
:1036730034FF122F70780C120925123728120953C0
:10368300EEFCEFFDAA18AB191211E6AE08AF0990D4
:1036930017A0E014F0EE4F602B12374A501DEE24B2
:1036A3000BF8E43FF98882F583E024FFF0A3E034CC
:1036B300FFF088828983124F0F60AF8E0C8F0D123B
:1036C300373A80A1E50AA2E092AF9017A0E0602C00
:1036D3009005ADE0640F600690182AE0701E7A78BA
:1036E3007B171226EC908AB512076C7A787B171237
:1036F3004738120953800574F0124619AA18AB19FA
:103703001211EC8A088B09AE08AF09EA4F60131255
:10371300241C123745A2E28E828F83A350D974E909
:1037230080D7023596EEFCEFFD7A9A7B171211F8DB
:103733007402228E0A8F0BEE24FBF582EF34FFF521
:103743008322EE12335222123351A2E72274F7126C
:10375300048CEAFEEBFF12241C12460512287DE9B5
:1037630064019005C9700AE02401F8A3E0340080E5
:103773000312458BF9124C8D1247909017A0E070FD
:103783001F9005ADE0640F70177A787B171226EC53
:10379300908AB512076C7A787B171247381209534F
:1037A300A8A8C2AF9017A0E004F0E8A2E78004E560
:1037B30008A2E092AF024B9B74F712048CEAFEEB73
:1037C300FFEA1237F1F012241CEEFCEFFD7A9A7B2C
:1037D300171211F2A8A8C2AF9017A01240DF9005EC
:1037E300ADE0640F700579081225B4024B9B1233C8
:1037F30052C2E42274F712048C74EA1209EBEAFE53
:10380300EBFF9005A6E0602A851882851983740171
:10381300F0120C39E41238AC120C39123632C0E013
:10382300740A120C39D0E0125B98740B120C391223
:103833004DF8741602394674F712048CEAFEEBFF56
:103843001223FEE9F974DC69601E74DD6960197482
:10385300E469601474F369600F74DE69600A74DFED
:1038630069600574DB697007EEFAEFFB1225BA0293
:103873004B9B74F712048C74EB1209EBEAFEEBFF1B
:1038830085188285198374061238AC120C39AA8202
:10389300AB83121348EE2408FCE43FFD740A120CB8
:1038A30039124DF87415023946F0EA2413FCE43F4B
:1038B300FD74022274F712048C74F71209EBEAFE0A
:1038C300EBFFEA2430124A8D605DEA123937120C9D
:1038D300397403F09005C212077012392D12077064
:1038E3009005D5E0F974041209CBEEFAEFFB12242C
:1038F300047404120953E9F974DC69602374DD6903
:10390300601E74E469601974F369601474DE69609D
:103913000F74DF69600A74E869600574DB69700716
:10392300EEFAEFFB1225BA0230FBEE242EF582E409
:103933003FF58322125D09AA18AB191213487408C4
:10394300227403120953024B9B74F212048C8A0CE7
:103953008B0D750A00750B007508E7A2AFE433F50C
:1039630009C2AF90179A800312373612358E60253D
:1039730012374A50F31239C170EEEE2432123B581B
:10398300E06870E4780A1209251237281209539067
:1039930017A0E014F0E509A2E092AFEE4F6013EE3A
:1039A300FAEFFB12241C79F0EEFAEFFB1225BA753D
:1039B3000800A908AA0CAB0D1225BA02359B1235D3
:1039C30025E064012274F412048C74F71209EBEA03
:1039D300FEEBFF8A82F583A3E064F37003023A6689
:1039E3008A828B83A3E064DF60798A828B83A3E07E
:1039F30064E8606F8A828B83A3E064DB60651224D2
:103A03005EE9F5087055EE240E124A8D604D123AA8
:103A13007060487408120C39123A7F1207707508E7
:103A2300FF7509FF78081209258E828F83A3A3A34C
:103A3300A3A3A3A3A3E0F974041209CB122404746F
:103A430004120953E9F50874F369600F74DF6960C0
:103A53000A74E869600574DB69700F8E828F83A333
:103A6300E508F0EEFAEFFB12246A022F95EE240F1D
:103A7300FAE43FFB79091224A0EA4B2274021252A2
:103A8300FE74FFF0A3123A8C22124E4CA3A32274AD
:103A9300F112048CEAFEEBFF7508008A82F583A31A
:103AA300A3A3A3A3A3122FB340037508E88A828BB1
:103AB30083A3A3A3A3A3A3A3A3A3A3E0C39410409B
:103AC300057508E880138A828B83A3A3A3A3A3A30A
:103AD300A3A3A3A3E0640F600B901807E05408703E
:103AE300037508E8EA240B123B58A3A3A3A3A3A3DB
:103AF300A3A3E0C398500DEA240B124A8D640F6010
:103B0300037508E89005C6E0F47003A3E0F47003BE
:103B13007508EC7A237B001212588B0BA90B9017B4
:103B230081123B6760278E828F83A3A3A982AA8316
:103B3300890C8A0D750E00780C1209217C237D00F7
:103B4300901781E0FA1248C6120953800375081AC8
:103B5300A9080258F0F582E43FF583E0F88A828BE6
:103B630083A3A322EAF0A3EBF0EA492274F512043B
:103B73008CEAFEEBFF8A82F583A3A3A3A3A3A3A3EB
:103B8300A3E09005AD123BFFE09005C8F0EA240BDB
:103B9300124A8D9005A8123BFFA3E090182BF0F971
:103BA300120FE290182BE0600BEE2404124A7F24DC
:103BB30006123BF590182A122F8B600474018002C1
:103BC30074009017831262431209217C0B7D007AE3
:103BD300847B171248C6120953EE2418F508E43FF4
:103BE300F50978081209217C0B7D007A8F7B170277
:103BF30048B3FAE43FFB79E1120FCA2212622DA304
:103C0300A3A3A32274F712048CEAFEEBFF8A82F5C6
:103C130083A3E07003122F41125DB4024B9B74F730
:103C230012048CEAFEEBFF901781124F0F60109085
:103C3300178112453C901781E4F0A3F012125E8EB7
:103C4300828F8374081246201219CC024B9B74F6A0
:103C530012048C90182AE06010901783E0700A1207
:103C63003C6FEA4B60031224F4025EAE9005A8E0B9
:103C7300FB9005C8E0FA9005ADE0F9122416227412
:103C8300F412048C74E71209EBEAFEEBFF750B01E7
:103C93008A82F583A3A3A3A3A3A3A3E0A2E250690B
:103CA300EA242BF582E43F125906EA2413FAE43F8F
:103CB300FB122422E97052908A01E06401700575B9
:103CC3000B008045123D411209217C0B7D007411CC
:103CD3001209C31248C61209531225FCE9FA740EDD
:103CE3001209BB88088909780812092575083075F7
:103CF30009007808120925EE125B61120770125C45
:103D0300FB7901122FAD120953851882851983742B
:103D130010F0125CFB7402120C39AA82AB831213EB
:103D23003CEE242B1264F4740B120C39124790747A
:103D33000D120C39E50B125F6D7419022F97EE24E7
:103D43000812624B22C082C08390182BE0600312DA
:103D5300266E0246B0C082C0839018227460F0A31E
:103D63007417F0A37464F0A37417F0A37470F0A332
:103D73007417F090196D7447F0A3742BF090180C1E
:103D830074F8F0A37423F09017A5742EF0A3742491
:103D9300F09017A77434F0A37424F0901807E0444C
:103DA300020241B4C082C083EAFCEBFD7903024EF8
:103DB300BBC082C083790802602EC082C08374FEB8
:103DC3001209EB9017AD74DCF0A37424F09017AFD5
:103DD30074D6F0A37424F080077A9A7B17123E19E5
:103DE30090179A124F0F70F190179C124F0F6009A2
:103DF3007A9C7B17123E1980EF90179AE4F0A3F098
:103E03009017A0F0A3F0A3F09017BB7418F0A3745D
:103E130025F07402801C1211EC851882851983EA3F
:103E2300F0A3EB123E2D1225EA22F0AA18AB1922B9
:103E330074111209530246B074F612048CE9FF742C
:103E4300D829F582E4342EF583E493FEFA7B00123D
:103E530011C2EA4B6007EA2E123E8980267A027B62
:103E6300001211C2EA4B601774C22FF582E4342E9C
:103E7300F583E4938A828B83F0A3741A1242527AF5
:103E8300007B00025EAE12477FE8125E28A3A3A365
:103E9300A3E4F022E9FC740629F8EAA2E0501EE844
:103EA30075F00A84E5F0F96014740A28C399F8E9F7
:103EB300C394054004740A28F8740B28F8ECC394DF
:103EC300134004791480027906E82979002409F85B
:103ED3005001097A0A7B0012033CE8F90208E7C0A3
:103EE30082C083901807E05402600A1219D2E96075
:103EF300047901800279000246B0C082C083901821
:103F030007E0540260149017A0E0700A124F0C608F
:103F130009123F2250047901800279000246B0124F
:103F23002F65A2E722C082C0839089FEE0F8901734
:103F3300A2E0C39850051211C280047A007B0002EC
:103F430046B0C082C0831225EA79000246B0C0821F
:103F5300C08374FE1209EB851882851983EAF0A3E6
:103F6300EB1240BBA3A3A3A3A3E0600A14605724EE
:103F7300FE605A02402B9005ADE0640F60121225DB
:103F8300C0E9700C1245369017A912460812287D15
:103F93009005D5E0C0E0851882851983124E2FD095
:103FA300E01240BB741412584CFCA3E0FD7A9C7BD6
:103FB300171211E6A8A8C2AF9017A21240DF79200A
:103FC3001225B4023E15124389741580D912438910
:103FD300A3A3A3A3E0605112438912363DC0E08539
:103FE3001882851983E02406F582E43BF583D0E04B
:103FF30012584C2402F8A3E03400F98882F583E0D8
:104003002401FAA3E03400FB88828983EAF0A3EB5E
:1040130012584C1243C985188285198360131240C4
:104023009060051240A24048AA18AB191225EA80F5
:104033009212409060F21240A250211240AFFA85D2
:104043001882851983A3E0C82406124385F874F8FF
:10405300125044342EF583E4936A601485188285E4
:104063001983124090640870BF1240AF640870B89F
:104073001240AF141240C3240AC0E0851882851988
:1040830083124608D0E01240C304023FA9124094B1
:104093002212458BC82406F582E438F583E0228595
:1040A3001882851983124094C3940A228518828545
:1040B3001983123360A3E0221240CDF58388822254
:1040C3001240CDC824061243B322F0851882851905
:1040D3008312458B22A8A8C2AF9017A1E004F0E891
:1040E300A2E792AF22C082C0839017B1124F0F6034
:1040F3000812439012287D800279000246B074F7BB
:1041030012048CEAFEEBFFEA123526740112473ED5
:10411300F8A3E0F9123108124790EA2435124A8DC8
:10412300C0E0EA2413F582E43FF583D0E0F0EA240B
:1041330036124A8DC0E0EA2414F582E43FF583D0B9
:10414300E0F0EA2438124A8DC0E0EA2418F582E44C
:104153003FF583D0E0F0EA242FF582E43FF58312A4
:104163000770125D08EA2431124A8DF912350712DD
:104173000953E9F5087007EEFAEFFB1224F4A908D6
:10418300024B9BC082C0831225C0E9600479208062
:104193000279010246B0C082C083EA24111241AA07
:1041A300D2E0800DEA240DF582E43BF583E022F0B2
:1041B300A3F00246B0C082C0831241A7640170110C
:1041C30012424C400C8A828B83A3E0F91225BA80F9
:1041D3006612423DA2E650128A828B83A3E0F990D5
:1041E30017AB12460812287D804D1241A764017057
:1041F3000D12424C50088A828B83743080368A8237
:104203008B83A3E0641B8A828B83700474228024D3
:10421300A3E0700D1241A7F874B7125044342E80F6
:104223000B1241A7F874C2125044342EF583E49361
:104233008A828B831242520246B012424122EA24FE
:1042430010F582E43BF583E022124241A2E322F01F
:10425300901802E0F91211CE2274F712048CE9FED1
:10426300124F0C7003024382EE6014741B6E701ABB
:10427300E812581839F583E06405700302435A9035
:1042830017A4124390A3E402436174E96E7068E8D3
:104293002412F582E439F583E0700B1219D8E96032
:1042A300051243D3606179EE120F4C9017A31243AA
:1042B300AA9017A3603A1243D69017A3700B124328
:1042C300AA14F01211020243821243C8C2E7124534
:1042D30071240D124385640370091243A312452709
:1042E300D2E2F079ED120F4C1243BB12287D807895
:1042F30012439674E9806774E16E703E1219D8E92F
:1043030060551243D370509005CFE0C0E01243A331
:104313002412F582E438F583D0E0F09005BEE0C0C6
:10432300E09017A312439F12439FD0E0F09005BE85
:10433300E004F079011210EA8045741C6E70189045
:1043430017A312453C9017B312460812287D901705
:10435300A3E4F0A3F080289017A3124396EEF09005
:1043630017A312453C1224E2124552E05480600325
:1043730012601D9017A3E4F0A3F079101225B40284
:104383004B9B1243B322851882851983A3E0F583DF
:1043930088822212439A22124610A322124E5D22D1
:1043A3009017A3124E3E22124E3E24121243B32202
:1043B300F582E438F583E0229017A3124540901765
:1043C300A712460C22E0F8A3E0C824101243B3223C
:1043D3009017A3124559E054042274F412048C7507
:1043E3000A00750B00A2AFE433FEC2AF124F0C609C
:1043F300030244D012460512287DE94410F89017B1
:104403009A800985080A85090B12451A12452E70F0
:10441300030244D0123627586870E8780A12092537
:10442300AC08AD0912372C1209539017A3E508F015
:10443300A3E509124571124527A2E750030244D7A9
:104443009017A1E014F0EEA2E092AF9017A3E0243E
:104453000EF8A3E03400F9E8FEE9FF8882F5831241
:10446300453C9017A31240B5F91224A6E990179E74
:10447300125BAB8E828F83E0548060181243A324B7
:1044830013124385F91210061243A3241412438511
:10449300F9120FFA124552A3E05401605F90179E80
:1044A300124F0F60451245686040124568F8790065
:1044B30090179E12453C120344E8C0E0124546D0D3
:1044C300E0124576C3941340117402800FEEA2E00C
:1044D30092AF80379017A00244467400C0E0901753
:1044E300A4E0C8124511D0E0800D124546740112B4
:1044F30045711245117401F07903800C9017A312D2
:1045030043C8A2E1B3E433F91210EA022F9A241A42
:10451300F582E438F58322E50824FBF582E50934C6
:10452300FFF583221258321243B622122F76E50882
:1045330045092285188285198312454022E0FAA392
:10454300E0FB22124E3B2419F582E438F5832290D6
:1045530017A31245592212458BC8124561221250E6
:104563005238F58322124E3B24181243B3221245CC
:1045730083C822124583F5838882A3A3A3A3E022E1
:10458300F09017A312458B22E0F8A3E02274F712F0
:10459300048CEAFEEBFF1225E4124A8AA2E3400AE6
:1045A3001239C170059089FC80039089FDE0F9EE12
:1045B300FCEFFD7A9A7B171211FEE96038EEFAEFF1
:1045C300FB9017AD12460812287DEE240E124A8D79
:1045D300540470121240D8EE123109A3E054017052
:1045E3001E1224EE8019EEFAEFFB9017A51246086F
:1045F30012287D800A8E828F83A374F112461902DA
:104603004B9B9017AF12460C2212461022E0F8A3E0
:10461300E0F5838882221246201224E222F0EEFA89
:10462300EFFB220246A974F712048CEAFEEBFF7932
:1046330000901807E05402700CEA2433124A8D5498
:1046430004600279E8901807E05460700CEA2433A0
:10465300124A8D5402600279E88A828B83A3A3A352
:10466300A3E0F8908A02E0C398500279E8EA243183
:10467300124A8D700CEA242E124A8D700479F5804B
:104683000BE970051224D0E9F9E96007EEFAEFFBB4
:104693001225BA024B9BC082C0838A828B83740D1E
:1046A300F01219CC8007C082C0831224EED083D0CD
:1046B300820208E774F412048CEAFEEBFF8A82F5A7
:1046C30083E4F0A312473E54049089FC7012E0F88F
:1046D3009017A1E0C398401279F11225BA022F9ADC
:1046E300E0F89017A0E0C39850EE124744A3E054BB
:1046F300016037EA2437124A8DC394054033EA2414
:1047030033124A8D540570297AB57B171226ECEEC5
:104713002437F582E43FF583122F4B780812091DE5
:104723007AB57B17124738120953EEFA12513580C6
:10473300AC79E880A51226E0740422F0124744E025
:1047430022EA2433F582E43FF5832274F612048CC3
:10475300E9FE2451FAE43400FB1211C2EA4B60155E
:10476300EE8A828B83A3A3A3A3F0EA245112477F8B
:1047730012479080047A007B00025EAEF8E43BF9B6
:104783008A828B83A3A3221264FE90187FE8F0A38E
:10479300E9F0220246A9C082C0839017BE7442F09A
:1047A300A37425F0A37472F0A37425F0A37448F0E6
:1047B300A37425F0A3744EF0A37425F0A3746CF0D6
:1047C300A37425F0A37460F0A37425F0A3745AF0C6
:1047D300A37425F0A37478F0A37425F0A3747EF07A
:1047E300A37425F0A37484F0A37425F0A37490F04C
:1047F300A37425F0A37454F0A37425F0A3743CF0C0
:10480300A37425F0A37436F0A37425F09017DA741B
:1048130066F0A37425F0A3748AF0A37425F0A3743F
:10482300A4F0A37426F0A37496F0A37425F0A374E4
:104833009CF0A37425F09017FEE4F0901801F0901B
:1048430017EA1248567402F09017F312485674018F
:104853000241B474B4F0A37425F0A32274F51204D6
:104863008C74F11209EB8518828519837402F07434
:1048730001120C39E9F060047AFF7BFF7402120C19
:10488300391252F37508F6750917750A007808127C
:1048930009217C0B7D007407120C39AA82AB8312A9
:1048A30048C6120953AA18AB191219CC740F800306
:1048B3001248C61209537F030206A17C0B7D007ABE
:1048C300F67B1712119274032274F712048C74FD91
:1048D3001209EB851882851983740AF07401120C8E
:1048E30039E9F07402120C39EA125F6D023944742B
:1048F300F612048C74F71209EBEAFEEBFFEA124995
:10490300441249747402F0EA2428FCE43FFDAA1817
:10491300AB1912133CEE243112494A243312596C59
:1049230012092574021209CB79831A1A123505125A
:104933000953E9F5087007EEFAEFFB1224F4025E5F
:10494300A712310D740122F582E43FF583122F760D
:10495300124E14F583124962E8F0A3E9F0EE221235
:10496300496A8A828B8322E024FFF8A3E034FFF9AB
:1049730022F0A3E4F0EA1235262274F012048C121A
:1049830063DC120BE27808790C12039D7808120994
:104993001D7AED7B17022F7E74F412048C74C612F9
:1049A30009EB9005ADE0640F600D851882851983CE
:1049B300742E12531280227AE47B17122FBC120337
:1049C3004488088909E4F50AF50B780812091D7A69
:1049D300E47B17124738120953743A022F9774F580
:1049E30012048CEAFEEBFF8A82F583A3E0F8707869
:1049F300EA2430124A8D64026007E064036002789F
:104A0300E8EA2426F582E43FF583122FB5400478C3
:104A1300E88058E87052EA2426123BF5EE2431125E
:104A23004A7F2430124A8D6402700EEE24281264E9
:104A3300F49005BC12479080179005BC74FEF0A358
:104A430004F0EE2428FCE43FFD7AB37B05121348FF
:104A5300EE241B123D441209211248BE120953EEE3
:104A6300FAEFFB122530E9F8E8600EE88E828F83B7
:104A7300A3125D107417125DBA0248B9FAE43FFB42
:104A83007950120FCAEE22EE2410F582E43FF5832B
:104A9300E02274F612048C74F71209EB901801E00B
:104AA30070377401F0F91210B4AA18AB191225F675
:104AB3007508F6750917780812092575080175092F
:104AC3000078081209259005C212077074061209AE
:104AD300CB7A03122FAB120953025EA974F71204A7
:104AE3008C124CBB7004A374EBF0901801E0A2E2AB
:104AF3005003C2E2F0E0A2E15005124CCC80098ED3
:104B0300828F83742A125DBA024B9B74F412048C55
:104B130074FE1209EB124BC1124E07EC8518828505
:104B23001983124E56E0F50B7015AA18AB19795379
:104B3300120FCAEE2413FAE43FFB794A120FCA128A
:104B43003D411209211248BE120953124536A90BE1
:104B5300122524901801E0A2E15003124CD39018BF
:104B630001E4F07402022F9774F712048CEAFEEB4F
:104B7300FF8A82F583A374EBF0901801E0A2E15061
:104B8300077A0079EB12252AEEFAEFFB12256080F3
:104B930007EEFAEFFB1226627F010206A174F712F9
:104BA300048C124BC19017FEE4F0901801F07AFFC9
:104BB3007BFF8E828F83A3E0F912252480DA124DC6
:104BC3000C7AED7B171226EC2274F712048CEAFEA2
:104BD300EBFF12255A80BA74F712048C124D49A3C5
:104BE300A3A3E060047400800274EB124C1A500318
:104BF300C2E2F0E0A2E15005124D1D8011A2E05087
:104C03000D8E828F83742AF0A374EB125DBAEEFAD1
:104C1300EFFB12250680818E828F83A3F09018010B
:104C2300E0A2E22274F612048CEAFEEBFF90180174
:104C3300E0D2E1F079011210B48E828F83A3E07089
:104C4300381225FCE9FAEE240DF508E43FF509785E
:104C5300081209257508017509007808120925123B
:104C63004C8D120770EE2402FCE43FFD122FAB12B1
:104C73000953E98E828F83A3F08E828F83A3E06032
:104C8300067A00F912252A025EAEEE240BF582E4C1
:104C93003FF5832274F712048C124CBB7004A37487
:104CA300EBF0901801E0A2E25003C2E2F0E0A2E1CF
:104CB3005003124CCC024B9BEAFEEBFF790112101E
:104CC300BA8E828F83E0642022C2E1F0124CD32299
:104CD3007A008E828F83A3E0F912252A2274F712B9
:104CE300048C124D0C8E828F83A3A3A3A3E06004D4
:104CF3007400800274EB124C1A5003C2E2F0E0A27B
:104D0300E15003124D1D024C11EAFEEBFF79011233
:104D130010BA7AE47B171226EC22C2E112623EE05B
:104D2300A2E4E433FA124CD52274F712048C124D28
:104D33004974EB124C1F5003C2E2F0E0A2E15003AE
:104D4300124CCC024B9BEAFEEBFF79011210BA8E98
:104D5300828F83A32274F712048C124D6E024B943C
:104D630074F712048C124D6E024B9BEAFEEBFF7A32
:104D7300E47B171226ECEEFAEFFB1225842274F77C
:104D830012048C74EF1209EBEAFEEBFFEA125CFCEF
:104D93007AB37B05121336E9605685188285198329
:104DA3007409F07401120C3974EFF0124E07740297
:104DB300120C39EC124E56A3A3E0C0E07404120C9B
:104DC30039D0E0124E43640870158E828F83A3A3FB
:104DD300124E2FE0C0E07405120C39D0E080067447
:104DE30005120C39E4125B987406120C39124DF853
:104DF3007411023946AA82AB8312262CAA18AB1966
:104E03001219CC22124E14F583124E26FCA3E0F99C
:104E130022EE124E1CFB8882222402F8E43FF9E8BA
:104E2300FAE92212458B8882F583E022124E3E2452
:104E330007F582E438F583229017A312458BC82225
:104E4300124E4722124E4CE022F08E828F83A3A390
:104E5300A3A322125E28124E5D22124E6122E0F8B5
:104E6300A3E0F5838882A3A322C082C08312266EA7
:104E73000246B0C082C08390181E74BEF0A374179C
:104E8300F0A374DAF0A37417F0901967740BF0A30E
:104E9300742CF0A374E5F0A3742AF090180A741E1E
:104EA300F0A37425F0901807E044010241B4C082D6
:104EB300C083EAFCEBFD79021225D20246B074F6F8
:104EC30012048C74FE1209EB901803124F0F600743
:104ED3007A037B181225EA901809E4F0900C661205
:104EE3004F0F60208007AA18AB191225EA90180209
:104EF300E0F91211DA8B09A9098518828519831241
:104F03003B6770E27402025EAB9017A31264FEE883
:104F1300492274F712048CE9FA7B00901802E0F935
:104F2300121204024B9B74F712048C74F01209EBF7
:104F3300EAFCEBFDE9FE8A828B83E0F874EE125003
:104F430044342EF583E493C0E07401120C39D0E0AD
:104F5300F0640B700DE98A828B83A3F01226500252
:104F6300503FE0700302503F640C60030250307402
:104F73001A6E700B7404120C39E4F0A302502F74F0
:104F830004120C391252F3EA24321257FCC0E074B3
:104F930003120C39D0E0126229120C0A7406120CA7
:104FA30039120BFE8C828D83A3A3A3A3A3A3A3A374
:104FB300A31264FA740A120C39E8F0A3E9125049F7
:104FC300E054106009851882851983E48013EC246A
:104FD300121257FCF89005CFE0C398851882851903
:104FE30083F0E0C0E0740C120C39D0E0F0EC24152F
:104FF3001257FCC0E0740D120C39D0E0F0EC24160B
:105003001257FCC0E0740E120C39D0E0F0EC2417F8
:105013001257FCC0E0740F120C39D0E0125049A3B0
:10502300E0540160087401120C397411F074021217
:105033000C39EEF074011209C31219CC7410023941
:105043004628F582E422F0EC1250523DF5832224E7
:105053000EF582E422C082C083901809E0640370D5
:10506300047901800279000246B074F712048C902F
:105073001809E01250E8746528F582741939F5832C
:1050830012557AC2E7F01250EFA3E493FE25E0FC39
:10509300E433FD74652CF58274193D125906EC4D09
:1050A3006005EE901809F08A828B83E025E0FCE42A
:1050B30033FDE82CF582E93DF583E493FCC4540FFA
:1050C30025E0F874181250443418F583124F0F700A
:1050D3000512263E800CEC540F1250EF12460812B4
:1050E300287D024B9B25E0F8E433F92225E0FCE818
:1050F3002CF582E439F5832274F212048C74FE12C7
:1051030009EB890B8A088B0912519A12518B601A89
:10511300125BA5F50A78081209211251A72402127D
:1051230058FC12095312513380031251B9023596B8
:10513300AA0CEFFB901802E0F91211CE2274F012C0
:10514300048C74FE1209EB890B8A0E8B0F12519A91
:10515300F50812518B6027125BA5A808EA28123EB6
:1051630089850E08850F09F50A780812092112515D
:10517300A71258FA120953125133790080051251BC
:10518300B9791A7402022F83FA7B001211C28A0CB6
:105193008B0DAF0DEA4F2274E329F582E4342EF52B
:1051A30083E49322A80B74CD125044342EF583E488
:1051B30093FC7D00EA22851882851983E50BF0793B
:1051C3001AAA18AB191225BA22C082C083E9901813
:1051D300020241B474F612048C74FE1209EBEAFE67
:1051E300EBFFEA542070308039A8A8C2AF9017A211
:1051F300E0141240E18A828B831252E09018051268
:1052030052F31225C6851882851983E06415600759
:105213007A057B181225EA7A9C7B171211ECEA4B6C
:1052230070C7EF5480700C8016901805EAF0A3EB5A
:10523300125306901802E0F91211DAEA4B70EAEE03
:105243005410600B851882851983742D125312EE46
:10525300A2E0500B8518828519837424125312EE31
:105263005402600B8518828519837425125312EE3C
:105273005404600B8518828519837426125312EE29
:105283005408600B8518828519837428125312EE13
:105293005440600D7401120C391252F9742C1253DC
:1052A30012EE5480600D7401120C391252F9742FEE
:1052B300125312901803124F0F601BA8A8C2AF908D
:1052C300180312453C901803E4F0A31240E1A3EA4B
:1052D300F0A3E91253067A007B00024F071252E44F
:1052E30022E0851882851983F022A3A3A3A3A3A395
:1052F300EAF0A3EBF022E41252FE22F08518828535
:10530300198322F01225C67A057B181225EA221288
:105313003E2D1225C622C082C083901805125F68F5
:10532300687002EB697007901805E4F0A3F0024679
:10533300B074F712048CEAFEEBFFEA4F7003120D10
:1053430096A2AFE433F508C2AF8E828F83124F0F5C
:105353006028E824FBFAE934FFFB9018051259088A
:10536300E86C7002E96D7007901805E4F0A3F08E05
:10537300828F83E4F0A3F012125E0237B2C082C0C0
:105383008390182C7432F0A37426F0A37444F0A312
:105393007426F0A3744AF0A37426F0A37400F0A358
:1053A3007425F0A37450F0A37426F0A374FAF0A349
:1053B3007424F0A37406F0A37425F090183A748053
:1053C300F0A37426F0A37456F0A37426F0A3745CC0
:1053D300F0A37426F0A37468F0A37426F0A3746298
:1053E300F0A37426F090182BE40241B4C082C0836A
:1053F3009005BCE064FE7003A3E0F470097CB37D08
:105403000512133C801C8A828B83A3A3A3A3A3A3AB
:10541300A3A37402F09005BC1264FA8A828B8312F0
:1054230047900246B0C082C0839005C6C3E094FE95
:10543300A3E094FF40047903800279020246B0C0DE
:1054430082C0831255838C828D83125538687039DC
:10545300740268701C8A828B83125491E0687029ED
:105463008A828B83A3125491A3E068701C79018014
:105473001A7403687013EC2405FC50010DEA24052B
:10548300FA50010B121342800279000246B0A3A323
:10549300A3A3A3E0F88C828D83A3A3A3A3A3227465
:1054A300F612048C7E00740A120C39E012552CFF9C
:1054B3008A828B83A3A3A3A3A3A3A3A3E06F706494
:1054C30074026F704E8A828B83C082C08388828904
:1054D30083A3A3A3A3A3E0F50888828983A3A3A33B
:1054E300A3A3A3E0FBAA08D083D082E06A7003A33E
:1054F300E06B703088828983A3A3A3E0FA88828952
:1055030083A3A3A3A3E0F9EA6C7002E96D70157E8F
:1055130001801174036F700CE82405FCE439FD125B
:105523001342E9FEEEF9025EAEF8A3E0F98882F5D4
:105533008312553822A3E01313543F540322C0822D
:10554300C0838A828B83A3A3A3A3A3A3A3A3E0649F
:105553000270169005BC12557A687003A3E0697057
:10556300047901800F7900800BEAFCEBFD7AB37BB1
:10557300051213360246B01264FE8A828B83E02240
:105583008A828B83125538F82274F012048C74FCCF
:105593001209EBE9851882851983F07402120C391C
:1055A300ECF0A3EDF08A0A8B0B7508007402120C61
:1055B30039E024081257FCC0E07401120C39D0E022
:1055C30012584CA2E75008750EFF750FFF800A9022
:1055D30005C2E0F50EA3E0F50F851882851983E077
:1055E300C2E71258515420600712581E74088004F1
:1055F30012581EE41258515404600712582974803B
:10560300800512582974101258515410600612580C
:1056130004E4800B9005CFE0C0E0125804D0E01200
:105623005851A2E0500375082054086006741045D1
:1056330008F5088A828B83A3A3E024FFFEA3E0344A
:10564300FFFFEA12580FC39402E0400F640B600996
:10565300E0148E828F8312584274034508F508754F
:1056630009009005E2E0640170118A828B83A3A391
:10567300A3A3E0C3946740037509108518828519B5
:1056830083E0F50C750D00740E780C120B17E50D05
:105693004509F509E06402701B9005C7E08E828F0F
:1056A30083F09005C6E0C0E012350DD0E0F0EE24A3
:1056B300FEFE801CE06403701DEE24F9FEEF34FF50
:1056C300FF7CD67D05EEFAEFFB121348EE24FF1E96
:1056D300EF34FFFF8003E0602F7401120C39E060A8
:1056E300187414120C39E0650E7004A3E0650F7092
:1056F3000874404508F508800F8E828F83E50FF00C
:1057030012350DE50E1258387401120C39E0F50C00
:10571300750D00740A780C120B17E50D4509F50990
:10572300E0640270237402120C39125F638E828F5D
:1057330083F07402120C3912363FC0E012350DD0DB
:10574300E0F0EE24FEFE8020E064037021EE24F9F5
:10575300FEEF34FFFF7402120C39125908EEFAEF10
:10576300FB121348EE24FF1EEF34FFFF8003E060BB
:105773001C7414120C39A3E08E828F83F0741412FC
:105783000C39E0C0E012350DD0E0125838EEF8EFD6
:10579300F9E824FF1EE934FFFFE50A12580F7005EC
:1057A3009005B280039005BEE0FA04F0EA8882898E
:1057B30083125D10E5091258428E82F583E508F0E5
:1057C300E50A2404F8E4350BF9E50A2402FAE43582
:1057D3000BFBEEFC8A828B83E0F50888828983E0E9
:1057E3002508C39C125E2BEEF0A3EFF0850A828599
:1057F3000B83A3E4F0F9022F81F582E43DF583E006
:1058030022EA2412F582E4350BF583221258183567
:105813000BF583E022240DF582E422EA2410F582BD
:10582300E4350BF58322EA125832350BF583222433
:1058330011F582E422F0EE24FEFEEF34FFFF22F0A6
:10584300EE24FF1EEF34FFFF221252FEE022F0EAA5
:10585300125052350BF583E02274F112048C74FE5E
:105863001209EB851882851983ECF0A3EDF0890BFF
:105873008A0E750A1A7415120C3912678D1224A038
:105883008A0C8B0DAE0CAF0DEA4F605A7413120CD9
:1058930039125F68125967F0A3E9124977E50BF0F3
:1058A300750A0078081209217C0B7D00EA1258FA68
:1058B3001209537411120C391207707402120C3945
:1058C300125908A90E123503120953E9F50A701685
:1058D300E50B24F96003147006123745D2E5F0EEA8
:1058E300FAEFFB1224F4A90A74021209537F070288
:1058F30006A17C0B7D00EE241BFAE43FFB12119200
:10590300740322F583E0FCA3E0FD2274F612048CF9
:1059130074F71209EBEAFEEBFF7801EA2432124A2C
:105923008D60027805EA1259671249747404125D96
:1059330003AA18AB1912133CEE242F12494A24313F
:1059430012596C12092574021209CB79031A1A121F
:105953003505120953E9F5087007EEFAEFFB122437
:10596300F4025EA712310DE822F582E43F12310002
:10597300124E4704F078082274F212048C8A088BC2
:1059830009ECFEEDFF8A828B837405F0EC125D9CBB
:105993001260F0F0EA2403F50AE43509F50B850AF1
:1059A30082F583E0F50CA3E0F50DEC2425F582E404
:1059B3003FF583120C0AE50C125832350DF58312AC
:1059C3000BFEEC125CFCAA0CAB0D12133C850A8295
:1059D300850B8312680D125B61125B841252EDEE2C
:1059E300242F124A8DC0E0125B6AD0E0125BB02410
:1059F30015F582E438F583E4125BB0124561E412D5
:105A03005B98850A82850B83E02416FAA3E03400B1
:105A1300FB12262C8E828F83A3A3A3A3A3A3A3E0AD
:105A2300C0E0850A82850B831243A612581838F505
:105A330083D0E0125B8FFAA3E0FB850A82850B8398
:105A43001264FAE8240BFCE439FD8A828B83E08C30
:105A5300828D83125BAB8A828B83A3E0F50B8C82EE
:105A63008D83A3E0450B125E23A3E0FCEA2403FA33
:105A730050010BECA2E7E433C0E0E8240FF582E425
:105A830039F583D0E0F074075C6004780180027814
:105A93000075F00374075CA428F8EA28FAE43BFBDA
:105AA300E5082405F8E43509F98A828B831231026B
:105AB300125E23AA82AB838508828509831252ED85
:105AC30088828983E0F50A25E0540EFCE50AC45474
:105AD3000FF50A750B007403780A120B17E50A54C5
:105AE30038F8EC28F8EA28F8E43BF98508828509B8
:105AF30083A3A3A3A3A3A3A3A3A3E8F0A3E9124EA1
:105B030043FA8E828F83A3A3E02AFAA3E03400FB37
:105B1300C3EA98EB9940288E828F83A3A3E0F8858C
:105B23000882850983A3A3A3A3A3A3A3A3A3125BAF
:105B330078C39A28850882850983A3A3A380168541
