:020000040000FA
:06000000020BE6020261A2
:0300130002028363
:03002B000209B017
:03003B000202D8E6
:0300530002019611
:03006B0002083B4D
:100083000201F50100F0FF0700080000FFFF000078
:10009300070400000F010147726F757000FF040031
:1000A300100502640A2FAC092FAC09C0C1C2C3C436
:1000B300C5C6C7C8C9CACBCCCDCECF5A69674265BE
:1000C30065416C6C69616E636530390100FFFFF255
:1000D300E0A1610000000000012A8BFC0C020D0E60
:1000E3000D080D0020FD000206FFFF678AC1894A43
:1000F3008A19361E08040150000001288B0629893D
:100103000B040150000001288B0629897804015053
:100113000000036D8A036D8A78000000941B0001C0
:10012300040200002D16000000E8030000FFFFA5F5
:10013300160103E803000064006400B801A0BB0DCE
:1001430000A0BB0D000202020704010101051E020B
:10015300051E020A0A0101010809080103B80B027E
:10016300803E0102FEFFE8030A05000102040A01C2
:100173001401E0020000000105030101FF0F10FE5E
:10018300FF212C00000000F52A00000000FF000002
:1001930000FF00C0E074F1120512A2AFE433F509C9
:1001A300D2AF85A708AFA1EF5508FE74105E6006B5
:1001B300120F0675A1EF74085E6008120F0C75A18B
:1001C300F78024EFA2E092F0E508A2E082F0501756
:1001D300906198E0F8900596E0C398A2D265D03379
:1001E3005002E8F075A1FEE509A2E092AF7F02029A
:1001F3000571C0E074F2120512A2AFE433FED2AF70
:100203009061A4E0F8759B00E59158540860087567
:1002130091F7120F5A8023E5915854106008759195
:10022300EF120F608014E591A2E092F0E8A2E08261
:10023300F05007E0C2E0F01210AA9061A3E0F8E5E5
:10024300E9585404600E12108075E9FB906193E045
:10025300A2E640F2EEA2E092AF7F01020571C0E098
:1002630074F2120512A2AFE433FED2AF9061A5E09F
:10027300F8E5BF585404600675BFFB1210C280D462
:10028300C0E0C0D0E8C0E0E9C0E0C082C083A8C13C
:10029300E8C0E0900503E0F8748228F582E43404B2
:1002A300F583D0E0F0900502E0F8A3E0687006E57E
:1002B30095900505F0900503E004F0C39480400297
:1002C300E4F0A374C6F0D083D082D0E0F9D0E0F894
:1002D300D0D0D0E032C0E0C0D0E8C0E0E9C0E0C098
:1002E30082C083900586E0F8A3E0687008539AFB08
:1002F300A374018022C2E9900586E0F8740128F016
:10030300740628F582E43405F583E0F5C19005868B
:10031300E0C394804002E4F080ACC3E498F8E4992D
:10032300F912035E8026C3E49AFAE49BFBE920E713
:10033300E912035EE498F8E499F922C3E498F8E437
:1003430099F912035EE498F8E499F9C3E49AFAE49C
:100353009BFB22EB20E7CFE920E7E0B90010BB00CD
:1003630008E88AF084F8AAF022E4FBC8FA22EB70CA
:10037300227B10C833C8C933C9335007C39AC3DBC0
:10038300F280069A50012ADBEAC833F4C8C933F471
:10039300C9FA2275F008E4C833C8C933C933C99A06
:1003A300C99B5004C92AC93BD5F0ECFBC833F4C838
:1003B300E4C9FA22080808EAC0E0EBC0E086F0E7E7
:1003C300A4FA180986F0E7A42AFA180986F0E7A424
:1003D3002AFA180986F0E7A42AFA1986F0E7A4FB9B
:1003E300E5F02AFA190886F0E7A42BFBE5F03AFAC0
:1003F300190886F0E7A42BFBE5F03AFA18180986EA
:10040300F0E7A4C5F02BFBE43AFA1908E7C5F0C6F8
:10041300A426F6E5F03BFBE43AFA1886F0E7A4F6E7
:10042300E5F00826F6E43B08F6E43A08F6D0E0FBEC
:10043300D0E0FA22E4CFC0E0E4CEC0E0E4CDC0E0F7
:10044300E4CCC0E075F020E626F608E633F608E6CD
:1004530033F608E633F6181818EC33FCED33FDEEEB
:1004630033FEEF33FFC3EC9709ED9709EE9709EFDE
:1004730097191919400FFFEC97FC09ED97FD09EE49
:1004830097FE191906D5F0BFECF709EDF709EEF75A
:1004930009EFF7191919D0E0FCD0E0FDD0E0FED048
:1004A300E0FF222518C582C0E0E51934FFC583C0EB
:1004B300E0E518C3958224F810AF08858319858277
:1004C300188008858319858218D2AFCEF0A3E52062
:1004D300F0A37808E608F0A3DEFAEFF0A3E58124A1
:1004E300FAF8E608F0A3E608F0A3E608F0A3080884
:1004F300E608F0A3E608F0A315811581D0E0FED04D
:10050300E0F8158115811581E8C0E0EEC0E022C056
:10051300D02518C582C0E0E51934FFC583C0E0E5E6
:1005230018C3958224F310AF088583198582188038
:1005330008858319858218D2AFC8F0A3E9F0A3EA2E
:10054300F0A3EBF0A37908E709F0A3D8FAECF0A342
:10055300EDF0A3EEF0A3EFF0A3D0E0F0A3D0E0F032
:10056300A3D0E0F0A3E520F0A3E5F0F0A3228519E2
:1005730083851882E0C0E0A3E0F9A3E0FAA3E0FBDF
:10058300A37808E0F608A3DFFAE0FCA3E0FDA3E00C
:10059300FEA3E0FFA3E0C0E0A3E0C0E0A3E0F5D04A
:1005A300A3E0F520A3E0A3F5F010AF088583198538
:1005B30082188008858319858218D2AFD082D083B0
:1005C300D0E0F8D0E032120C60B90003020608E470
:1005D300900401780B79188002F0A3D8FCD9FA7A39
:1005E3000B7B1B900086781179028015E493A3ADF1
:1005F30082AE838A828B83F0A3AA82AB838D828EA1
:1006030083D8E9D9E77582A97583C87406120941AD
:100613007582F27583287400120941E47375F01032
:100623008E1A8F1B85821F85831E851882851983E9
:10063300E0CEA3E0CF851F82851E83EBC9EAC8ED18
:10064300CBECCAC3E833C8E933C9EA33CAEB33CBCB
:10065300C3EA9EF51DEB9FF51CB35004AB1CAA1D0A
:10066300EC33CCED33CDD5F0DAAE1AAF1B22D08309
:10067300D082ECC0E0EDC0E0E493A3FCE493A3FDDF
:10068300ED4C600D120749EC24FFFCED34FFFD80B7
:10069300EFE493A3FCE493A3FDED4C600D1207E696
:1006A300EC24FFFCED34FFFD80EFD0E0FDD0E0FC57
:1006B300E493A3C0E0E493C0E022D083D082E9C0F6
:1006C300E0E493A3C386F0C5F095F0F908E493A39F
:1006D30086F0C5F095F0700BE493A3C3994005E948
:1006E300048002A3E475F002A42582F582E5F035C7
:1006F30083F583D0E0F9E493A3C0E0E493C0E02260
:10070300851983851882E0A3FEE0A3F5207808E02D
:10071300A3F608DFFAE0A3FFE0A3C0E0E0A3C0E094
:10072300E0A3C0E0E0A3C0E0E0A3C0E010AF088511
:1007330082188583198008858218858319D2AFD0E2
:1007430083D082020947C0E0C3E4939608740193FF
:100753009618400FE4936670080874019366187046
:10076300007019A3A3C3E49396087401939618A386
:10077300A3400DD0E0D0E0D0E00206ADA3A3A3A335
:10078300A3A3D0E0227404800474028000CCC0E0F0
:10079300EDC0E0E518C39CCCAD1950011D10AF06A8
:1007A3008C188D1980068C188D19D2AF1208A5D01C
:1007B300E0FDD0E0FC2274028000CCC0E0EDC0E09C
:1007C300E518C39CCCAD1950011D10AF068C188DD4
:1007D3001980068C188D19D2AF120883D0E0FDD092
:1007E300E0FC22C0E0C0F088F0E49366700808746F
:1007F300019366187000A8F0A3A3700BD0F0D0E0AB
:10080300D0E0D0E00206ADA3A3D0F0D0E022D083A5
:10081300D082CCC0E0E493A360061208C61470FA39
:10082300E493A36006120A431470FAD0E0FCE49345
:10083300A3C0E0E493C0E022C0E074F2120512A268
:10084300AFE433FED2AFE589A2E15003120DF27596
:100853008900C2C5EEA2E092AF7F01020571A2E753
:1008630092D65002F40430F70663F0FF05F0B3406C
:100873000384800384F40430D60563F0FF05F0227B
:10088300CAC0E0E493A3C582CCC582C583CDC5832A
:10089300F0A3C582CCC582C583CDC583DAE5D0E09C
:1008A300CA22CAC0E0E0A3C582CCC582C583CDC538
:1008B30083F0A3C582CCC582C583CDC583DAE6D0D8
:1008C300E0CA22C0E0E493A3D39C5010E493A3C3F3
:1008D3009C400AD0E0D0E0D0E002082EA3A3A3D02E
:1008E300E0227009080808226016181818C6C333D6
:1008F300C608C633C608C633C608C633C6D5E0EA3B
:1009030022C008C3E096F50808A3E096420808A3AE
:10091300E096420808A3E09645087001D3D0082268
:10092300C5822518C582C583351910AF07F519850A
:1009330082188007F519858218D2AFC58322C09F1C
:10094300F59FE473D09F22D083D082C09FE493C0ED
:10095300E0740193C0E0740293F59F222518F58299
:1009630010AF08F518400C15198008F5184002154A
:1009730019D2AF851983227404800A740380067424
:100983000280027401C0E0F40412095FD0E0120C8B
:10099300232200C0D0251810AF08F518500C0519F4
:1009A3008008F51850020519D2AFD0D022C0E0C09C
:1009B300D0E8C0E0A8A8D2AFC2C7E8A2E792AFD000
:1009C300E0F8D0D0D0E032BB0102E722C082C0837E
:1009D30089828A83BB0003E08002E493D083D082C0
:1009E300226016080808C6C313C618C613C618C65D
:1009F30013C618C613C6D5E0EA222518F8E435193C
:100A0300F9222518FAE43519FB222518FCE43519D7
:100A1300FD22C3E0C696F608A3E0C696F608A3E057
:100A2300C696F608A3E0C696F622251810AF08F579
:100A330018400C15198008F51840021519D2AF2279
:100A4300C0E0E493A36C7009D0E0D0E0D0E00208EA
:100A53002EA3A3D0E022E76670100809E766700AA8
:100A63000809E76670040809E76622E06670100863
:100A7300A3E066700A08A3E066700408A3E0662298
:100A8300C3E09608A3E09608A3E09608A3E096A225
:100A9300D265D03322C3E493960874019396087405
:100AA300029396087403939622C3E096F008A3E09A
:100AB30096F008A3E096F008A3E096F022C3E69729
:100AC300F60809E697F60809E697F60809E697F6A1
:100AD30022E046F608A3E046F608A3E046F608A39C
:100AE300E046F622E627F60809E637F60809E63770
:100AF300F60809E637F622E026F608A3E036F608FC
:100B0300A3E036F608A3E036F622E056F608A3E0A3
:100B130056F608A3E056F608A3E056F622E493F649
:100B230008740193F608740293F608740393F6228B
:100B3300E026F008A3E036F008A3E036F008A3E0CF
:100B430036F022700422600D18C6C333C608C633BC
:100B5300C6D5E0F41822E647F60809E647F6080981
:100B6300E647F60809E647F622E056F008A3E05602
:100B7300F008A3E056F008A3E056F022E657F60883
:100B830009E657F60809E657F60809E657F622E09C
:100B930046F008A3E046F008A3E046F008A3E046C9
:100BA300F022E4C396F608E496F608E496F608E421
:100BB30096F622C6F4C608C6F4C608C6F4C608C626
:100BC300F4C622C3E09608A3E09608A3E09608A320
:100BD300E09622C3E7960809E7960809E79608090D
:100BE300E7962275D00075813F75180175190400C9
:100BF3000205C9E6F008A3E6F008A3E6F008A3E6B9
:100C0300F022600C08C6C313C618C613C6D5E0F499
:100C130022E0F608A3E0F608A3E0F608A3E0F62234
:100C2300CAC0E0E6F0A308DAFAD0E0FA22E8F0A3BB
:100C3300E9F0A3EAF0A3EBF022E0F8A3E0F9A3E0E4
:100C4300FAA3E0FB22EAF0A3EBF0A3ECF0A3EDF0B0
:100C530022E0FAA3E0FBA3E0FCA3E0FD22E5C754F6
:100C6300F84401F5C77901222518F582E43519F511
:100C73008322C2AF75D69F0200002212094A36DFD3
:100C83000512094AC6DF0512094A9FE00512094AFF
:100C9300F0E00512094A55E10512094AC8E10512B7
:100CA300094A0CE20512094A64E20512094A86E27E
:100CB3000512094A16E30512094AA7E30512094A70
:100CC300F3E30512094A1FE40512094A60E4051219
:100CD300094A01E60512094AE3E60512094ABFE794
:100CE3000512094AEDB30412094A20B40412094A51
:100CF30068B40412094A74B60412094ADDB804122E
:100D0300094A10B90412094AECBB0412094AA2BEEB
:100D13000412094A38BF0412094AB6C20412094A26
:100D230087C30412094AEBC40412094A6DC50412AD
:100D3300094A65C60412094AA6C80412094A2DC9FC
:100D43000412094A2ECB0412094A54CE0412094A4A
:100D530057CE0412094A6ACE0412094AB7CE0412C6
:100D6300094A84960512094A589B0512094ABC9BF5
:100D73000512094AE19C0512094ACBA00512094A4A
:100D8300AAA40512094ACAA60512094A10A7051200
:100D9300094ADFA80512094AD5FF0212094AEFFFE3
:100DA3000212094AF6FF0112094A38E40612094AF7
:100DB300E3FF0112094A96E10612094AA6E1061267
:100DC300094ABBE10612094A21E20612094ADBFE7F
:100DD3000312094A5FFF0312094AC7FF0312094AB4
:100DE3002AE00612094A46E00612094A9DE0061265
:100DF300094AD5E00612094AF3D60612094A01D771
:100E03000612094A61D70612094A99D70612094AF6
:100E1300B5D70612094A2AD80612094A16D9061264
:100E2300094A947F0012094AB97F0012094ACC7F0C
:100E33000012094AD77F0012094A33C30612094A2E
:100E43004EC30612094A7BC30612094A8FC406120F
:100E5300094A2FC50612094A53C50612094A79E4FD
:100E63000612094AC1CD0612094A0BCE0612094AD7
:100E7300A1CE0612094A27CF0612094A59CF0612F4
:100E8300094A71CF0612094AE5CF0612094AFBCF78
:100E93000612094A0ED00612094A18D00612094A48
:100EA3000CFA0112094A38FA0112094ACFFC01125D
:100EB300094A0FFD0112094A4BFD0112094A5FFD60
:100EC3000112094A78FD0112094A69FE0112094A11
:100ED3001BFF0112094A2FFF0112094A88DC06127F
:100EE300094AACDC0612094AC5DC0612094A03DDCD
:100EF3000612094A33DD0612094A60DD0612094A61
:100F0300C6DD0612094AC9DD0612094AD3DD0612F7
:100F1300094AE0DD0612094A02C60612094A22C638
:100F23000612094A61C60612094A7FC60612094A11
:100F33009AC60612094A00C70612094A0CC70612C6
:100F4300094A69C70612094A78C70612094A9CC7A3
:100F53000612094A5DC80612094A6AC80612094AF6
:100F63007BC80612094AABE30612094AC3E3061219
:100F7300094AEFE30612094A94A50612094AF0A6A4
:100F83000612094AFEA60612094A11A70612094AC1
:100F930026A70612094A3BA70612094A4EA70612BC
:100FA300094ACAA70612094A2FA80612094AC5A860
:100FB3000612094A9EA90612094AAEA90612094A4F
:100FC300BDA90612094A4AFF0112094A6EFF01121E
:100FD300094A96FF0112094ABEFF0112094A2BD0A2
:100FE3000612094A52D00612094A70D00612094A5B
:100FF300DFD00612094A6AC00612094A83C00612E4
:10100300094A8FC00612094AA3C00612094AC1C081
:101013000612094ACBC00612094AD5C00612094A6C
:10102300E8C00612094A6EC10612094AE3C1061254
:10103300094A12C20612094A60C20612094AAFC21D
:101043000612094ACAC20612094AD4C20612094A3A
:10105300E5C20612094A28C30612094A11E3061219
:10106300094A7B940612094AA7940612094AC494B2
:101073000612094AD7940612094AF2940612094A3B
:101083004C950612094A7A950612094A8A9906125C
:10109300094AE89A0612094A1A9B0612094A7D9BD5
:1010A3000612094AE99C0612094A119D0612094AC9
:1010B300269D0612094A369D0612094A769D061296
:1010C300094AB89D0612094AC89D0612094AC2FE7A
:1010D3000512094ADCFE0512094A04FF0512094AF2
:1010E3001DFF0512094A41FF0512094A5FFF051258
:1010F300094A76FF0512094AA4FF0512094ABFFFF0
:101103000512094AF2E30612094A8DB90612094A81
:101113009DB90612094AA2BA0612094AD4BA06129E
:10112300094A04BB0612094A27BB0612094A3EBBF9
:101133000612094A78BB0612094ADDBB0612094AA0
:101143001FBC0612094A66BC0612094A93BC061262
:10115300094ABEBC0612094AF27F0012094AF57F0A
:101163000012094AF87F0012094A3DCB0612094AC8
:101173005DCB0612094A71CC0612094A93CD0612B9
:10118300094AFDDA0612094A33DB0612094A4BDB28
:101193000612094A8DDB0612094A9DDB0612094A2B
:1011A300E1DB0612094A7BDC0612094A85DC0612DA
:1011B300094A918A0612094A9B8A0612094AC68A73
:1011C3000612094A0F8B0612094A788B0612094A3E
:1011D300978B0612094AB08B0612094A528C0612E3
:1011E300094ADA8E0612094AE38E0612094A348F37
:1011F3000612094A5D8F0612094A6A8F0612094AC6
:10120300DB8F0612094A69900612094AB790061243
:10121300094AED900612094A4E910612094A77913E
:101223000612094AEE910612094A4A920612094A1F
:1012330087920612094ABE920612094AD0920612F2
:10124300094AE2920612094A01930612094A0A93CD
:101253000612094AC5930612094A11940612094A4D
:101263004F940612094AAFE20612094AEADD061252
:10127300094A80D20612094AB6D20612094AFED298
:101283000612094A57D40612094AA4E90412094A64
:10129300D5EA0412094A11EB0412094ACBEC0412F1
:1012A300094AF5EC0412094A6EEF0412094AAEEF3B
:1012B3000412094A42F10412094AE1F10412094AEB
:1012C30039F20412094ACCF20412094A06F3041251
:1012D300094A48F30412094ABBF40412094A3BF6CB
:1012E3000412094A78F80412094AA6F80412094AB2
:1012F300D2F80412094ADBF80412094A38F9041235
:10130300094AC8F90412094A04FD0412094A86FD70
:101313000412094AE0FF0312094AF6FF0312094ABD
:1013230026AE0612094A3CAE0612094AE0AE061280
:10133300094A1FAF0612094A3CAF0612094A6DAFAC
:101343000612094ABAAF0612094AEEAF0612094A53
:1013530029B00612094A1EB20612094A2ADF0612EA
:10136300094A89DF0612094AC7DF0612094A08E05B
:101373000612094A24E50612094A2BE20612094A13
:1013830054E20612094A6BE20612094A79E206128E
:10139300094ABED40612094AF5D40612094A3CD5B5
:1013A3000612094AD9D50612094A99D60612094ADC
:1013B30028D90612094A45D90612094A89D90612BB
:1013C300094A8CD90612094AD6D90612094AD9D92B
:1013D3000612094AD1DA0612094A00800412094AA0
:1013E3000C800412094A6D820412094A75820412A0
:1013F300094A07830412094A43830412094A0284EF
:101403000412094A66840412094AEF840412094A41
:1014130055850412094AA2850412094A1D8604123D
:10142300094ADC870412094AE3890412094AEE8A4D
:101433000412094A818B0412094ADA8C0412094AFC
:10144300DB8D0412094A208F0412094AB693041251
:10145300094A9F940412094A22950412094A47959E
:101463000412094A6C950412094A07960412094AA0
:1014730025960412094A43960412094AB4960412A3
:10148300094AD3960412094A00970412094A01989B
:101493000412094AF8980412094A899A0412094A5B
:1014A3002F9B0412094A769B0412094AE89B0412F3
:1014B300094A779C0412094ADC9C0412094A399DA3
:1014C3000412094AD89D0412094A459E0412094A86
:1014D300809E0412094AE99E0412094A53A0041289
:1014E300094AC8A10412094A7AA20412094A8FA21E
:1014F3000412094AE0A20412094A4DA30412094A3C
:101503007DA30412094AF0A30412094AA9A40412F0
:10151300094AABA60412094A19A90412094A45AAA1
:101523000412094A4BAE0412094A18AF0412094ABD
:1015330035B00412094ADEB10412094AE3FD04126C
:10154300094A95FE0412094AA4FF0412094AE3BC9E
:101553000512094A6DBD0512094AE0BD0512094A83
:10156300DCBE0512094AE6BF0512094A67C0051227
:10157300094A93C10512094A1DC20512094A3EC20E
:101583000512094A26C30512094A49C40512094A24
:10159300F7C40512094A73C80512094A9DCA051200
:1015A300094A46CC0512094AD8CC0512094A4FCD3F
:1015B3000512094A6FD00512094A21D20512094AB8
:1015C3006CD40512094AB9D50512094A5ED8051229
:1015D300094A88D80512094AB8D80512094A52D9C6
:1015E3000512094AE9D90512094AFAD90512094A25
:1015F30001DA0512094A85DA0512094ACEDA05121B
:10160300094A32CF0412094A61CF0412094ADECFD4
:101613000412094A41D10412094A34D20412094A74
:10162300AED30412094AD3D30412094A25D40412AF
:10163300094AB7D40412094A03D50412094A16D534
:101643000412094A78D50412094AB5D50412094A85
:101653009FD60412094AFAD60412094A65D804121D
:10166300094A44D90412094A92DA0412094A75DB79
:101673000412094A01DC0412094A3ADC0412094A39
:1016830059DC0412094AA4DC0412094AC4DC04121A
:10169300094A81DD0412094AA4DE0412094AFFDE65
:1016A3000412094A3FDF0412094A41E00412094ABD
:1016B300EEE20412094A14E30412094A84E3041211
:1016C300094AA9E30412094A30E40412094A0CE561
:1016D3000412094A4AE50412094ACEE50412094AEA
:1016E300B9E60412094ABCE60412094AC6E6041222
:1016F300094AD0E60412094AECE60412094A55E7FE
:101703000412094A8EE70412094AAAE70412094A95
:10171300D1E70412094AF5E70412094A30E8041232
:10172300094AA3E80412094AD7E80412094AE1E87E
:101733000412094A1DE90412094A52E90412094A2A
:1017430071E90412094A5CE30612094A74E30612BA
:10175300094AFB7F0012094AF89D0612094A479E6F
:101763000612094A05A00612094ABFA10612094A30
:10177300FDA10612094A2AA30612094A35A4061234
:10178300094A57A40612094AA1A40612094A22A526
:101793000612094ADED40312094AFDD40312094A88
:1017A300A0D50312094AE9D50312094A59D60312EF
:1017B300094AD1D60312094A38D70312094A3BD73B
:1017C3000312094A83D70312094A07D80312094AA5
:1017D3008FD80312094A92D80312094A1DD903125A
:1017E300094A60D90312094AECDD0312094A8BDF67
:1017F3000312094ACADF0312094A4EE30312094AD4
:1018030087E40312094A4CE50312094AF0E503127F
:10181300094A3EE60312094AC7E80312094A94EA51
:101823000312094A11EB0312094A20EE0312094A73
:101833008CEE0312094A98EF0312094ACEF20312FF
:10184300094ADEF20312094A59F40312094ADDF484
:101853000312094A1BF60312094A24F70312094A21
:1018630090F80312094AD5F80312094A80F90312C2
:10187300094A686A0012094A036B0012094A766B27
:101883000012094A176C0012094A706C0012094AC7
:10189300BB6C0012094A1A6D0012094A276E001226
:1018A300094A44710012094A7A720012094A037301
:1018B3000012094A07750012094AAB750012094A5A
:1018C3003C760012094A26770012094AD77700129C
:1018D300094A45780012094A277A0012094A9C7B73
:1018E3000012094AAB7C0012094A387D0012094AEA
:1018F300447E0012094A26E00212094A8FE00212CE
:10190300094AD7E00212094A1BE10212094A74E1AB
:101913000212094AD1E10212094A32E20212094AC9
:101923008CE20212094A00E40212094A27E4021275
:10193300094A3BE50212094A42E60212094A9DE6B8
:101943000212094AB1E70212094AD9E70212094A07
:1019530026E90212094A37E90212094A4FE902123B
:10196300094A66EA0212094A72EB0212094A7BEB40
:101973000212094A92EB0212094ACCEB0212094AFB
:10198300EBEB0212094A02EC0212094AFBEC0212C7
:10199300094A0FEE0212094A37EE0212094A41EED2
:1019A3000212094AB0EE0212094A99EF0212094AD9
:1019B300E6EF0212094A65F00212094A9CF002128C
:1019C300094A1CF10212094AF5F20212094AF5F317
:1019D3000212094A43F40212094AAFF50212094AF4
:1019E30049F70212094AB9F90212094A6288061232
:1019F300094A3DFC0212094AB5FC0212094AD1FC0C
:101A03000212094ACBFD0212094AC3FE0212094A15
:101A130032FF0212094A16BD0612094AC6BE061251
:101A2300094A8EBF0612094AF6BF0612094AE4B5EF
:101A33000612094A02B60612094A46B60612094AAE
:101A43006CB60612094A93B60612094AABB60612D9
:101A5300094A4DB70612094A8FB70612094AEADE48
:101A63000512094ABAB80612094AC3B80612094A46
:101A7300CCB80612094AD6B80612094A2DFA03123F
:101A8300094A61FE0312094A6FFE0312094A74FEF2
:101A93000312094ACAC90612094AB1E40612094ADD
:101AA300EEA90612094A00E10612094A2AE10612C2
:101AB300094AC9FF0412094ADDE40612094A06E588
:101AC3000612094A00800312094A32800312094AA6
:101AD3009E800312094A39810312094AD8810312ED
:101AE300094A1D820312094A3F820312094A588296
:101AF3000312094A7E820312094ABC820312094A6D
:101B030000830312094A22830312094A84830312BE
:101B1300094A4B840312094A02850312094A748550
:101B23000312094A46860312094A90860312094A98
:101B3300E3860312094A49870312094A838703127A
:101B4300094AD5870312094AF1870312094A1C88F7
:101B53000312094A238A0312094A778B0312094A9B
:101B6300998B0312094ACD8B0312094AEE8B031298
:101B7300094AFD8B0312094A088C0312094AB88CDF
:101B83000312094A218D0312094ACE8D0312094A11
:101B9300068E0312094ACC8E0312094AD98F031207
:101BA300094A23900312094AB2900312094A169173
:101BB3000312094A51910312094ABD930312094AB8
:101BC30011950312094A4A980312094A17990312F5
:101BD300094AA5990312094ACE990312094A409A60
:101BE3000312094AD49A0312094AC69B0312094AEB
:101BF300E89B0312094A449D0312094A5D9D03129F
:101C0300094A709D0312094A259E0312094A359E0B
:101C13000312094A379F0312094AAE9F0312094A66
:101C2300DD9F0312094AE3A00312094A29A1031203
:101C3300094AF5A20312094ACDA60312094AD7A6F7
:101C43000312094AEBA60312094AF5A60312094A2D
:101C5300FFA60312094A09A70312094A22A703127E
:101C6300094A2CA70312094AA0A70312094AABA7E2
:101C73000312094AD0A70312094ADBA70312094A30
:101C830029A80312094A33A80312094A3EA80312DA
:101C9300094A62A80312094A86A80312094AE2A85C
:101CA3000312094A28A90312094A45A90312094A3A
:101CB300C2A90312094AF9A90312094A38AA03124D
:101CC300094A85AA0312094A07AB0312094AA0ABC2
:101CD3000312094A70AD0312094ACEAD0312094A31
:101CE300EAAE0312094A10AF0312094A4FB00312B6
:101CF300094A75B30312094AB6B50312094A92B7E2
:101D03000312094A28B80312094A4FBA0312094AAF
:101D1300FBBA0312094A30BB0312094A95BB0312EB
:101D2300094A9FBB0312094AC9BD0312094AF0BEFF
:101D33000312094A30BF0312094AD6BF0312094AE4
:101D430067C10312094AF0C20312094A10C30312FE
:101D5300094A69C30312094A6BC40312094AB5C489
:101D63000312094A05C50312094AEFC50312094ABA
:101D730064C60312094A7EC70312094AF9C703124C
:101D8300094AFEC80312094AA9CB0312094AC8CB60
:101D93000312094A29CD0312094AEBCE0312094A59
:101DA3003FCF0312094AF7CF0312094AA3D0031204
:101DB300094AF9D00312094AAFD10312094A44D29E
:101DC3000312094AB0D20312094AEAD20312094A9A
:101DD3001BD30312094A77D40312094A0080021263
:101DE300094A32800212094A69800212094A45826D
:101DF3000212094A85820212094A68830212094AB9
:101E0300C0830212094AFB840212094A478502125F
:101E1300094A6F880212094AD18B0212094A1E8DA0
:101E23000212094AB48D0212094AC08D0212094AEC
:101E3300F28D0212094A748F0212094A8290021229
:101E4300094AAC900212094A03910212094A5C91B1
:101E53000212094AC8910212094ADF930212094A7F
:101E63006E950212094A38960212094A76970212AF
:101E7300094AA6990212094A769C0212094A839CCE
:101E83000212094A0A9D0212094AB29D0212094A24
:101E9300F59D0212094A3E9E0212094A929E0212BF
:101EA300094AF79E0212094A5F9F0212094A7C9F60
:101EB3000212094AAC9F0212094AE19F0212094A1F
:101EC300B1A00212094A5AA10212094ADEA3021260
:101ED300094AFEA40212094AE7A50212094A69A6A1
:101EE3000212094A8BAA0212094AC8AA0212094A13
:101EF30020AB0212094A53AB0212094AD4AB0212B5
:101F0300094A21AC0212094AACAC0212094AFEACDE
:101F13000212094AD5AD0212094A8EAE0212094ACB
:101F230029AF0212094A42B20212094A62B30212EB
:101F3300094A13B70212094A2AB80212094A2DB8EC
:101F43000212094A5CB80212094A62BA0212094A29
:101F53003BBB0212094A70BB0212094AE6BC0212D9
:101F6300094A58BD0212094A39BE0212094A06BF7C
:101F73000212094A3CC10212094AADC10212094ABE
:101F8300EDC10212094A4EC20212094A11C60212D7
:101F9300094A00C70212094AE7C70212094AB3C82D
:101FA3000212094ACFC90212094AE0C90212094AB8
:101FB300F4C90212094A2CCA0212094A5ACA021265
:101FC300094A34CC0212094ACBCC0212094A36CD53
:101FD3000212094A15CF0212094A45CF0212094AD1
:101FE30029D00212094ADAD00212094A8FD2021208
:101FF300094A33D30212094A68D30212094AD0D3D9
:102003000212094AFFD40212094AB1D50212094A3F
:10201300E2D50212094AFAD50212094A89D60212F6
:10202300094A3DD90212094A15DB0212094A31DB7A
:102033000212094A4DDB0212094A1BDC0212094A49
:1020430004E00212094A2BB20612094A6BB20612C5
:10205300094A1EB40612094A2DB40612094A008021
:102063000512094A17850512094A62850512094AAC
:10207300B2870512094A46890512094AD48905120D
:10208300094A358C0512094A3A8E0512094A8E8E81
:102093000512094A9D900512094ACE900512094A74
:1020A3000E910512094A29910512094A84910512D4
:1020B300094AA6910512094AAD910512094AC5912B
:1020C3000512094AA5920512094A84930512094A81
:1020D300318B0112094A698B0112094A4790011297
:1020E300094A8D900112094ADA910112094A45926F
:1020F3000112094ACE930112094ADE960112094AD6
:10210300F9970112094A0BA20112094A9EA2011270
:10211300094AF0A50112094AECA60112094A47A788
:102123000112094A91A80112094A7FA90112094A19
:102133001BAC0112094A8FAD0112094A12AE0112FA
:10214300094A15AE0112094A40AE0112094AF0AE1E
:102153000112094AE9AF0112094A94B00112094A6E
:10216300B2B00112094ACBB00112094AF4B001120C
:10217300094A16B10112094A6BB30112094A30B474
:102183000112094A75B40112094AF4B40112094A49
:10219300A0B50112094AD2B50112094A26B60112A5
:1021A300094A61B60112094AA8B60112094AF8B6EA
:1021B3000112094AFDB60112094A51B70112094A2F
:1021C3007DB70112094A66B80112094AB7B801126C
:1021D300094A17B90112094A71B90112094A0CBA1D
:1021E3000112094A4BBD0112094A5DBE0112094A97
:1021F300D7BF0112094AE7C20112094A85C3011276
:10220300094A7BC60112094A3AC70112094A7EC725
:102213000112094A29C90112094A3DC90112094A91
:1022230047C90112094A51C90112094A5DC901127C
:10223300094A82C90112094A5BCB0112094AB0CB90
:102243000112094ABACB0112094AC4CB0112094A45
:1022530039CC0112094A88CC0112094A99CD0112DD
:10226300094AE6CD0112094AF3CE0112094A37CFD2
:102273000112094ADDCF0112094AD0D00112094ADD
:1022830096D10112094AB9D20112094AD7D30112D0
:10229300094ABFD40112094AD7D40112094A2ED5DB
:1022A3000112094A38D50112094A43D50112094AD4
:1022B30061D50112094AA9D50112094A0BD60112A7
:1022C300094A32D60112094A44D60112094ADFD615
:1022D3000112094A14D70112094AFBD70112094A0C
:1022E30040D80112094A26D90112094A4DD90112CF
:1022F300094AD0D90112094A41DA0112094ACADB53
:102303000112094AF6DC0112094AB9DD0112094A30
:1023130081DE0112094A0BDF0112094A33E001127F
:10232300094AD5E00112094A50E10112094A0CE2B7
:102333000112094A56E20112094AB0E20112094A9E
:1023430088E30112094AABE30112094A5EE4011270
:10235300094A80E40112094AE9E40112094AFFE645
:102363000112094AF7E70112094ABBE80112094AB7
:10237300EDEA0112094A37EB0112094A87EB011210
:10238300094AEBEB0112094A4DEC0112094A7BECB5
:102393000112094A9FEC0112094AD4EC0112094ABD
:1023A30005ED0112094A38ED0112094A88ED0112BF
:1023B300094ADBED0112094A00EF0112094AA0F0B4
:1023C3000112094AFBF00112094A24F10112094AD8
:1023D300B1F10112094A1FF20112094A2DF2011249
:1023E300094A51F20112094AA6F20112094AC1F23D
:1023F3000112094A73F30112094AABF30112094AA4
:10240300EEF30112094A51F40112094A53F601127B
:10241300094A7DF60112094A74F70112094A7EF846
:102423000112094A2EF90112094A99E80512094ACB
:10243300D1E80512094AF2E80512094A34E90512FE
:10244300094A96E90512094AA0E90512094AB0E9C1
:102453000512094AEBE90512094ACBED0512094AAF
:10246300B8EF0512094A9EF10512094A35F2051221
:10247300094AD7F20512094A63300012094A0E319C
:102483000012094ABC310012094AC2320012094A39
:10249300E2320012094A0B340012094AC63500120F
:1024A300094A39360012094ADD360012094AE9376A
:1024B3000012094A54380012094A90380012094A96
:1024C300D3380012094A0E390012094A5039001252
:1024D300094AE5390012094A613A0012094A2B3BBD
:1024E3000012094A083C0012094AA03C0012094A9A
:1024F300BA3C0012094AEA3C0012094A1B3D001289
:10250300094AE13D0012094AF13D0012094A403EE1
:102513000012094A4D3E0012094A563E0012094A6A
:10252300D43E0012094A303F0012094A7B3F001291
:10253300094A963F0012094AC13F0012094ADE3F89
:102543000012094AEA3F0012094A81410012094A6E
:102553009A410012094A1F420012094A32420012EC
:10256300094A51420012094AF5420012094A7644C7
:102573000012094A29460012094ABF460012094AB5
:10258300C2460012094A32470012094A5047001254
:10259300094AE7470012094A2F480012094A3248FC
:1025A3000012094AF8480012094A65490012094A0B
:1025B3008B490012094A164A0012094A344A00128A
:1025C300094A7A4A0012094A2E4B0012094A784BEB
:1025D3000012094AA74B0012094A044C0012094A87
:1025E300394C0012094A654C0012094A734C001217
:1025F300094AC04C0012094A304D0012094A794D6C
:102603000012094AC54D0012094AF14D0012094A48
:10261300FC4D0012094A1A4E0012094A054F0012D6
:10262300094A0F4F0012094A504F0012094AA44F9A
:102633000012094AB84F0012094AE7500012094A2A
:10264300FC500012094A8A510012094ACF51001264
:10265300094A5B520012094A66520012094AA853FA
:102663000012094AC3530012094A0F540012094ABF
:102673007E540012094AB7540012094AD154001279
:10268300094A31550012094AD0550012094A1B560E
:102693000012094AEB580012094A9D590012094ACF
:1026A3000A5A0012094A4A5C0012094A625C001283
:1026B300094A655C0012094A715C0012094A855C8B
:1026C3000012094A8D5C0012094AC05C0012094AD3
:1026D300C35D0012094A505E0012094AC05E00122F
:1026E300094A425F0012094A03600012094A226044
:1026F3000012094AC3600012094A20610012094A04
:1027030023610012094A97610012094AE662001226
:10271300094AEC630012094A77640012094A926578
:102723000012094A5A660012094A8B660012094AC6
:10273300AE660012094AB7660012094AE66600123D
:10274300094A76670012094A2C680012094AA168EF
:102753000012094A48690012094ABD690012094A70
:10276300F4690012094A326A0012094AB487061250
:10277300094A17870612094AAC860612094A918646
:102783000612094AE1850612094AE7840612094A34
:102793000D840612094A63810612094A75800612DE
:1027A300094A0A800612094AD2BC0512094AC5BC65
:1027B3000512094ABBBC0512094A46BC0512094A5F
:1027C30004BC0512094A2FBB0512094A00BB0512B6
:1027D300094AB7BA0512094A1FB80512094ADDB5F5
:1027E3000512094AAAB50512094A3CB50512094A58
:1027F300FCB40512094AE9B40512094ADDB405120D
:10280300094AAAB40512094A3AB20512094A65DE11
:102813000512094A37B20512094A20DE0512094A90
:1028230004DE0512094AE0DB0512094AB2DB051290
:10283300094A7FDB0512094A03DB0512094A19B26B
:102843000512094AEAB10512094A14B00512094AE8
:102853004B8A0612094A62AF0512094A8BAE05126A
:10286300094AD0AC0512094A34AB0512094AA7AA92
:102873000512094A178A0612094A63AA0512094A68
:10288300B1B80612094ACAA90512094A77FE051208
:10289300094A22FE0512094AF5FD0512094AC2FD3D
:1028A3000512094A9AFD0512094A3BFD0512094A18
:1028B3001BFD0512094AE6FC0512094AAAF905128D
:1028C300094A7FF70512094A6FF50512094AECF424
:1028D3000512094AA0F40512094AC0890612094AD9
:1028E30054F40512094AAEF30512094A93FB020098
:1028F300000080FB8F000100F71B87000100A71871
:1029030035000400BB1B25000200BF1B260002008C
:10291300C11B27000200C31B28000100CD1B290097
:102923000100CE1B840004007F1886000100191BE0
:102933002A000100CF1B2B000100D01B2C0001003B
:10294300D61B2D0008008D182E000100D71B2F0069
:102953000100D81B30000100D91B31000100DA1B34
:10296300320001009518330001009618340001006D
:10297300DB1B36000100971838000100DC1B39000F
:102983000100D51B83000200F41B63000100A218A1
:1029930064000100D11B65000100D21B6D00010022
:1029A300A31871000800851866000100F31B43009B
:1029B3000100E41B44000200E51B45000100E71B86
:1029C30046000200E81B470008009A18480001006F
:1029D300EA1B4B000100EB1B04000100F61BA100E6
:1029E3000100FA1B37000100F91B88000100F81BE6
:1029F3003C00010098183D000100DD1B4900020066
:102A0300EC1B67000100A4184D000200EE1B4E00F2
:102A13000100F01B4F000200F11B3E000100E31B0D
:102A230051000100DF1B52000100E01B53000100B5
:102A3300E21B54000100991800000000000000018F
:102A43003636010100010201000103010001040106
:102A5300060605020000070100340801000F0904FF
:102A630001010D0100FF0E0800001702000019010B
:102A730000FF1A0100011B0100FE1C0100081D02DA
:102A830000001F01000120010001210200002301B9
:102A9300000F24020000260100012701000828027C
:102AA30000FF2A0100072B0102402C0100002D0129
:102AB30000012E0100012F0100FF30010B1D310821
:102AC30000003A0100083B01000F3C0100013D01F9
:102AD30000FF3E04000042040000460400004A04D4
:102AE30000004E04000052040000560400005A0483
:102AF3000000010371030103010301030103010347
:102B03002203020301031003000300030003000375
:102B1300000300030003420300032403060300032E
:102B230000030403120325032303250323030403E0
:102B3300040300030003000344030003000323030F
:102B4300000365032100350381030003050300032C
:102B53000003000300032503230303027102300172
:102B630060021102700201020202020280021002DC
:102B730061023A004100630273027202620243027D
:102B830000021302380000020002040212020002D3
:102B930000020002000204020402370037003C0274
:102BA30044020002390000020002650200023502FD
:102BB30081020002050282028302000203047104FF
:102BC30002046004110470040204020401040204F8
:102BD30010046104000414046304730472046204A3
:102BE3004304000413040604000400040404120450
:102BF3000004000400040004510464000004000401
:102C030000044404000400040004000465040004F8
:102C130035048104640005040004830400040300F4
:102C23007100300160001100700031022003500474
:102C33008000100061000000140063007300720044
:102C430062004300000013000600000000000400BF
:102C53001200000000000000000004000400370020
:102C630037003C0244000000000000000000650043
:102C73000000350081000000050000008300000013
:102C83000101710101010101110101013101010181
:102C930001018001100161013B0014006301730114
:102CA3007201620143010001130106013D01350078
:102CB30004011201000100010001000104010401EB
:102CC300330133013C0144013201360000010001AC
:102CD30065010001350081010001050182018301C5
:102CE3000001210010002081291B210011004381D4
:102CF30000002100120020832A1B210013002083DF
:102D03002B1B2100140020832C1B21001500438161
:102D13003B04210016001A812D1B210017001A8184
:102D2300301B2100200018833D0421002100F18382
:102D3300331B21002200F183431B2100FDFF21816E
:102D4300531B36000100060000000F0000000000C6
:102D5300000000000000000003FFFF00000403FF69
:102D6300FF0000FFFF0FF4010005C404032000016E
:102D730000000B000000000000000003010F000032
:102D83000000000000000000000000000000000040
:102D93000000000000000000000000000000000030
:102DA300D0140C15D614F813DC141215DC141E15EC
:102DB300E214F813DC1412150000000000000000F8
:102DC300000000000000000000000000E814F813F9
:102DD300EE142415F414F8130000000000000000A2
:102DE30000000000FA1436150015F813FA1436150E
:102DF3000015F813EE1424150615F8131300121812
:102E03001F0018181F801E1800009C1801009C1832
:102E13000200BE170280B8170300C4170400CA17C4
:102E23000480D0170500D6170600E2173100F41707
:102E33003300FA173400001836000618FFFF0000AD
:102E43000A00000002000000040000000800000067
:102E5300100000002000000040000000800000007F
:102E63000001000000020000000400000008000050
:102E730000100000002000000040000000000000DF
:102E830020012C8B0000030020012F8B0000040085
:102E93004201CB89000005004201BF880000070002
:102EA30030012D8B0000FDFF2101208B010C210639
:102EB3003C210836210B4821108E1D021221052AC0
:102EC300210718210CF4200D002164A21BFF000030
:102ED30007ECFDFDFDECDCDCCCBCACAC9C9C8C7C41
:102EE3007C6C6C5C5C5C4C4C3C3C2C2C1C1C03EAEA
:102EF300F5E5D5D5C5B5A5959585857575656555EF
:102F03005545453535252515150500160F00000BCC
:102F1300150B020002220F3300000E0F5A6967429D
:102F23006565416C6C69616E636530395A696742E6
:102F33006565416C6C69616E63653039C0C1C2C33C
:102F4300C4C5C6C7C8C9CACBCCCDCECF303016187E
:102F53001920231A1C1E30303017181921301B1D5D
:102F63001F300001191618161618230300003C40E1
:102F7300423A3F3F392F473000034D4C4651181A10
:102F83002505020C0E020B040B0A0708000F0204AE
:102F93000201010101090200BE040AE80300000E58
:102FA30000E80300000C0028007F00000003040475
:102FB300040005030A0C1006081E080C28FF100065
:102FC3000209033C0C050815091EE4F0A3F0A3F065
:102FD300A322122FCDF022901A0B1245D91224E40A
:102FE30022122FE822E0F508E4F509F50AF50B2291
:102FF300E824FBF582E934FFF58322E82411F58206
:10300300E439F583E022F58312300F22E0F508A3BB
:10301300E0F5092212275A74041209957F08020762
:10302300037401F09005AEE0640F22740912099550
:103033007F04020703EA2413FAE43FFB122688E91C
:10304300227905122694740622A3A3E024F5C394DF
:1030530013221227669005CE12658D7A147B002207
:10306300C082C0839019EA74D8F0A37424F0A374C7
:10307300EAF0A37424F09019EE74C0F0A37424F062
:10308300A374BAF0A37424F0A374F6F0A37424F029
:10309300A374FCF0A37424F0A374F0F0A37424F0DD
:1030A300A374A8F0A37424F09019FA74CCF0A37459
:1030B30024F0A374D2F0A37424F0A374C6F0A37411
:1030C30024F0A37402F0A37425F0901A0B124F9E00
:1030D3006009901A0B1245D5121284901A081248EF
:1030E300EF7408125C3AA3F0901AB4F0901A0DF042
:1030F3007C0BFDF97A0E7B1A1211CA7C0B7D0079C9
:10310300007A197B1A1211CA02474974F71204A6EE
:1031130074F7120A2DEAFEEBFF1231A17405124A6D
:103123000D7403F01232B81249EF2430FCE43FFD72
:103133008C821231991231AD60081239C674FFF0D6
:10314300A3F0EE242EE43F1C1CFD8C82F583A3E048
:10315300C0E08A828B831246A1D0E01231AD88820F
:103163008983124EDC2403F0EE1239D0120C6B74F7
:1031730003F09005C312078C7402120A0D12359ADC
:10318300120995E9F5087007EEFAEFFB122574A909
:103193000874090239DFF583E08882898322EA1201
:1031A30031A6221250E13FF58322125EBA1249FB87
:1031B300E8F0A3E9126191E02274F01204A6EAFE9A
:1031C300EBFF8C0C8D0D890B1232B8F583124A0379
:1031D3007410120C6BE0F508A312319BF0E824FF86
:1031E300F582E91235ACE508F0E824FEF582E91230
:1031F30035ACE50BF09005C8E0C0E0E824FDF582AE
:10320300E91235ACD0E0F09005C7E0C0E0E824FC5B
:10321300F582E91235ACD0E0F07412120C6B123067
:103223000B122FF3E509F0E824FAF8E934FFF988E3
:1032330082F583E508F0EE2404FCE43FFD88088A68
:10324300828B83E0F50E8C828D83E0250EC3950877
:10325300125EBA124829850C82850D83A3A3A3A30A
:10326300A3A3A3A3E064037009EE1249DDF0A3E472
:1032730080031235B11235B97409F075080E75095A
:103283001A750A00780812097E1259841209957575
:1032930008FF7509FF7808120982AC0CAD0D1235D1
:1032A3009A120995E9F5087007EEFAEFFB122574F7
:1032B300A90802301FEA2402FAE43FFB8A8222C0F3
:1032C30082C083901A2AE0C39408400474078001E3
:1032D300E08A828B83F033333354F8F9024749741D
:1032E300F01204A68A088B09890A8C0E8D0F750CBF
:1032F30000A2AFE433F50BC2AF901A24804512331A
:10330300E4503D1233FE64037036E50824F9F508F2
:10331300E50934FFF5098E828F83A3A3E02405FC1E
:10332300A3E03400FDAA08AB0912136EE50824FFDD
:10333300F508E50934FFF5097410250CF50C150A99
:103343001237D3126942E50A6004EE4F70B0E50B01
:10335300A2E092AFA2AFE433F50BC2AF901A248080
:103363003E124EB58882F58312412985088285096C
:1033730083F08A8289831233F5A3A3E0C0E0E508D2
:1033830024FFF582E5091235ACD0E0F0E50824FE10
:10339300F508E50934FFF509050C150A1237D312B0
:1033A300362760211233FE640270F11233E4EE40DB
:1033B300B0124B24A2E550E4850E82850F8374017D
:1033C300F0E50A70D7E50BA2E092AF850882850984
:1033D30083E50CF0E50824FFFAE50934FFFB02302E
:1033E3001F1233EAA2E622EE2411F582E43FF583AD
:1033F300E0221233F922124EFAA3228E828F83A384
:10340300A31246A51255C72274F01204A674F31230
:103413000A2D7403120C6BE9F07402120C6BEAF0C0
:103423008B0B851882851983E4F004120A05122494
:103433008AE9F89005ADE0292437F508FA7B0012F4
:1034430011E88A0C8B0DAE0CAF0DEA4F70030235F9
:1034530091EA2402F50EE43FF50FA808EA28F8E400
:103463003BF9850E82850F83123F259005ADE0F968
:10347300FAC3E49AFA95E0FB850E82850F83E02A6E
:10348300F50CA3E03BF50D9005AB12300B750A006C
:10349300780812097EE9FC7D00AA0CAB0D12495F86
:1034A300120995AC18AD197401120C6BE0F9E50C17
:1034B30024FFFAE50D34FFFB1224908A828B83E408
:1034C300F0E50BC454F0F9901AB5E0C4333354C09B
:1034D300F89005A7E0A2E0E43313134849440FC072
:1034E300E0EA24FFF582EB1235ACD0E0F0EA24FEEB
:1034F300F50CEB34FFF50D7403120C6BE0F874025A
:10350300120C6BE0C454F048850C82850D83F0A83F
:103513000C850E82850F83125C072AC3988E828FD7
:1035230083A3A3A3A3F0850E82850F83E8F0A3E50D
:103533000DF01235B11235B9E4F0740C120C6BE4D2
:10354300F075081975091A780812097E1259841240
:103553000995851882851983E06009EE240E124BC4
:10356300264408F0122676E9F9E4F508F509780807
:103573001209827406120A0D12359C120995E9701C
:1035830006EEFAEFFB800BEEFAEFFB1211EE7A0078
:103593007B00740D02301C7903EEFAEFFB12268ECA
:1035A300740222EE24FFF582EF34FFF58322EE123C
:1035B30031A6E4F0A322F01235BE22EE1258A73F43
:1035C300F5832274F21204A68A0C8B0DA2AFE433A6
:1035D300F50AC2AF750800750900901A24802C12F1
:1035E30037E35024850C82850D83A3A31259978E4C
:1035F300828F83A3A31245D512267CE9600A123772
:10360300DEC2E6F08E088F091237D312362770CF49
:10361300E508450960061236C0D2E6F0E50AA2E0E5
:1036230092AF800DE0FEA3E0FFEE4F227402120979
:10363300957F0602070374F01204A68A0E8B0F8C83
:103643000C8D0D750A00A2AFE433F50BC2AF7E00FB
:103653007F00901A248010AE08AF091236B8124BBF
:1036630024D2E7F01245B31245C760341236C0A224
:10367300E750F1850882850983A3A312078CAC0C5C
:10368300AD0DAA0EAB0F1226827402120995E960E2
:10369300D3EE4F60C2123A5A70061236D2D2E4F019
:1036A300E50BA2E092AFEE4F600612256E750A019C
:1036B300A90A02301F1233EAD2E4F0EE22E508121F
:1036C30058C13509F583E022AA82AB8312136E8EAB
:1036D300828F83A3A31246A5E02274F21204A67478
:1036E300FE120A2D750C00750D008518828519834D
:1036F300E4F0A3F0A2AF33F50AC2AF901A24126923
:1037030042802BEE24FBF582EF34FF123009780C54
:103713001209821237C1120995EEFCEFFDAA18AB0C
:103723001912120CAE08AF09901A2AE014F0EE4FEA
:10373300602B1237E3501DEE240BF8E43FF9888227
:10374300F583E024FFF0A3E034FFF088828983123D
:103753004F9E60AF8E0C8F0D1237D380A1E50AA266
:10376300E092AF901A2AE0602C9005AEE0640F60FF
:1037730006901AB4E0701E7A027B1A122766908BA9
:10378300191207887A027B1A1247D112099580050C
:1037930074F01246B2AA18AB191212128A088B09D6
:1037A300AE08AF09EA4F601312249C1237DEA2E27F
:1037B3008E828F83A350D974E980D702362FEEFC13
:1037C300EFFD7A247B1A12121E7402228E0A8F0BCB
:1037D300EE24FBF582EF34FFF58322EE1233EB2266
:1037E3001233EAA2E72274F71204A6EAFEEBFF12F1
:1037F300249C12469E12061EE964019005CA700AB3
:10380300E02401F8A3E034008003124624F9124DAA
:1038130026124829901A2AE0701F9005AEE0640F23
:1038230070177A027B1A122766908B191207887A0F
:10383300027B1A1247D1120995A8A8C2AF901A2A7F
:10384300E004F0E8A2E78004E508A2E092AF024CAE
:103853003474F71204A6EAFEEBFFEA12388AF01278
:10386300249CEEFCEFFD7A247B1A121218A8A8C23E
:10387300AF901A2A1241789005AEE0640F70057973
:103883000812262E024C341233EBC2E42274F712D0
:1038930004A674EA120A2DEAFEEBFF9005A7E06086
:1038A3002A8518828519837401F0120C6BE412398E
:1038B30045120C6B1236CBC0E0740A120C6BD0E0CD
:1038C300125C27740B120C6B124E9174160239DFC3
:1038D30074F71204A6EAFEEBFF12247EE9F974DC06
:1038E30069601E74DD69601974E469601474F369B6
:1038F300600F74DE69600A74DF69600574DB6970E8
:1039030007EEFAEFFB122634024C3474F71204A6C6
:1039130074EB120A2DEAFEEBFF8518828519837476
:1039230006123945120C6BAA82AB8312136EEE2476
:1039330008FCE43FFD740A120C6B124E91741502DD
:1039430039DFF0EA2413FCE43FFD74022274F7121A
:1039530004A674F7120A2DEAFEEBFFEA2430124B99
:1039630026605DEA1239D0120C6B7403F09005C324
:1039730012078C1239C612078C9005D6E0F974042D
:10398300120A0DEEFAEFFB1224847404120995E96E
:10399300F974DC69602374DD69601E74E46960197D
:1039A30074F369601474DE69600F74DF69600A740C
:1039B300E869600574DB697007EEFAEFFB122634E1
:1039C300023194EE242EF582E43FF58322125D98B2
:1039D300AA18AB1912136E74082274031209950204
:1039E3004C3474F21204A68A0C8B0D750A00750B05
:1039F300007508E7A2AFE433F509C2AF901A24803B
:103A0300031237CF12362760251237E350F3123AE9
:103A13005A70EEEE2432123BF1E06870E4780A1239
:103A230009821237C1120995901A2AE014F0E509A8
:103A3300A2E092AFEE4F6013EEFAEFFB12249C79F3
:103A4300F0EEFAEFFB122634750800A908AA0CABB6
:103A53000D1226340236341235BEE064012274F4AA
:103A63001204A674F7120A2DEAFEEBFF8A82F5838D
:103A7300A3E064F37003023AFF8A828B83A3E064BA
:103A8300DF60798A828B83A3E064E8606F8A828B2C
:103A930083A3E064DB60651224DEE9F5087055EE6C
:103AA300240E124B26604D123B0960487408120C19
:103AB3006B123B1812078C7508FF7509FF78081203
:103AC30009828E828F83A3A3A3A3A3A3A3A3E0F955
:103AD3007404120A0D1224847404120995E9F5087A
:103AE30074F369600F74DF69600A74E869600574D0
:103AF300DB69700F8E828F83A3E508F0EEFAEFFB8C
:103B03001224EA02302EEE240FFAE43FFB79091265
:103B13002520EA4B22740212538D74FFF0A3123B4B
:103B23002522124EE5A3A32274F11204A6EAFEEBAA
:103B3300FF7508008A82F583A3A3A3A3A3A312306E
:103B43004C40037508E88A828B83A3A3A3A3A3A392
:103B5300A3A3A3A3E0C3941040057508E880138AC8
:103B6300828B83A3A3A3A3A3A3A3A3A3A3E0640F11
:103B7300600B901A91E0540870037508E8EA240B6F
:103B8300123BF1A3A3A3A3A3A3A3A3E0C398500D44
:103B9300EA240B124B26640F60037508E89005C7EF
:103BA300E0F47003A3E0F470037508EC7A237B0060
:103BB30012127E8B0BA90B901A0B123C0060278EFE
:103BC300828F83A3A3A982AA83890C8A0D750E0011
:103BD300780C12097E7C237D00901A0BE0FA1249BF
:103BE3005F120995800375081AA90802597FF582A7
:103BF300E43FF583E0F88A828B83A3A322EAF0A350
:103C0300EBF0EA492274F51204A6EAFEEBFF8A827E
:103C1300F583A3A3A3A3A3A3A3A3E09005AE123CA0
:103C230098E09005C9F0EA240B124B269005A912DF
:103C33003C98A3E0901AB5F0F9121008901AB5E079
:103C4300600BEE2404124B182406123C8E901AB417
:103C53001230246004740180027400901A0D126201
:103C6300D212097E7C0B7D007A0E7B1A12495F12F9
:103C73000995EE2418F508E43FF509780812097E42
:103C83007C0B7D007A197B1A02494CFAE43FFB79DD
:103C9300E1120FF0221262BCA3A3A3A32274F712B2
:103CA30004A6EAFEEBFF8A82F583A3E07003122FDA
:103CB300DA125E43024C3474F71204A6EAFEEBFFF9
:103CC300901A0B124F9E6010901A0B1245D5901A42
:103CD3000BE4F0A3F01212848E828F8374081246D1
:103CE300B9121A7C024C3474F61204A6901AB4E08A
:103CF3006010901A0DE0700A123D08EA4B6003123F
:103D03002574025F3D9005A9E0FB9005C9E0FA9098
:103D130005AEE0F91224962274F41204A674E71295
:103D23000A2DEAFEEBFF750B018A82F583A3A3A399
:103D3300A3A3A3A3E0A2E25069EA242BF582E43F04
:103D4300125995EA2413FAE43FFB1224A2E97052B4
:103D5300908A5EE064017005750B008045123DDAC0
:103D630012097E7C0B7D007411120A0512495F1241
:103D73000995122676E9FA740E1209FD8808890955
:103D830078081209827508307509007808120982CB
:103D9300EE125BF012078C125D8A79011230461223
:103DA30009958518828519837410F0125D8A74024F
:103DB300120C6BAA82AB83121362EE242B1265835F
:103DC300740B120C6B124829740D120C6BE50B1259
:103DD3005FFC7419023030EE24081262DA22C082CA
:103DE300C083901AB5E060031226E8024749C082F7
:103DF300C083901AAC74EAF0A37419F0A374EEF0C4
:103E0300A37419F0A374FAF0A37419F0901C11743D
:103E1300BFF0A3742BF0901A967478F0A37424F077
:103E2300901A2F74AEF0A37424F0901A3174B4F086
:103E3300A37424F0901A91E0440202424DC082C060
:103E430083EAFCEBFD7903024F4AC082C083790801
:103E53000260BDC082C08374FE120A2D901A3774AB
:103E63005CF0A37425F0901A397456F0A37425F00E
:103E730080077A247B1A123EB2901A24124F9E7046
:103E8300F1901A26124F9E60097A267B1A123EB2CF
:103E930080EF901A24E4F0A3F0901A2AF0A3F0A381
:103EA300F0901A457498F0A37425F07402801C12E4
:103EB3001212851882851983EAF0A3EB123EC6120B
:103EC300266422F0AA18AB1922741112099502472D
:103ED3004974F61204A6E9FF747029F582E4342FBD
:103EE300F583E493FEFA7B001211E8EA4B6007EADC
:103EF3002E123F2280267A027B001211E8EA4B60E1
:103F030017745A2FF582E4342FF583E4938A828B56
:103F130083F0A3741A1242EB7A007B00025F3D1216
:103F23004818E8125EB7A3A3A3A3E4F022E9FC7444
:103F33000629F8EAA2E0501EE875F00A84E5F0F9D4
:103F43006014740A28C399F8E9C394054004740AF9
:103F530028F8740B28F8ECC39413400479148002F6
:103F63007906E82979002409F85001097A0A7B00C7
:103F7300120356E8F9020947C082C083901A91E000
:103F83005402600A121A82E96004790180027900FE
:103F9300024749C082C083901A91E0540260149092
:103FA3001A2AE0700A124F9B6009123FBB50047932
:103FB3000180027900024749122FFEA2E722C08244
:103FC300C083908A5BE0F8901A2CE0C398500512E6
:103FD30011E880047A007B00024749C082C0831243
:103FE30026647900024749C082C08374FE120A2DF9
:103FF300851882851983EAF0A3EB124154A3A3A386
:10400300A3A3E0600A14605724FE605A0240C490E0
:1040130005AEE0640F601212263AE9700C1245CF28
:10402300901A331246A112061E9005D6E0C0E08511
:104033001882851983124EC8D0E0124154741412A9
:1040430058DBFCA3E0FD7A267B1A12120CA8A8C247
:10405300AF901A2C124178792012262E023EAE120E
:104063004422741580D9124422A3A3A3A3E0605170
:104073001244221236D6C0E0851882851983E024C3
:1040830006F582E43BF583D0E01258DB2402F8A363
:10409300E03400F98882F583E02401FAA3E03400D8
:1040A300FB88828983EAF0A3EB1258DB1244628512
:1040B30018828519836013124129600512413B4020
:1040C30048AA18AB19122664809212412960F21291
:1040D300413B5021124148FA851882851983A3E098
:1040E300C8240612441EF874901250D3342FF5835B
:1040F300E4936A6014851882851983124129640840
:1041030070BF124148640870B81241481412415CF0
:10411300240AC0E08518828519831246A1D0E012D3
:10412300415C0402404212412D22124624C8240657
:10413300F582E438F583E0228518828519831241DC
:104143002DC3940A228518828519831233F9A3E0BB
:1041530022124166F583888222124166C824061220
:10416300444C22F085188285198312462422A8A87C
:10417300C2AF901A2BE004F0E8A2E792AF22C0820C
:10418300C083901A3B124F9E600812442912061EE8
:104193008002790002474974F71204A6EAFEEBFF96
:1041A300EA1235BF74011247D7F8A3E0F91231A11F
:1041B300124829EA2435124B26C0E0EA2413F5827B
:1041C300E43FF583D0E0F0EA2436124B26C0E0EA60
:1041D3002414F582E43FF583D0E0F0EA2438124B4F
:1041E30026C0E0EA2418F582E43FF583D0E0F0EA44
:1041F300242FF582E43FF58312078C125D97EA249E
:1042030031124B26F91235A0120995E9F50870070A
:10421300EEFAEFFB122574A908024C34C082C08366
:1042230012263AE96004792080027901024749C0E5
:1042330082C083EA2411124243D2E0800DEA240DA6
:10424300F582E43BF583E022F0A3F0024749C08204
:10425300C083124240640170111242E5400C8A820D
:104263008B83A3E0F912263480661242D6A2E6506D
:10427300128A828B83A3E0F9901A351246A11206A3
:104283001E804D1242406401700D1242E550088AAF
:10429300828B83743080368A828B83A3E0641B8A8B
:1042A300828B83700474228024A3E0700D12424039
:1042B300F8744F1250D3342F800B124240F8745AC3
:1042C3001250D3342FF583E4938A828B831242EB0B
:1042D3000247491242DA22EA2410F582E43BF583CD
:1042E300E0221242DAA2E322F0901A8CE0F91211D2
:1042F300F42274F71204A6E9FE124F9B70030244E2
:104303001BEE6014741B6E701AE81258A739F583FC
:10431300E0640570030243F3901A2E124429A3E4C8
:104323000243FA74E96E7068E82412F582E439F501
:1043330083E0700B121A88E9600512446C6061799E
:10434300EE120F72901A2D124443901A2D603A12F6
:10435300446F901A2D700B12444314F0121128026B
:10436300441B124461C2E712460A240D12441E6420
:1043730003700912443C1245C0D2E2F079ED120FEA
:104383007212445412061E807812442F74E9806717
:1043930074E16E703E121A88E9605512446C7050D5
:1043A3009005D0E0C0E012443C2412F582E438F5D5
:1043B30083D0E0F09005BFE0C0E0901A2D1244389E
:1043C300124438D0E0F09005BFE004F079011211F7
:1043D300108045741C6E7018901A2D1245D5901AD2
:1043E3003D1246A112061E901A2DE4F0A3F0802878
:1043F300901A2D12442FEEF0901A2D1245D5122546
:10440300621245EBE0548060031260AC901A2DE415
:10441300F0A3F0791012262E024C3412444C22855C
:104423001882851983A3E0F58388822212443322FC
:104433001246A9A322124EF622901A2D124ED7220B
:10444300124ED7241212444C22F582E438F583E04D
:1044530022901A2D1245D9901A311246A522E0F85E
:10446300A3E0C8241012444C22901A2D1245F2E006
:1044730054042274F41204A6750A00750B00A2AF4B
:10448300E433FEC2AF124F9B600302456912469E9E
:1044930012061EE94410F8901A24800985080A853B
:1044A300090B1245B31245C770030245691236C0A2
:1044B300586870E8780A120982AC08AD091237C54A
:1044C300120995901A2DE508F0A3E50912460A1280
:1044D30045C0A2E75003024570901A2BE014F0EE9A
:1044E300A2E092AF901A2DE0240EF8A3E03400F975
:1044F300E8FEE9FF8882F5831245D5901A2D124113
:104503004EF9122526E9901A28125C3A8E828F837F
:10451300E05480601812443C241312441EF9121014
:104523002C12443C241412441EF91210201245EBA1
:10453300A3E05401605F901A28124F9E6045124613
:10454300016040124601F87900901A281245D512ED
:10455300035EE8C0E01245DFD0E012460FC39413B8
:1045630040117402800FEEA2E092AF8037901A2AB6
:104573000244DF7400C0E0901A2EE0C81245AAD0AE
:10458300E0800D1245DF740112460A1245AA740138
:10459300F07903800C901A2D124461A2E1B3E43345
:1045A300F9121110023033241AF582E438F583220C
:1045B300E50824FBF582E50934FFF583221258C18F
:1045C30012444F2212300FE50845092285188285CF
:1045D30019831245D922E0FAA3E0FB22124ED42418
:1045E30019F582E438F58322901A2D1245F222122E
:1045F3004624C81245FA221250E138F58322124E9E
:10460300D4241812444C2212461CC82212461CF50C
:10461300838882A3A3A3A3E022F0901A2D12462439
:1046230022E0F8A3E02274F71204A6EAFEEBFF12DD
:10463300265E124B23A2E3400A123A5A7005908A6F
:10464300598003908A5AE0F9EEFCEFFD7A247B1A35
:10465300121224E96038EEFAEFFB901A371246A1E2
:1046630012061EEE240E124B2654047012124171D0
:10467300EE1231A2A3E05401701E12256E8019EED2
:10468300FAEFFB901A2F1246A112061E800A8E82A1
:104693008F83A374F11246B2024C34901A39124636
:1046A300A5221246A922E0F8A3E0F583888222120C
:1046B30046B912256222F0EEFAEFFB22024742745A
:1046C300F71204A6EAFEEBFF7900901A91E0540278
:1046D300700CEA2433124B265404600279E8901AD2
:1046E30091E05460700CEA2433124B2654026002AA
:1046F30079E88A828B83A3A3A3A3E0F8908A5FE07F
:10470300C398500279E8EA2431124B26700CEA244C
:104713002E124B26700479F5800BE9700512255093
:10472300E9F9E96007EEFAEFFB122634024C34C0D4
:1047330082C0838A828B83740DF0121A7C8007C037
:1047430082C08312256ED083D08202094774F4128B
:1047530004A6EAFEEBFF8A82F583E4F0A31247D7AF
:104763005404908A597012E0F8901A2BE0C39840D1
:104773001279F1122634023033E0F8901A2AE0C39A
:104783009850EE1247DDA3E054016037EA24371254
:104793004B26C394054033EA2433124B2654057049
:1047A300297A3F7B1A122766EE2437F582E43FF518
:1047B30083122FE4780812097A7A3F7B1A1247D1C1
:1047C300120995EEFA1251C480AC79E880A512273C
:1047D3005A740422F01247DDE022EA2433F582E41E
:1047E3003FF5832274F61204A6E9FE2451FAE43459
:1047F30000FB1211E8EA4B6015EE8A828B83A3A3B8
:10480300A3A3F0EA245112481812482980047A001D
:104813007B00025F3DF8E43BF98A828B83A3A322EA
:1048230012658D901B09E8F0A3E9F022024742C00C
:1048330082C083901A4874C2F0A37425F0A374F263
:10484300F0A37425F0A374C8F0A37425F0A374CE69
:10485300F0A37425F0A374ECF0A37425F0A374E023
:10486300F0A37425F0A374DAF0A37425F0A374F80D
:10487300F0A37425F0A374FEF0A37425F0A37404CD
:10488300F0A37426F0A37410F0A37426F0A374D4D9
:10489300F0A37425F0A374BCF0A37425F0A374B63D
:1048A300F0A37425F0901A6474E6F0A37425F0A3C2
:1048B300740AF0A37426F0A3741EF0A37427F0A364
:1048C3007416F0A37426F0A3741CF0A37426F0905E
:1048D3001A88E4F0901A8BF0901A741248EF74025D
:1048E300F0901A7D1248EF740102424D742EF0A32A
:1048F3007426F0A32274F51204A674F1120A2D850E
:1049030018828519837402F07401120C6BE9F0604C
:10491300047AFF7BFF7402120C6B125382750880BA
:1049230075091A750A00780812097E7C0B7D0074DC
:1049330007120C6BAA82AB8312495F120995AA185E
:10494300AB19121A7C740F800312495F1209957F09
:10495300030207037C0B7D007A807B1A1211B87463
:10496300032274F71204A674FD120A2D851882859A
:104973001983740AF07401120C6BE9F07402120CBF
:104983006BEA125FFC0239DD74F61204A674F712A7
:104993000A2DEAFEEBFFEA1249DD124A0D7402F01A
:1049A300EA2428FCE43FFDAA18AB19121362EE2493
:1049B300311249E324331259FB1209827402120A99
:1049C3000D79831A1A12359E120995E9F5087007B5
:1049D300EEFAEFFB122574025F361231A674012240
:1049E300F582E43FF58312300F124EADF583124981
:1049F300FBE8F0A3E9F0EE22124A038A828B8322BA
:104A0300E024FFF8A3E034FFF922F0A3E4F0EA1274
:104A130035BF2274F01204A612646B120C147808CA
:104A2300790C1203B7780812097A7A777B1A023065
:104A33001774F41204A674C6120A2D9005AEE0642E
:104A43000F600D851882851983742E1253A180225D
:104A53007A6E7B1A12305512035E88088909E4F5D1
:104A63000AF50B780812097A7A6E7B1A1247D1126B
:104A73000995743A02303074F51204A6EAFEEBFF8E
:104A83008A82F583A3E0F87078EA2430124B266417
:104A9300026007E06403600278E8EA2426F582E412
:104AA3003FF58312304E400478E88058E87052EAAC
:104AB3002426123C8EEE2431124B182430124B263E
:104AC3006402700EEE24281265839005BD124829F6
:104AD30080179005BD74FEF0A304F0EE2428FCE4D7
:104AE3003FFD7AB47B0512136EEE241B123DDD12DB
:104AF300097E124957120995EEFAEFFB1225B0E928
:104B0300F8E8600EE88E828F83A3125D9F741712FC
:104B13005E49024952FAE43FFB7950120FF0EE224C
:104B2300EE2410F582E43FF583E02274F61204A626
:104B330074F7120A2D901A8BE070377401F0F91292
:104B430010DAAA18AB1912267075088075091A783D
:104B53000812098275080175090078081209829004
:104B630005C312078C7406120A0D7A03123044121D
:104B73000995025F3874F71204A6124D547004A30A
:104B830074EBF0901A8BE0A2E25003C2E2F0E0A2D1
:104B9300E15005124D6580098E828F83742A125E5F
:104BA30049024C3474F41204A674FE120A2D124CFA
:104BB3005A124EA0EC851882851983124EEFE0F548
:104BC3000B7015AA18AB197953120FF0EE2413FAD0
:104BD300E43FFB794A120FF0123DDA12097E1249C3
:104BE300571209951245CFA90B1225A4901A8BE0F1
:104BF300A2E15003124D6C901A8BE4F07402023060
:104C03003074F71204A6EAFEEBFF8A82F583A374DD
:104C1300EBF0901A8BE0A2E150077A0079EB1225B2
:104C2300AAEEFAEFFB1225E08007EEFAEFFB12265D
:104C3300DC7F0102070374F71204A6124C5A901A80
:104C430088E4F0901A8BF07AFF7BFF8E828F83A328
:104C5300E0F91225A480DA124DA57A777B1A122780
:104C6300662274F71204A6EAFEEBFF1225DA80BA75
:104C730074F71204A6124DE2A3A3A3E06004740028
:104C8300800274EB124CB35003C2E2F0E0A2E15095
:104C930005124DB68011A2E0500D8E828F83742AC7
:104CA300F0A374EB125E49EEFAEFFB1225868081C6
:104CB3008E828F83A3F0901A8BE0A2E22274F61205
:104CC30004A6EAFEEBFF901A8BE0D2E1F079011221
:104CD30010DA8E828F83A3E07038122676E9FAEE1B
:104CE300240DF508E43FF5097808120982750801D7
:104CF3007509007808120982124D2612078CEE24DA
:104D030002FCE43FFD123044120995E98E828F8341
:104D1300A3F08E828F83A3E060067A00F91225AA9E
:104D2300025F3DEE240BF582E43FF5832274F71214
:104D330004A6124D547004A374EBF0901A8BE0A2F6
:104D4300E25003C2E2F0E0A2E15003124D65024CCF
:104D530034EAFEEBFF79011210E08E828F83E06468
:104D63002022C2E1F0124D6C227A008E828F83A33F
:104D7300E0F91225AA2274F71204A6124DA58E8219
:104D83008F83A3A3A3A3E060047400800274EB12D7
:104D93004CB35003C2E2F0E0A2E15003124DB6025D
:104DA3004CAAEAFEEBFF79011210E07A6E7B1A122D
:104DB300276622C2E11262CDE0A2E4E433FA124D87
:104DC3006E2274F71204A6124DE274EB124CB85023
:104DD30003C2E2F0E0A2E15003124D65024C34EA53
:104DE300FEEBFF79011210E08E828F83A32274F70A
:104DF3001204A6124E07024C2D74F71204A6124E8B
:104E030007024C34EAFEEBFF7A6E7B1A122766EE3A
:104E1300FAEFFB1226042274F71204A674EF120AA7
:104E23002DEAFEEBFFEA125D8B7AB47B0512135C6D
:104E3300E960568518828519837409F07401120C90
:104E43006B74EFF0124EA07402120C6BEC124EEF67
:104E5300A3A3E0C0E07404120C6BD0E0124EDC6438
:104E63000870158E828F83A3A3124EC8E0C0E0742E
:104E730005120C6BD0E080067405120C6BE4125C17
:104E8300277406120C6B124E9174110239DFAA8239
:104E9300AB831226A6AA18AB19121A7C22124EADA6
:104EA300F583124EBFFCA3E0F922EE124EB5FB8848
:104EB30082222402F8E43FF9E8FAE9221246248820
:104EC30082F583E022124ED72407F582E438F58376
:104ED30022901A2D124624C822124EE022124EE5C9
:104EE300E022F08E828F83A3A3A3A322125EB712C4
:104EF3004EF622124EFA22E0F8A3E0F5838882A34D
:104F0300A322C082C0831226E8024749C082C0831D
:104F1300901AA87448F0A3741AF0A37464F0A374ED
:104F23001AF0901C0B7483F0A3742CF0A3745DF03F
:104F3300A3742BF0901A94749EF0A37425F0901A26
:104F430091E0440102424D12264C02474974F61285
:104F530004A674FE120A2D901A8D124F9E60077AD2
:104F63008D7B1A122664901A93E4F0900C67124F0B
:104F73009E60208007AA18AB19122664901A8CE051
:104F8300F91212008B09A909851882851983123C2D
:104F93000070E27402025F3A901A2D12658DE8499F
:104FA3002274F71204A6E9FA7B00901A8CE0F91236
:104FB300122A024C3474F71204A674F0120A2DEA72
:104FC300FCEBFDE9FE8A828B83E0F874861250D3F2
:104FD300342FF583E493C0E07401120C6BD0E0F03E
:104FE300640B700DE98A828B83A3F01226CA0250E8
:104FF300CEE070030250CE640C60030250BF741AFB
:105003006E700B7404120C6BE4F0A30250BE7404B4
:10501300120C6B125382EA243212588BC0E07403D1
:10502300120C6BD0E01262B8120C3C7406120C6BBB
:10503300120C308C828D83A3A3A3A3A3A3A3A3A346
:10504300126589740A120C6BE8F0A3E91250D8E0D8
:1050530054106009851882851983E48013EC2412A7
:1050630012588BF89005D0E0C39885188285198370
:10507300F0E0C0E0740C120C6BD0E0F0EC241512DD
:10508300588BC0E0740D120C6BD0E0F0EC241612B8
:10509300588BC0E0740E120C6BD0E0F0EC241712A6
:1050A300588BC0E0740F120C6BD0E01250D8A3E001
:1050B300540160087401120C6B7411F07402120C29
:1050C3006BEEF07401120A05121A7C74100239DFB8
:1050D30028F582E422F0EC1250E13DF58322240E00
:1050E300F582E422C082C083901A93E064037004C3
:1050F30079018002790002474974F71204A6901AD5
:1051030093E0125177740928F582741C39F58312E0
:105113005609C2E7F012517EA3E493FE25E0FCE4B6
:1051230033FD74092CF582741C3D125995EC4D60C6
:1051330005EE901A93F08A828B83E025E0FCE4333A
:10514300FDE82CF582E93DF583E493FCC4540F2577
:10515300E0F874A21250D3341AF583124F9E7005EF
:105163001226B8800CEC540F12517E1246A112067F
:105173001E024C3425E0F8E433F92225E0FCE82C48
:10518300F582E439F5832274F21204A674FE120A3E
:105193002D890B8A088B0912522912521A601A128E
:1051A3005C34F50A780812097E1252362402125929
:1051B3008B1209951251C2800312524802362FAA4C
:1051C3000CEFFB901A8CE0F91211F42274F0120424
:1051D300A674FE120A2D890B8A0E8B0F125229F523
:1051E3000812521A6027125C34A808EA28123F22D8
:1051F300850E08850F09F50A780812097E125236C2
:105203001259891209951251C27900800512524828
:10521300791A740202301CFA7B001211E88A0C8B93
:105223000DAF0DEA4F22747B29F582E4342FF58309
:10523300E49322A80B74651250D3342FF583E493BF
:10524300FC7D00EA22851882851983E50BF0791A23
:10525300AA18AB1912263422C082C083E9901A8C93
:1052630002424D74F61204A674FE120A2DEAFEEBF6
:10527300FFEA542070308039A8A8C2AF901A2CE0FE
:105283001412417A8A828B8312536F901A8F1253AE
:1052930082122640851882851983E0641560077A97
:1052A3008F7B1A1226647A267B1A121212EA4B702B
:1052B300C7EF5480700C8016901A8FEAF0A3EB129C
:1052C3005395901A8CE0F9121200EA4B70EAEE54EF
:1052D30010600B851882851983742D1253A1EEA2D9
:1052E300E0500B85188285198374241253A1EE5460
:1052F30002600B85188285198374251253A1EE541D
:1053030004600B85188285198374261253A1EE5409
:1053130008600B85188285198374281253A1EE54F3
:1053230040600D7401120C6B125388742C1253A13C
:10533300EE5480600D7401120C6B125388742F129B
:1053430053A1901A8D124F9E601BA8A8C2AF901A4A
:105353008D1245D5901A8DE4F0A312417AA3EAF099
:10536300A3E91253957A007B00024F9612537322DE
:10537300E0851882851983F022A3A3A3A3A3A3EA3C
:10538300F0A3EBF022E412538D22F08518828519E5
:105393008322F01226407A8F7B1A12266422123E51
:1053A300C612264022C082C083901A8F125FF7680C
:1053B3007002EB697007901A8FE4F0A3F00247497B
:1053C30074F71204A6EAFEEBFFEA4F7003120DA472
:1053D300A2AFE433F508C2AF8E828F83124F9E6073
:1053E30028E824FBFAE934FFFB901A8F125997E857
:1053F3006C7002E96D7007901A8FE4F0A3F08E824F
:105403008F83E4F0A3F012128402384BC082C0836E
:10541300901AB674ACF0A37426F0A374BEF0A37410
:1054230026F0A374C4F0A37426F0A37480F0A374CD
:1054330025F0A374CAF0A37426F0A3747AF0A374BE
:1054430025F0A37486F0A37425F0901AC474FAF0BF
:10545300A37426F0A374D0F0A37426F0A374D6F03B
:10546300A37426F0A374E2F0A37426F0A374DCF013
:10547300A37426F0901AB5E402424DC082C0839013
:1054830005BDE064FE7003A3E0F470097CB47D0500
:10549300121362801C8A828B83A3A3A3A3A3A3A357
:1054A300A37402F09005BD1265898A828B8312482A
:1054B30029024749C082C0839005C7C3E094FEA375
:1054C300E094FF4004790380027902024749C082D5
:1054D300C0831256128C828D831255C7687039743B
:1054E3000268701C8A828B83125520E06870298AB7
:1054F300828B83A3125520A3E068701C7901801A64
:105503007403687013EC2405FC50010DEA2405FABA
:1055130050010B12136880027900024749A3A3A329
:10552300A3A3E0F88C828D83A3A3A3A3A32274F681
:105533001204A67E00740A120C6BE01255BBFF8A9C
:10554300828B83A3A3A3A3A3A3A3A3E06F70647419
:10555300026F704E8A828B83C082C0838882898364
:10556300A3A3A3A3A3E0F50888828983A3A3A3A38A
:10557300A3A3E0FBAA08D083D082E06A7003A3E070
:105583006B703088828983A3A3A3E0FA888289831E
:10559300A3A3A3A3E0F9EA6C7002E96D70157E0181
:1055A300801174036F700CE82405FCE439FD1213B9
:1055B30068E9FEEEF9025F3DF8A3E0F98882F5831E
:1055C3001255C722A3E01313543F540322C082C0D1
:1055D300838A828B83A3A3A3A3A3A3A3A3E06402CD
:1055E30070169005BD125609687003A3E069700434
:1055F3007901800F7900800BEAFCEBFD7AB47B051F
:1056030012135C02474912658D8A828B83E0228ADA
:10561300828B831255C7F82274F01204A674FC120D
:105623000A2DE9851882851983F07402120C6BEC3C
:10563300F0A3EDF08A0A8B0B7508007402120C6B51
:10564300E0240812588BC0E07401120C6BD0E012F6
:1056530058DBA2E75008750EFF750FFF800A90050F
:10566300C3E0F50EA3E0F50F851882851983E0C228
:10567300E71258E0542060071258AD7408800412F2
:1056830058ADE41258E0540460071258B87480808F
:10569300051258B874101258E0541060061258934B
:1056A300E4800B9005D0E0C0E0125893D0E012588C
:1056B300E0A2E05003750820540860067410450802
:1056C300F5088A828B83A3A3E024FFFEA3E034FFC3
:1056D300FFEA12589EC39402E0400F640B6009E096
:1056E300148E828F831258D174034508F508750907
:1056F300009005E3E0640170118A828B83A3A3A366
:10570300A3E0C39467400375091085188285198344
:10571300E0F50C750D00740E780C120B46E50D4583
:1057230009F509E06402701B9005C8E08E828F833F
:10573300F09005C7E0C0E01235A6D0E0F0EE24FEFD
:10574300FE801CE06403701DEE24F9FEEF34FFFFBE
:105753007CD77D05EEFAEFFB12136EEE24FF1EEFEE
:1057630034FFFF8003E0602F7401120C6BE06018BC
:105773007414120C6BE0650E7004A3E0650F7008DF
:1057830074404508F508800F8E828F83E50FF01271
:1057930035A6E50E1258C77401120C6BE0F50C75B3
:1057A3000D00740A780C120B46E50D4509F509E066
:1057B300640270237402120C6B125FF28E828F8369
:1057C300F07402120C6B1236D8C0E01235A6D0E08A
:1057D300F0EE24FEFE8020E064037021EE24F9FE47
:1057E300EF34FFFF7402120C6B125997EEFAEFFBC2
:1057F30012136EEE24FF1EEF34FFFF8003E0601CE4
:105803007414120C6BA3E08E828F83F07414120C49
:105813006BE0C0E01235A6D0E01258C7EEF8EFF9FE
:10582300E824FF1EE934FFFFE50A12589E70059035
:1058330005B380039005BFE0FA04F0EA8882898308
:10584300125D9FE5091258D18E82F583E508F0E5D4
:105853000A2404F8E4350BF9E50A2402FAE4350BCB
:10586300FBEEFC8A828B83E0F50888828983E0253E
:1058730008C39C125EBAEEF0A3EFF0850A82850B93
:1058830083A3E4F0F902301AF582E43DF583E022C4
:10589300EA2412F582E4350BF583221258A7350B5F
:1058A300F583E022240DF582E422EA2410F582E454
:1058B300350BF58322EA1258C1350BF583222411E7
:1058C300F582E422F0EE24FEFEEF34FFFF22F0EE39
:1058D30024FF1EEF34FFFF2212538DE022F0EA1261
:1058E30050E1350BF583E02274F11204A674FE1225
:1058F3000A2D851882851983ECF0A3EDF0890B8AB4
:105903000E750A1A7415120C6B12681C1225208A64
:105913000C8B0DAE0CAF0DEA4F605A7413120C6B67
:10592300125FF71259F6F0A3E9124A10E50BF0756E
:105933000A00780812097E7C0B7D00EA125989124D
:1059430009957411120C6B12078C7402120C6B12F2
:105953005997A90E12359C120995E9F50A7016E5B7
:105963000B24F960031470061237DED2E5F0EEFA69
:10597300EFFB122574A90A74021209957F07020727
:10598300037C0B7D00EE241BFAE43FFB1211B87479
:105993000322F583E0FCA3E0FD2274F61204A6744F
:1059A300F7120A2DEAFEEBFF7801EA2432124B26A6
:1059B30060027805EA1259F6124A0D7404125D92D8
:1059C300AA18AB19121362EE242F1249E3243112E1
:1059D30059FB1209827402120A0D79031A1A12353D
:1059E3009E120995E9F5087007EEFAEFFB1225748C
:1059F300025F361231A6E822F582E43F1231991292
:105A03004EE004F078082274F21204A68A088B0987
:105A1300ECFEEDFF8A828B837405F0EC125E2B1291
:105A2300617FF0EA2403F50AE43509F50B850A8260
:105A3300F583E0F50CA3E0F50DEC2425F582E43FB6
:105A4300F583120C3CE50C1258C1350DF583120C8D
:105A530030EC125D8BAA0CAB0D121362850A8285A2
:105A63000B8312689C125BF0125C1312537CEE24BE
:105A73002F124B26C0E0125BF9D0E0125C3F2415D5
:105A8300F582E438F583E4125C3F1245FAE4125CD4
:105A930027850A82850B83E02416FAA3E03400FBF2
:105AA3001226A68E828F83A3A3A3A3A3A3A3E0C0DE
:105AB300E0850A82850B8312443F1258A738F58389
:105AC300D0E0125C1EFAA3E0FB850A82850B8312E9
:105AD3006589E8240BFCE439FD8A828B83E08C82A0
:105AE3008D83125C3A8A828B83A3E0F50B8C828DC3
:105AF30083A3E0450B125EB2A3E0FCEA2403FA5051
:105B0300010BECA2E7E433C0E0E8240FF582E439AB
:105B1300F583D0E0F074075C6004780180027800BC
:105B230075F00374075CA428F8EA28FAE43BFBE564
